:020000040800F2
:1000000080280024FD370008A9C50008E93700084A
:10001000E9370008E9370008E93700080000000068
:10002000000000000000000000000000D5380008BB
:10003000E9370008000000007538000879810008E1
:10004000D53A0008D53A0008D53A0008D53A000854
:10005000D53A0008D53A0008D53A0008D53A000844
:10006000D53A0008D53A0008D53A0008D53A000834
:10007000D53A0008D53A0008D53A0008D53A000824
:1002CC0053B94AB9002908BF00281CBF4FF0FF31B1
:1002DC004FF0FF3000F00CB8ADF1080C6DE904CE16
:1002EC0000F010F8DDF804E0DDE9022304B07047FB
:1002FC00704700BF034613F8012B002AFBD1181AD4
:10030C00013870472DE9F04786468C460846089E12
:10031C00154674461946002B40F0C2808542B2FA4D
:10032C0082F245D94AB1C2F1200300FA02FC2EFA3E
:10033C0003F3954043EA0C0C94404FEA154EA8B2D7
:10034C00BCFBFEF8230C0EFB18CC08FB00F943EAAF
:10035C000C43994528D9EB1808F1FF3704D299457D
:10036C0002D9A8F102072B44A3EB0903A4B2B3FBF7
:10037C00FEFC0EFB1C330CFB00F044EA0344A042D1
:10038C0014D92C190CF1FF3304D2A04202D9ACF1D0
:10039C0002032C44241A43EA07401EB1D440002324
:1003AC0034607360BDE8F0874746DDE76346F1E7EC
:1003BC0092BB431B01214FEA154EAFB2B3FBFEFCBF
:1003CC00200C0EFB1C330CFB07F840EA034398454A
:1003DC0062D9EB180CF1FF3004D2984502D9ACF17C
:1003EC0002002B44A3EB0803A4B2B3FBFEFC0EFBF0
:1003FC001C330CFB07F744EA0344A7424ED92C19D3
:10040C000CF1FF3304D2A74202D9ACF102032C4405
:10041C00E41B43EA0040C0E7C2F1200320FA03F1D9
:10042C00954090402EFA03F303434FEA154EAFB2BA
:10043C00B1FBFEFC0EFB1C10190C0CFB07F841EA7F
:10044C000041884504FA02F422D969180CF1FF30F6
:10045C0004D2884502D9ACF102002944A1EB080171
:10046C009BB2B1FBFEFC0EFB1C110CFB07F743EA25
:10047C0001439F420ED9EB180CF1FF3104D29F427D
:10048C0002D9ACF102012B44DB1B41EA004192E79B
:10049C006046E3E76146F7E76046A3E76346B7E7E4
:1004AC00834206D916B9002108467BE7C6E900E06D
:1004BC00F9E7B3FA83F78FB9834201D3724508D8B1
:1004CC00BEEB020460EB030301209C461EB9002125
:1004DC0068E73846FAE7C6E9004CF8E7C7F1200CA4
:1004EC00BB4022FA0CF41C432EFA0CF120FA0CF34C
:1004FC00B84001434FEA14490EFA07F5B3FBF9F87B
:10050C001FFA84FE09FB18300B0C08FB0EFA43EAA9
:10051C0000439A4502FA07F240D9E31808F1FF307C
:10052C0004D29A4502D9A8F102002344A3EB0A0392
:10053C0089B2B3FBF9F809FB183308FB0EFE41EA4C
:10054C0003418E452CD9611808F1FF3304D28E4536
:10055C0002D9A8F10203214443EA0040A0FB02980F
:10056C00A1EB0E014145CE46434602D306D14D4583
:10057C0004D2B9EB020E68EB04030138002EA6D0AE
:10058C00B5EB0E0261EB030101FA0CFC22FA07F346
:10059C004CEA0303F940C6E9003198E74046C5E749
:1005AC004346D9E7F0B589B045480DF07BFBF0B177
:1005BC0000210391049105910691079110238DF868
:1005CC000C3001238DF80D304FF47A5304938023B3
:1005DC0006934FF47A730793394883681B6803AA10
:1005EC009847044640B137480BF0B7FC31E0364829
:1005FC000BF0B3FC2DE00134032C0EDC334901EB82
:10060C00C41180222E480CF03CFD0028F3DA02467F
:10061C0021462F480BF0A1FC1BE0294883681B697D
:10062C00002211469847064618B92A480BF095FC4B
:10063C0021E029480BF091FC0BE011F10B0F0AD0D3
:10064C0026480BF08AFC1E4883681B690122002196
:10065C00984709B0F0BD0A2000210AF0ABF80AE077
:10066C000199029A16480CF00CFD002823DB64203B
:10067C0000210AF09FF8002301930293104883682D
:10068C009B6802AA01A99847011ED6DB019F002F87
:10069C00EDD0029D002DEAD06D0834462B46082D76
:1006AC00A8BF0823A342DBDD37F914100C480BF06C
:1006BC0054FC0134F2E701460A480BF04EFCC2E749
:1006CC0060E4000848EB000830EB0008E808002460
:1006DC0064EB000894EB00087CEB0008C0EB00080E
:1006EC0078EB0008D4EB0008F8B5B2F5802F01D2F6
:1006FC00042A2BD9B2F5802F38D30823D21ACC1D5B
:10070C0024F007040A4422F00702121BD108172A0E
:10071C002ED90460A1600023E360B2F5802F37D39B
:10072C0008200830A1EBD0030133B3FA83F3C3F1F3
:10073C00200CC3F124039B0003F1070E4FEADE06E5
:10074C0006EBD000884225D8002338E0414C40F21B
:10075C001A232246404941480BF016FC40480BF046
:10076C0013FC40F21A2120460BF005FC0423C5E7CC
:10077C00384C40F2232322463A4938480BF004FC0B
:10078C0037480BF001FC40F2232120460BF0F3FB21
:10079C000420C6E72F4C4FF40E73224632492F48E3
:1007AC000BF0F2FB2E480BF0EFFB4FF40E712046D2
:1007BC000BF0E1FB181D002544F820500133634574
:1007CC00F8DB7300B2F5802F31D36360B2F5802F64
:1007DC002FD300232360B2F5802F2DD3636843F011
:1007EC0001036360881B47002EF00703E518B2F580
:1007FC00802F26D36F60A568B5F5004F23D3E65044
:10080C0022F007032244A568B5F5004F1DD300253F
:10081C005560A268B2F5004F1AD3E0500122204671
:10082C000BF083FA314620460BF0EDFAF8BD6380ED
:10083C00CCE700232380CEE7638843F00103638079
:10084C00D0E76F80D7E7E652DAE700255580E0E77E
:10085C00E052E3E7E8EB0008DCEC000820EC0008D1
:10086C0000ED00081CED000848ED0008F8B540B19B
:10087C00064603784578847804EB83040444002707
:10088C0011E00B4CC62322460A490B480BF07CFBAB
:10089C00C62120460BF06FFB01342046FFF72AFDE2
:1008AC00013004440137AF42F6D3A01BF8BD00BFA2
:1008BC0074ED0008A4ED000820EC00082DE9F04FC1
:1008CC0091B005920393134602F004020092C3F315
:1008DC00C20210F00303019340F0758280468A46F1
:1008EC000132041D002859D0B8F1000F05D0A4EB3B
:1008FC0008030433534500F26982039B5D1E019B80
:10090C0004930693029300264FF0FF3B0427B9464D
:10091C00B8F1000F01D0039B2360531E0793002AEC
:10092C0040F367810122059B03F00203002B14BFE7
:10093C000123002302F0010118BF002149BBA4EBE5
:10094C0008008108B0F5007F34BF002303F00103D9
:10095C00002B40F05F81029B0F2B00F26B81B8F1F2
:10096C00000F00F07B81CBB2029800F1400169448A
:10097C0001F8103C01F820BC002A00F06B8163F0F8
:10098C007F0301F8103C049B01330493029B013359
:10099C00029304340022CC4640463DE001F0070AA5
:1009AC005444CAF1080A9FE7002634E0002632E0DE
:1009BC00002630E00827BC462DE025292BD10BF171
:1009CC00010B01260427BC4625E04729EED82A292D
:1009DC0014D32A39C9B24FF0010E0EFA01F14FF6B9
:1009EC00DA7E11EA0E0F16D111F0625F40F0C08072
:1009FC0011F0010F40F08C8000260CE0252903D16A
:100A0C000BF1FF3B002606E001D9002603E020296C
:100A1C0001D02329CCD11D466B1C6978002900F02C
:100A2C004881002EC9D07A29BED84C29CDD34C3957
:100A3C002E2961D80FF2040E5EF821F0230A00086B
:100A4C00050B0008050B0008050B0008050B00083A
:100A5C00050B0008050B0008050B0008050B00082A
:100A6C00050B0008050B0008050B0008150B00080A
:100A7C00050B0008050B0008050B0008050B00080A
:100A8C00050B0008050B0008050B0008050B0008FA
:100A9C007D0B0008050B0008150B0008150B000852
:100AAC007D0B00087D0B00087D0B0008230A000855
:100ABC00150B0008C1090008050B0008230A0008E3
:100ACC00050B0008D90B0008150B0008D90B000802
:100ADC00050B0008050B0008E10B00080F0B0008C4
:100AEC00150B0008050B0008050B0008150B00087A
:100AFC00050B0008090B000800268CE70427BC46F0
:100B0C0089E70427BC4686E729786C2924D000267F
:100B1C003C44013CB4FBF7F407FB04F420B1211A6C
:100B2C006144514500F25581002A58D1BCF1040FA3
:100B3C0000F0A580BCF1080F40F0A9801A9907318C
:100B4C0021F0070101F108051A95D1E9008908B1D6
:100B5C00C4E9008908345EE713F8021C6C2903D041
:100B6C0000260427BC46D3E700260827BC46CFE75F
:100B7C0029784C291AD01A99073121F0070101F173
:100B8C0008061A96D1E90067073424F0070440B12F
:100B9C00211A0831514513D829784C2913D0C4E9AE
:100BAC000067083400260827BC4634E71A99073139
:100BBC0021F0070101F108061A96D1E90067E3E775
:100BCC006FF01B00FCE0C4E90067EAE7002604278D
:100BDC00BC469DE7324600260427BC4698E7E14612
:100BEC0080461A9A111D1A9112680392079A1D4693
:100BFC008EE67B4B039A9A4204D37A4B9A4205D3E6
:100C0C00002300E000231BB900228CE60123FAE745
:100C1C00012288E6744C4FF41F73224673497448C2
:100C2C000BF0B2F973480BF0AFF94FF41F7120467B
:100C3C000BF0A1F96C4C40F2812322466B496C48B5
:100C4C000BF0A2F96C480BF09FF940F28121204681
:100C5C000BF091F9069B0133069397E612B10AF15A
:100C6C00010A93E6009B13B10AF1020A8EE603987F
:100C7C00FFF740FB0AEB000303F1020A86E61A9920
:100C8C000D1D1A95096800B121600434C3E6E146D4
:100C9C00554C40F2C6232246544955480BF074F982
:100CAC00494656480BF070F940F2C62120460BF02D
:100CBC0062F98046231AB3F5806F13D210B3002269
:100CCC0002609B080370009B03B3069BC370049BDC
:100CDC0088F80230ABBB019DDDF80890DDF810B050
:100CEC00039F4FE0404C40F2D22322463F494048FC
:100CFC000BF04AF942480BF047F940F2D22120465A
:100D0C000BF039F95344A3F1080059E0069B4370EA
:100D1C00DDE704F8011B01339842DCD903F14002F2
:100D2C006A4412F8101C12F9102C002AF3DA01F0A4
:100D3C007F01A4EB080201325245EAD96FF01B0087
:100D4C003EE0019B0298E7E7009B43B305F14003AB
:100D5C006B4413F8203C04F8013B019EA4EB080300
:100D6C0033440133534537D805F140036B4413F832
:100D7C00103C04F8013B3246394620460DF03BF955
:100D8C0034440135A94519D9BBF1000FDCD005F16C
:100D9C0040036B4413F9103C002BD5DAF1E705F155
:100DAC0040036B4413F8103C58F82370002248F8A9
:100DBC0023203846FFF79EFA461CCFE7A4EB080029
:100DCC0011B0BDE8F08F6FF00D00F9E76FF01B006C
:100DDC00F6E76FF01B00F3E76FF01B00F0E700BFC6
:100DEC0018E100084822010874ED0008ECF2000834
:100DFC0020EC0008BCED0008E0ED0008FCED00085C
:100E0C0014EE00082DE9F04F97B000AF39617A610C
:100E1C007862B0B19B46D7F88030C3F3C003FB6156
:100E2C003B69DBB17B6A93F80280C7F80C80B8F1A0
:100E3C00000F18D0D7F8803013F0010F20D1002309
:100E4C0012E0B14C40F299332246B049B0480BF055
:100E5C009BF840F2993120460BF08DF8786AFFF739
:100E6C0005FD3861DEE7002319467A6AD2783A62CA
:100E7C0042B1D7F8802012F0020F22D1002202E0FA
:100E8C000123F1E7002213431DD07A6A1578AB00D9
:100E9C00BB6013465268BA6103EB85057B69FBB1F5
:100EAC00002940F01781FB68002B00F02281D7F855
:100EBC00803013F0040F40F02081002082468046E1
:100ECC000CE10122DFE77B691BB15A463969786A6C
:100EDC009847D7F8109048465C37BD46BDE8F08F70
:100EEC00D7F81090D9B9FB681D444FF0000B21E0E6
:100EFC0081440135013444451BD22A780023796A98
:100F0C0051F82220194678690AF0B4FF002E18BF58
:100F1C00D345EDD226F81B000BF1010BE8E70024BA
:100F2C00A346D7F80C803E61D7F88460D7F888A028
:100F3C00E1E73E69D7F8803003F00503FB604FF022
:100F4C00000AC7F810B0B346AFE00025FB6993B9AF
:100F5C00002D00F08D80D7F8803013F0010F40F099
:100F6C008C80FB68002B40F081800223A9EB0309E5
:100F7C0098E00125EAE74146B8690AF0C1FF00286C
:100F8C00E6D06D46002387F82C30022387F82D30ED
:100F9C008AB0694611F1100251D01226131E18BFE7
:100FAC0001233046042ED4BF4FF0000C03F0010C8B
:100FBC00BCF1000F01D0574E4E61002687F8286017
:100FCC00022687F829600828D4BF002603F0010602
:100FDC000EB1BE698E610C28D4BF002303F001034F
:100FEC000BB1C1F81C806ABB11283CDD122362B125
:100FFC00042087F82C00002087F82D0087F82E009D
:10100C00012087F82F00F86A08616FF3000B6FF36B
:10101C00410B6FF3820B6FF3C50B022161F3881B3D
:10102C00C3F30A0363F3532B6FF31F5B002359467F
:10103C00394801F047FBAD46A9F1020932E06FF0E7
:10104C000046ABE701F12003002609E006F1300C65
:10105C0007F1280EF4441CF830CC03F801CB013610
:10106C00012EF3D9C0E76FF01B03C0E701237DE726
:10107C00D7F8803013F0020F14D0002332461946F3
:10108C0078690AF0F7FED7F884203B69D7F8881006
:10109C00002A18BF8B4203D222F8130001333B61A4
:1010AC00013881440AF1010A25463B6A9A45BFF48E
:1010BC0012AF2C4614F8028B6B787A6A52F82360C4
:1010CC00164B9E42FFF441AF154B9E42FFF451AFBD
:1010DC0000253BE707F144004FF0000A18B1FA680D
:1010EC0029460CF088FFFB681D440026C7F804B0A5
:1010FC0033E0002082468046F0E7C24607F1340018
:10110C004FF00008EAE700BF74ED00082CEE000871
:10111C0020EC000848EE000888EA000818E10008F6
:10112C00482201080025FB696BBB002D61D0D7F864
:10113C00803013F0010F3AD0B8F10F0F2AD808F114
:10114C00010308F1300207F1280102EB010808F84D
:10115C00149C5FFA83F8013625463B6A9E4280F068
:10116C008E802C4614F802BB95F801907B6A53F8DC
:10117C0029308A4A9342D5D3894A934201D3002518
:10118C00D1E70125CFE75946B8690AF0B9FE002826
:10119C00CBD0E0E7834C40F243432246824983485C
:1011AC000AF0F2FE40F2434120460AF0E4FED7F882
:1011BC00803013F0040FCED0BAF10F0F0CD80AF117
:1011CC0001030AF1300207F1280102EB010A0AF8C7
:1011DC00249C5FFA83FABEE7724C40F246432246E7
:1011EC00734972480AF0D0FE40F2464120460AF09C
:1011FC00C2FED7F8803013F0020F1CD0B8F10F0FDD
:10120C000CD808F1010308F1300207F1280102EBB8
:10121C00010808F8149C5FFA83F89CE7614C40F2D3
:10122C004D432246604961480AF0AEFE40F24D4102
:10123C0020460AF0A0FEBAF10F0F13D80AF10103F1
:10124C000AF1300207F128010A4402F824BC0AF121
:10125C00020A5FFA8AFA07F1580252FA83F303F88A
:10126C00249C78E74F4C4FF48A63224650494F48F0
:10127C000AF08AFE4FF48A6120460AF07CFED7F809
:10128C0004B07A6A137887F854305378434487F85B
:10129C005530D7F8803013F0020F0DD1CAF3470345
:1012AC0087F85730D7F8803013F0010F06D113F0C0
:1012BC00040F36D1002302E00023F1E7002387F866
:1012CC0056307C6A20683863786D20605A46B9685D
:1012DC0020467E69B047B0F10009FFF6FCAD386BD3
:1012EC0020605A46514607F13400B04700284EDBC7
:1012FC0009EB0004FA68BB681A443B6A02EB430131
:10130C005A463B69591A2846B047B0F10009FFF616
:10131C00E2AD04EB09050024C7F82080D7F88490CF
:10132C0015E05346CBE74FF0000A5A46012107F16E
:10133C002C00B04700282CDB054453464246594646
:10134C0030460AF097FD002825DB054401343B6A42
:10135C009C4215D204F1300307F12802134413F810
:10136C00143C87F82C307A6A52F82380D7F88830EE
:10137C00B9F1000F18BF9C42D5D239F814A0D4E7AC
:10138C005A46002108467B699847A946A3E5814641
:10139C00A1E581469FE581469DE500BF18E1000867
:1013AC004822010874ED0008ECEE000820EC00085F
:1013BC000CEF0008014B1860704700BF00000024C0
:1013CC0080B505460E461746984609F0ADFA034619
:1013DC000CF092FE0446DFF8189049F800304246B3
:1013EC0039463046A84754F8090002F023FA00BFEA
:1013FC000800000038B504460D46202200210CF0F0
:10140C0008FEEB68E361AB68A3612B6823626B6831
:10141C0063620022A2622A6922612BB1591E0B421F
:10142C0002D142F00102226104F12C0001220021C0
:10143C000CF0ADFC00B938BD054C2F2322460549F4
:10144C0005480AF0A1FD2F2120460AF094FD00BFAB
:10145C0040EF000868EF000820EC00082DE9F04F81
:10146C0089B09A46002307930593436A8B42C0F0D8
:10147C00F380834689460023029301270393904609
:10148C0062E0784D88232A46774978480AF07CFD3B
:10149C00214677480AF078FD882128460AF06BFD32
:1014AC00029958460AF0A6FE0023059361E0DBF88A
:1014BC002030DBF8002003EB8201039113F822109B
:1014CC006FF3000103F82210C9B26FF3410103F866
:1014DC002210DBF800304B44DBF8102012F0010F27
:1014EC0005D1DBF824108B4205D35B1A03E0DBF843
:1014FC00241001390B40CBF80030DBF80C1099426A
:10150C0001D0002709E042F00802CBF81020002798
:10151C0003E058460AF0A4FD2F46019D204609F031
:10152C00AFFC002800F0878085F31188BFF36F8F24
:10153C00079931B1DBF818300BB1584698470023A6
:10154C000793002F00F08A800BF11404EFF311863F
:10155C00102383F31288BFF36F8F204609F080FCB1
:10156C0000288ED0204609F0A5FC0196059A002A89
:10157C0096D106A958460AF015FD05460699494527
:10158C0095D20028C5D15AEA08030CD1002FC4D03B
:10159C00DBF80030029305AB07AA069958460AF00F
:1015AC0092FD0746B9E70CF02EFC0028EED1002E78
:1015BC00ECD1204609F064FCE8B186F31188BFF346
:1015CC006F8F0BF12C004246534608F05FF807462C
:1015DC00EFF31185102383F31288BFF36F8F20462E
:1015EC0009F03EFCC0B1204609F064FC0195B7FA45
:1015FC0087F77F0991E71B4D4FF49A732A461D49D3
:10160C001A480AF0C1FC21461B480AF0BDFC4FF4F5
:10161C009A7128460AF0AFFC124D88232A461249CB
:10162C0012480AF0B1FC214611480AF0ADFC8821A1
:10163C0028460AF0A0FC0B4D4FF49A732A460D492C
:10164C000A480AF0A1FC21460B480AF09DFC4FF415
:10165C009A7128460AF08FFC00230393039809B073
:10166C00BDE8F08F74EF0008A4EF000820EC000830
:10167C00BCEF0008D4EF0008ECEF00082DE9F041B6
:10168C0004460D46C36908469847074604F11406FC
:10169C00EFF31188102383F31288BFF36F8F30465A
:1016AC0009F0DEFB88B1304609F004FC2B7843F0DE
:1016BC0001032B7063681F44236913F0010F13D1CE
:1016CC00636A9F4213D3FF1A11E0184C88232246F9
:1016DC00174918480AF058FC314617480AF054FCD0
:1016EC00882120460AF047FC636A013B1F40676073
:1016FC0020460AF08FFC304609F0C2FB28B188F373
:10170C001188BFF36F8FBDE8F081084C4FF49A73CA
:10171C0022460A4907480AF037FC314608480AF0C5
:10172C0033FC4FF49A7120460AF025FC74EF000844
:10173C00A4EF000820EC0008BCEF0008D4EF000870
:10174C00ECEF00082DE9F04182B0044642E04A4C2F
:10175C008823224649494A480AF016FC294649483A
:10176C000AF012FC882120460AF005FC53F82200EE
:10177C0080085DD153E0626A013A1340A3602046B1
:10178C000AF05BFC1BE013F8221041F0020103F895
:10179C002210A668E369404698473044236913F049
:1017AC00010F04D1636A984204D3C01A02E0636A41
:1017BC00013B1840A060002601E00026B0462846F8
:1017CC0009F05EFB002842D087F31188BFF36F8FBE
:1017DC00002E4DD004F11405EFF31187102383F381
:1017EC001288BFF36F8F284609F03AFB0646002893
:1017FC00ADD0284609F05EFB01A920460AF0E6FBB5
:10180C00236AA26803EB820801990029D5D013F84A
:10181C00221011F0030117D00229A7D0002013F8D1
:10182C00221011F0010FAED110B9E3694046984770
:10183C00A36801460344226912F0010F9BD1626A2E
:10184C0093429BD39B1A99E70026B046B7E70A4C04
:10185C004FF49A7322460C4909480AF095FB294625
:10186C000A480AF091FB4FF49A7120460AF083FB68
:10187C00404602B0BDE8F08174EF0008A4EF000808
:10188C0020EC0008BCEF0008D4EF0008ECEF0008D7
:10189C002DE9F04104460D46C369084698470646B3
:1018AC0004F11407EFF31188102383F31288BFF3AC
:1018BC006F8F384609F0D4FAA8B1384609F0FAFA15
:1018CC002B786FF300032B70236913F0020F19D0E0
:1018DC00236AE26803EB8203AB4213D02B6866F3F6
:1018EC009F032B601AE0244C88232246234924486A
:1018FC000AF04AFB394623480AF046FB8821204669
:10190C000AF039FB2B786FF341032B70E268A36864
:10191C009A4211D0314620460AF08FFB384609F026
:10192C00AFFAC0B188F31188BFF36F8F04F12C00AC
:10193C0007F010FEBDE8F0813344226912F0010F6C
:10194C0004D1626A934204D39B1A02E0626A013AA0
:10195C001340A360DEE7084C4FF49A7322460A4901
:10196C0007480AF011FB394608480AF00DFB4FF402
:10197C009A7120460AF0FFFA74EF0008A4EF0008F1
:10198C0020EC0008BCEF0008D4EF0008ECEF0008D6
:10199C0070B582B0044600F11405EFF311861023E4
:1019AC0083F31288BFF36F8F284609F059FAA0B160
:1019BC00284609F07FFA01A920460AF007FB2846C1
:1019CC0009F05EFAC0B186F31188BFF36F8F0198EE
:1019DC00003818BF012002B070BD104C882322467D
:1019EC000F4910480AF0D0FA29460F480AF0CCFAF1
:1019FC00882120460AF0BFFA084C4FF49A7322460D
:101A0C000A4908480AF0C0FA294609480AF0BCFA03
:101A1C004FF49A7120460AF0AEFA00BF74EF00083A
:101A2C00A4EF000820EC0008BCEF0008D4EF00087D
:101A3C00ECEF0008054B5A6842F002025A605A68F3
:101A4C0042F001025A600020704700BF0010005C99
:101A5C0010B5EFF31184102383F31288BFF36F8F4B
:101A6C00224809F0FDF958B1204809F023FA204B1F
:101A7C001B68E3B91F4A136843F4807313600FE0CB
:101A8C001D4C882322461D491D480AF07DFA174932
:101A9C001C480AF079FA882120460AF06CFA33B90E
:101AAC00144B1B6813F48073F9D00123F7E7104A29
:101ABC001368013313600D4809F0E2F920B184F387
:101ACC001188BFF36F8F10BD0B4C4FF49A732246E5
:101ADC000D490B480AF058FA04490C480AF054FA1C
:101AEC004FF49A7120460AF046FA00BFF00A00241F
:101AFC00EC0A00240048025874EF0008A4EF000818
:101B0C0020EC0008BCEF0008D4EF0008ECEF000854
:101B1C0010B5EFF31184102383F31288BFF36F8F8A
:101B2C00294809F09DF9D0B1274809F0C3F9274B92
:101B3C001B681BBB264B0122BFF35B8F53E8001FB6
:101B4C00002903D143E800200028F7D1BFF35B8FB5
:101B5C001AD1204A022120480AF039FC14E01F4C0B
:101B6C00882322461E491F480AF00EFA16491E48C1
:101B7C000AF00AFA882120460AF0FDF9012B0CD054
:101B8C00124A1368013B13600F4809F079F950B100
:101B9C0084F31188BFF36F8F10BD144A136823F4BC
:101BAC0080731360ECE70D4C4FF49A732246104986
:101BBC000C480AF0E9F904490E480AF0E5F94FF42B
:101BCC009A7120460AF0D7F9F00A0024EC0A002496
:101BDC00E80A002404F00008F0EA000874EF00089A
:101BEC00A4EF000820EC0008BCEF000800480258E5
:101BFC00D4EF0008ECEF000808B501F0D9FF01F0B4
:101C0C0073FF0D4B0D4A1A600D4AD36823F007037E
:101C1C0043F00203D3600B4B1A6841F20303B3EB9E
:101C2C00124F00D008BD084AD2F8083143F0010326
:101C3C00C2F80831F6E700BF780100240090D00309
:101C4C00004802580010005C0080005110B143683D
:101C5C005879704710B5064C40F2351322460549A9
:101C6C0005480AF091F940F2351120460AF083F943
:101C7C00C0F00008F8F0000820EC000810B1436830
:101C8C001971704710B5054CE123224604490548EB
:101C9C000AF07AF9E12120460AF06DF9C0F000084B
:101CAC00F8F0000820EC000810B540B104460368B9
:101CBC00DB6803B19847636801229A7110BD054C2B
:101CCC008C232246044905480AF05EF98C212046F3
:101CDC000AF051F9C0F00008F8F0000820EC0008F8
:101CEC0010B520B10268126962B1904710BD064C64
:101CFC00A0232246054906480AF046F9A0212046B1
:101D0C000AF039F90020F1E7C0F00008F8F00008FB
:101D1C0020EC000810B518B102689268904710BD0D
:101D2C00054CD2232246054905480AF02DF9D2214B
:101D3C0020460AF020F900BFC0F00008F8F00008B7
:101D4C0020EC000810B520B10268526802B190472F
:101D5C0010BD054CC4232246044905480AF014F969
:101D6C00C42120460AF007F9C0F00008F8F000087A
:101D7C0020EC000810B520B171B1026812689047D0
:101D8C0010BD0B4CB42322460A490B480AF0FCF850
:101D9C00B42120460AF0EFF8054CB523224607493A
:101DAC0005480AF0F1F8B52120460AF0E4F800BF26
:101DBC00C0F00008F8F0000820EC000810F1000852
:101DCC0038B50546144C00E01034144B9C4212D824
:101DDC00124B9C421FD22046FFF738FF0028F3D04D
:101DEC00294620460AF04AFA0028EDD0294620461A
:101DFC00FFF7C0FFE8E70A4C4FF40073224609498D
:101E0C0009480AF0C1F809480AF0BEF84FF400710D
:101E1C0020460AF0B0F838BD00EB000810EB0008C3
:101E2C0024F1000854F1000820EC000878F10008B7
:101E3C0010B530B10346006884690CB11846A04750
:101E4C0010BD064C4FF4B2732246054905480AF002
:101E5C009BF84FF4B27120460AF08DF8C0F00008E0
:101E6C00F8F0000820EC000870B506460D460F4C43
:101E7C0005E02A4631462046FFF7DAFF10340C4BBA
:101E8C009C4203D80A4B9C42F3D370BD094C40F2E0
:101E9C009D332246084909480AF076F808480AF0AA
:101EAC0073F840F29D3120460AF065F800EB00080B
:101EBC0010EB000824F1000854F1000820EC000895
:101ECC0078F1000808B50CF05EF80022431819D21E
:101EDC0013440D4AA2FB03CE2EF0030C0CEB9E0C0C
:101EEC00A3EB0C03C01A61F100014FF0CC3300FBE3
:101EFC0003F302FB0133A0FB02021344400840EA47
:101F0C00C37008BD0122E3E7CDCCCCCC2DE9F04168
:101F1C0007460546EDB195FAA5F6B6FA86F60E4CCF
:101F2C0004EB06140123B3406FEA030825EA03050A
:101F3C00237B002BEED02046FFF7D2FE0028E9D100
:101F4C0007EA080763680422196820460AF0D6F9E4
:101F5C00E0E73846BDE8F08100EB00082DE9F041E0
:101F6C00314B324A9B1A8F2B12D880460F46304B7E
:101F7C00BFF35B8F53E8006F721C43E8002100290C
:101F8C00F8D1BFF35B8F002E4AD1284C002514E00A
:101F9C00284C4FF4A67322462749284809F0F4FF31
:101FAC004FF4A671204609F0E6FF63680422196815
:101FBC0020460AF0A3F9013510341B4B9C4211D872
:101FCC00194B9C421ED2237B002BF4D02046FFF7EA
:101FDC006BFE2046FFF784FE0028E6D00123AB40C1
:101FEC001E43E8E7134C4FF4AC73224614491348D4
:101FFC0009F0CAFF134809F0C7FF4FF4AC71204633
:10200C0009F0B9FFB8F1000F0BD056B13046FFF70D
:10201C007DFF0646002FF8D00A200AF031F9F4E7CC
:10202C0000263046BDE8F08110EB000800EB0008FC
:10203C000C0B002424F1000898F1000820EC000897
:10204C0054F1000878F1000808B5064B186018B177
:10205C00054B1B68092B00DC08BD044807F07AFA15
:10206C00FAE700BF000B0024080B002464020024D4
:10207C0008B5024807F06EFA08BD00BF64020024E0
:10208C0030B589B000220F490F480BF08BFF0F4D74
:10209C0000220023CDE90623002404940E2303938D
:1020AC000294019400940A4B4FF4006209492846AB
:1020BC0007F0E8FB084928460BF0ABFE204609B0B8
:1020CC0030BD00BF7D2000080007002478020024EA
:1020DC0089250008800E0024C8F10008014B53F834
:1020EC002000704700F2000848B108B5054A10609E
:1020FC00054B1960084600F079FE002008BD6FF012
:10210C001500704704000024FC0A002408B5054B98
:10211C001B781BB1034B01221A7008BD024807F053
:10212C0019FAF7E7680E00246402002408B5104B76
:10213C00BFF35B8F53E8001F013143E80012002A04
:10214C00F8D1BFF35B8F30B90A480BF037FF0A4860
:10215C0007F000FA08BD094BBFF35B8F53E8001F73
:10216C00013943E80012002AF8D1BFF35B8FEBE78B
:10217C00040B00240007002464020024080B002434
:10218C00064B00200146BFF35B8F53E8000F43E87A
:10219C000012002AF9D1BFF35B8F7047040B0024A7
:1021AC0038B5FFF7EDFF0546114C00E01034114B2C
:1021BC009C420CD80F4B9C4219D22046FFF746FD8F
:1021CC000028F3D029462046FFF7BCFDEEE70A4C69
:1021DC004FF4037322460949094809F0D5FE094812
:1021EC0009F0D2FE4FF40371204609F0C4FE38BD4D
:1021FC0000EB000810EB000824F1000854F1000873
:10220C0020EC000878F10008034B18680028D4BFB4
:10221C0000200120704700BF040B002410B5044CB3
:10222C0004492046FFF7E6F8034B1C6010BD00BFC5
:10223C00B4010024ECF10008F40A002410B50023CA
:10224C00174A1370174A1360174A13604FF47A71C8
:10225C001648FFF749FFFFF7E1FF154C08E014495A
:10226C00611A09110131C9B22046FFF707FD10347C
:10227C00104B9C4203D80F4B9C42F0D310BD0E4C1C
:10228C0040F2271322460D490D4809F07DFE0D48FA
:10229C0009F07AFE40F22711204609F06CFE00BFCF
:1022AC00690E0024040B0024080B0024D11E000826
:1022BC0000EB000810EB000824F1000854F10008B2
:1022CC0020EC000878F1000808B50146014809F037
:1022DC00E7FF08BDB401002408B50248FFF732FA45
:1022EC0008BD00BFB401002408B50146024B1868B4
:1022FC0009F0DCFF08BD00BFF40A002408B5024851
:10230C0009F0D8FF08BD00BFB401002410B582B09D
:10231C0000220023CDE900232C4B187808B902B019
:10232C0010BD684609F0DEFF044680B1FFF748FD9A
:10233C002046FFF7D9FF264BBFF35B8F53E8001FF6
:10234C00013943E80012002AF8D1BFF35B8FFFF785
:10235C005BFF58B91F4A1368516813F57A7341F142
:10236C00000113605160FFF7C9FFD8E70BF00BFEBB
:10237C000022431827D21344174AA2FB034C2CF01B
:10238C00030404EB9C041B1BC01A61F100014FF009
:10239C00CC3300FB03F302FB0133A0FB020213441A
:1023AC00400840EAC3705B080A490A684968801A09
:1023BC0063EB010340F2E932904273F10003C9D39D
:1023CC00FFF7EEFEC6E70122D5E700BF680E00243A
:1023DC00080B0024F8060024CDCCCCCC194B1B7870
:1023EC0003B1704710B500210120FFF7B7FD164C63
:1023FC0000E01034154B9C420BD8144B9C4218D265
:10240C002046FFF723FC0028F3D02046FFF782FC80
:10241C00EFE70F4C40F2C51322460E490E4809F067
:10242C00B3FD0E4809F0B0FD40F2C511204609F08D
:10243C00A2FDFFF76BFF0028FBD1024B01221A70A3
:10244C0010BD00BF690E002400EB000810EB000863
:10245C0024F1000854F1000820EC000878F1000881
:10246C0030B583B0314BBFF35B8F53E8002F511C59
:10247C0043E800100028F8D1BFF35B8F2C4B1B787E
:10248C006BB92C4B1B681BB3002A43D0092A1FD1F4
:10249C0029480BF093FD294807F05CF818E0EFF39E
:1024AC001184102383F31288BFF36F8F244808F034
:1024BC00D7FC78B1224D284608F0FCFCFFF726FF2C
:1024CC00284608F0DDFCA0B184F31188BFF36F8FB0
:1024DC0003B030BD1B4C882322461B491B4809F016
:1024EC0053FD17491A4809F04FFD8821204609F081
:1024FC0042FD144C4FF49A7322461649134809F0C6
:10250C0043FD2946144809F03FFD4FF49A712046CB
:10251C0009F031FD00220023CDE9002342F21072B4
:10252C000023054809F0BAF8D2E700BF080B0024D5
:10253C00690E0024000B0024000700246402002410
:10254C00F80A002474EF0008A4EF000820EC00083F
:10255C00BCEF0008D4EF0008ECEF000810B50446FF
:10256C00044B1B689847A0602146034809F0BEFE47
:10257C0010BD00BF04000024B40100242DE9F0417B
:10258C00234B244A9B1A1B0910D000210846FFF745
:10259C00E5FC8046B8B14FF4FA7600270BF0ACFDA1
:1025AC001D4B1858FFF750FD002525E01B4C40F241
:1025BC00A93322461A491B4809F0E6FC40F2A9311E
:1025CC00204609F0D8FC4FF0FF364FF0FF37E5E717
:1025DC004046FFF79BFC804688B94FF0FF364FF022
:1025EC00FF370CE000210846FFF73EFC32463B4625
:1025FC000D4807F04BF82546B8F1000FE8D1FFF76E
:10260C0085FE04460028F6D1002DEBD12C46EDE7D3
:10261C0010EB000800EB00080800000024F1000893
:10262C00D0F1000820EC00086402002428B14268B4
:10263C001160436801225A71704710B5064C4FF473
:10264C008D7322460549064809F09EFC4FF48D71A6
:10265C00204609F090FC00BFC0F00008F8F000081C
:10266C0020EC00080248034BC01AC008704700BF9A
:10267C0000EB000888EA000810B50C46FFF7F2FFE3
:10268C00A04203D9024B53F8340010BD0020FCE7E4
:10269C0088EA000800B589B00592069300230793D9
:1026AC0062B1074A0C9B02930B9B01930A9B00930C
:1026BC0005ABFEF7A7FB09B05DF804FB0022F1E7C0
:1026CC0019C300082DE9F04F8BB004AF05461E4628
:1026DC008846C1F34A24002C00F0A68091460022C3
:1026EC00FA603A617A6104230293FB1801930A237E
:1026FC00009307F10C0321464846FEF783FBB0F527
:10270C00006F67D3D9F804C06C4600233B730223D7
:10271C007B738AB004AD15F1100226D01221131E62
:10272C0018BF012308460429D4BF002603F0010674
:10273C000EB147496961002139700221797008286E
:10274C00D4BF002103F0010109B1C5F818C00C2851
:10275C00D4BF002303F0010313B140F2FF73EB610C
:10276C0082B105F1200300210AE06FF00041D6E7A9
:10277C0001F118063E4416F8186C03F8016B013190
:10278C000129F5D9112822DD122342B10421397314
:10279C0000217973B9730121F973F868286100215C
:1027AC006FF300016FF341016FF382016FF3C50109
:1027BC00022060F38811C3F30A0363F3532100234F
:1027CC00C1F31301234809F017FEA5463BE06FF057
:1027DC001B03DAE760F35328C0F30A0A0AEB18501C
:1027EC00173020F007008008FFF76EFD834620B3FA
:1027FC0004230293FB1801930A230093534600F120
:10280C00100221464846FFF745FF002815DA124C06
:10281C004FF4A37322461149114809F0B5FB4FF44C
:10282C00A371204609F0A7FB04EB1154173424F0D4
:10283C000704A008FFF748FD834633464246294665
:10284C00584609F07CFD1C37BD46BDE8F08F00BF33
:10285C006CF20008B8EA0008ACF20008D8F20008E4
:10286C0020EC00082DE9F04F85B007468846164647
:10287C009946DDF838B0109D002D53D0119B039371
:10288C0000932B460F9A10210020FEF717F8031E19
:10289C0033DBB3F5006F3DD29A460BEB03001730D8
:1028AC0020F0070000246FF300046FF341046FF372
:1028BC00820467F3C50466F3881463F353246BF343
:1028CC001F548008FFF700FD064600B110300028A9
:1028DC0018BF002D08D0119B00932B460F9A514620
:1028EC00FDF7ECFF00281FDB4B46224641463046E5
:1028FC0009F025FD05B0BDE8F08F124C40F26513D0
:10290C0022461149114809F03FFB40F2651120465F
:10291C0009F031FB40F2FF730D4A02210D4809F01A
:10292C0060FDE7E70023B7E7064C4FF4C47322467B
:10293C000549064809F028FB4FF4C471204609F0FC
:10294C001AFB00BFACF20008E4F2000820EC00080F
:10295C00F0F20008B8EA0008406820B1034BC01A36
:10296C0040F3CF0070474FF0FF30704788EA000803
:10297C0038B505460C464B681A68CB689A4214D099
:10298C006368BFF35B8F53E8002F511C43E80010C2
:10299C000028F8D1BFF35B8FA3689D5463681A6855
:1029AC00E3689A4205D8002038BD084609F028FD96
:1029BC00E6E7054C722322460449054809F0E4FA7F
:1029CC007221204609F0D7FA28F3000858F30008C2
:1029DC0020EC00080EB400B582B0014603AB53F8EE
:1029EC00042B0193034801F06BFB02B05DF804EB80
:1029FC0003B070477D29000810B584B011F0440F66
:102A0C0005D01A4B1B6833B9002004B010BD18490F
:102A1C00FFF7E0FFF9E717490968B2FBF1F2B2FBE7
:102A2C00F3FC03FB1C224FF47A7E0EFB02F2B2FB8A
:102A3C00F3F403FB14210EFB01F1B1FBF3F10E4A8D
:102A4C00A2FB0C32D20A4FF4616303FB12CC0B4B8A
:102A5C00A3FB0CE35B0902910194C3EB0311ACEBF8
:102A6C00810100910649FFF7B5FFCEE7140B002456
:102A7C0088F30008100B0024C5B3A29189888888BC
:102A8C0094F3000861B108B52AB1064A52F8232024
:102A9C0012B9054A00E0044A0449FFF79BFF08BD40
:102AAC00704700BF50F40008B0F30008B8F30008FA
:102ABC002DE9F04180461746069D079EC1B90024BA
:102ACC002DB12A4610494046FFF784FF044466B1F5
:102ADC00099B042B14BF002707F001078FB10B498A
:102AEC0032464046FFF776FF04442046BDE8F081AD
:102AFC00074B099A53F822200649FFF76BFF04464F
:102B0C00DEE70549ECE700BFD0F30008BCF3000892
:102B1C0064F40008C8F30008C0F300082DE9F04F76
:102B2C0087B0049205939DF84C60042E30D805466E
:102B3C000C4601F0020B01F0010AC1F3C00801F4CC
:102B4C00807909F0D9FB024678B31C492846FFF777
:102B5C0041FF0746BBF1000F29D1324651462846AA
:102B6C0009F074FCB9F1000F01D000231193039606
:102B7C00129B0293119B0193109B00930023049AC8
:102B8C0041462846FFF794FF384407B0BDE8F08F64
:102B9C000B4C40F2462322460A490B4809F0F4F943
:102BAC0040F24621204609F0E6F90027D2E7059AC3
:102BBC0021462846FFF720FF0744CEE7E0F3000844
:102BCC0028F30008D4F3000820EC000811F0100FD3
:102BDC000BD108B511F0200F03D00449FFF7FAFE12
:102BEC0008BD0349FFF7F6FEFAE77047E4FC00085E
:102BFC00E4F300082DE9F04105460F4616469846C9
:102C0C000699FFF7E3FF0024444505DA24492846DA
:102C1C00FFF7E0FE0134F7E7002409E020492846DD
:102C2C00FFF7D8FE0BE01F492846FFF7D3FE01340F
:102C3C000F2C0CDC002C02DD14F0070FEED0B4428C
:102C4C00F1D23A5D18492846FFF7C4FEEFE7174961
:102C5C002846FFF7BFFE002409E011492846FFF77C
:102C6C00B9FE0BE012492846FFF7B4FE01340F2CD5
:102C7C0013DC002C02DD14F0070FEED0B44207D2A7
:102C8C003A5D0C4B9B5C13F0970FEBD12E22E9E7CE
:102C9C0003492846FFF79EFEE8E7BDE8F08100BF38
:102CAC00CCF30008F0F30008E8F30008F4F3000894
:102CBC00F8F30008392101082DE9F04184B00446ED
:102CCC009DF82C500C9F0E9EA5B9012B20D02048AE
:102CDC004FF0000837B13B4622461E4909F0E0F898
:102CEC00002819DB2EBB6DBB204609F089FB04B014
:102CFC00BDE8F08103950A980290019300920B466F
:102D0C0000220F992046FFF709FF80461248E1E7A1
:102D1C0011484FF00008DDE7104C4FF428732246A1
:102D2C000F49104809F030F94FF42871204609F08A
:102D3C0022F90F9B0093434632460D99204609F029
:102D4C009DFBD0E72A460F99204609F08BFBCBE779
:102D5C003BC40008CD4000087D29000828F300087A
:102D6C00FCF3000820EC00082DE9F04383B0064684
:102D7C00056842F20F738B4228BF0B46184A052197
:102D8C00684608F04BFD04467368D3F804900B2793
:102D9C00DFF8508005E04A4639464046A8473F1ABE
:102DAC008044002FF7D17368D3F804806F4605E098
:102DBC00424621463846A847241A0744002CF7D12E
:102DCC0073685F681B24084E05E03A46214630467E
:102DDC00A847241A0644002CF7D103B0BDE8F083B1
:102DEC00D4FE000824F4000808F40008074B012264
:102DFC001A6004E04008054A13685B001360044B3A
:102E0C009842F7D8034B1860704700BF100B002492
:102E1C0040420F00140B002470B506460D460024EA
:102E2C0005E0315D044883685B6898470134AC4227
:102E3C00F7D3284670BD00BF20E4000810B54368E6
:102E4C001C6809480AF02EFF18B123685B685C60A7
:102E5C0010BD064C992322460549064809F094F802
:102E6C009921204609F087F820E4000878F400083E
:102E7C00B8F4000820EC0008014B036001207047F7
:102E8C0038F500082DE9F04383B000AF0446D0F8C4
:102E9C000090D0F80480D0F808E06D468AB06946FE
:102EAC0011F1100200F0B5801426131E18BF012377
:102EBC003046042ED4BF4FF0000C03F0010CBCF1D3
:102ECC00000F01D0594E4E610828D4BF002603F0E4
:102EDC0001060EB1C1F818900C28D4BF002603F0DF
:102EEC0001060EB1C1F81C801028D4BF002303F0DA
:102EFC0001030BB1C1F820E0132840F38D8014239B
:102F0C003AB10520387100207871B871F871786881
:102F1C00086100216FF300016FF341016FF382012F
:102F2C006FF3C501012060F38811C3F30A0363F347
:102F3C0053216FF31F5100233D48FFF7C3FBAD46F0
:102F4C00D4F80C90D4F81080D4F814E06D468AB004
:102F5C00694611F1100262D01426131E18BF01230A
:102F6C003046042ED4BF4FF0000C03F0010CBCF122
:102F7C00000F01D02F4E4E610828D4BF002603F05D
:102F8C0001060EB1C1F818900C28D4BF002603F02E
:102F9C0001060EB1C1F81C801028D4BF002303F029
:102FAC0001030BB1C1F820E013283BDD14233AB127
:102FBC000520387100207871B871F8717868086153
:102FCC0000216FF300016FF341016FF382016FF386
:102FDC00C5014FF0010868F38811C3F30A0363F3CA
:102FEC0053216FF31F51124E00233046FFF76AFB3B
:102FFC00AD46E369104A4146304609F0F2F9A3693F
:10300C000E4A4146304609F0ECF90C37BD46BDE896
:10301C00F0836FF0004648E76FF01B0370E76FF02A
:10302C0000469AE76FF01B03C1E700BF48F50008A4
:10303C00D8EA000878F50008A8F50008B8F50008EB
:10304C0038B504460D4611B10846FFF71BFF012C9D
:10305C0004D02946204605F0B3FB38BDEFF30583B9
:10306C00103B034A0121034809F0BBF9F1E700BF0B
:10307C00E8F50008D8EA000830BFFFF7FDBF00BF35
:10308C0038B50446054D2A4605490AF0B4FF054AF1
:10309C00002160190AF0BDFF38BD00BF0000000020
:1030AC0010EB00080400000070B50646054D064BF9
:1030BC001D444C1B2046FFF7E3FF083C346705F129
:1030CC00080070BD0000000004000000054B5A69A8
:1030DC009B689A4204D0044A536843F0805353606F
:1030EC00704700BF280E002400ED00E081690D4BF5
:1030FC005A6942F480725A61BFF34F8FBFF36F8FDE
:10310C0031F8021C5A6922F480725A61BFF34F8F56
:10311C00BFF36F8F4DF60273994201D000207047B8
:10312C000120704700ED00E04FF0000C83F800C068
:10313C0002F07F4CBCF17F4F14D102F00C0CBCF1AF
:10314C00080F04D012F0080F09D00846704708B5D4
:10315C00054A0121054809F03AF9002008BD012271
:10316C001A70704700207047FCF50008D8EA000878
:10317C0008B52A4A01212A4809F029F9294B9B6AEA
:10318C0013F0007F1FD11D20264B9B6A13F0807F0C
:10319C0020D1244B9B6A13F4002F22D1214B9B6A24
:1031AC0013F4802F24D11F4B9B6A13F4003F26D1BC
:1031BC001C4B9B6A13F4803F28D11A4A916A1A4B14
:1031CC000B43936208BD194A0121154809F0FFF819
:1031DC001E20D9E7164A0121114809F0F8F81F20E2
:1031EC00D7E7144A01210E4809F0F1F82120D5E760
:1031FC00114A01210A4809F0EAF82220D3E70F4AC4
:10320C000121074809F0E3F82320D1E70C4A0121FA
:10321C00034809F0DCF82420CFE700BF28F60008AB
:10322C00D8EA000800ED00E00000FFFF40F60008BF
:10323C0054F6000870F6000890F60008B8F600087E
:10324C00D4F6000808B500230B70034A012103488B
:10325C0009F0BDF808BD00BF00F70008D8EA000867
:10326C00B0B582B000AF0F2933DC374D10390023D5
:10327C003B7102237B718AB0EC461CF110022AD000
:10328C004FF0120E131E18BF01237046BEF1040F2F
:10329C00D4BF002403F0010414B12C4CCCF814401E
:1032AC0000243C7002247C700828D4BF002403F056
:1032BC0001040CB1CCF818500C28D4BF002303F037
:1032CC0001030BB1CCF81C109AB10CF120030021B6
:1032DC000DE01F4DCAE76FF0004ED3E701F1080473
:1032EC0004EB070E1EF808EC03F801EB0131012981
:1032FC00F4D9112824DD12234AB10421397100219B
:10330C007971B9710121F9717868CCF8100000213C
:10331C006FF300016FF341016FF382016FF3C5018D
:10332C00012060F38811C3F30A0363F353216FF395
:10333C001F5100230748FFF7C5F90837BD46B0BD3C
:10334C006FF01B03D8E700BF24F7000858F70008FC
:10335C003CF70008D8EA0008F8B505460F461446B5
:10336C00374A0121374809F032F8374B9B6A13F47E
:10337C00805F25D11626344B9B6A13F4006F26D13F
:10338C00314B9B6A13F4007F28D12F4B9B6A13F4AB
:10339C00806F3FD12C4B9B6A13F4807F41D12A4B19
:1033AC009B6A13F4005F43D1274A936A43F47F432B
:1033BC0093620121284609F0F7F820703046F8BDD9
:1033CC00224A01211F4809F002F81726D3E7204AA8
:1033DC0001211C4808F0FBFF1826D1E71D4A0121EA
:1033EC00184808F0F4FF184A936B926A12F4004FD5
:1033FC0001D11926C9E7184A0121124808F0F1FF3A
:10340C0037B1114A936A23F4004393621926BCE73F
:10341C001926BAE7114A01210A4808F0D8FF1A26E2
:10342C00B8E70F4A0121074808F0D1FF1B26BBE77C
:10343C000C4A0121034808F0CAFF1C26B4E700BF60
:10344C006CF70008D8EA000800ED00E084F70008EB
:10345C0098F70008ACF70008C8F70008E0F7000878
:10346C00FCF7000814F800082DE9F04104460F465B
:10347C001546504A0121504808F0A9FF4F4B9B6A52
:10348C0013F0100F3CD110264C4B9B6A13F0080F15
:10349C003DD14A4B9B6A13F0020F3FD16FF01508D8
:1034AC00464B9B6A13F0010F58D1444B9B6A13F0A7
:1034BC00200F5AD1414B9B6A13F0100F04D13F4B94
:1034CC009B6A13F0020F04D03C4B5B6813F4006F43
:1034DC0052D13A4B9B6A13F0200F04D0374A536AEF
:1034EC0023F400535362354A936A43F0FF0393620B
:1034FC000121204609F058F828703046BDE8F081CB
:10350C002F4A01212C4808F062FF1126BCE72D4AF6
:10351C000121294808F05BFF1226BAE72A4A01214B
:10352C00254808F054FF254BD3F834809B6A13F0E0
:10353C00800F03D16FF015081326B1E74346234AD9
:10354C0001211D4808F04DFF37B11C4A936A23F046
:10355C00800393621326A3E71326A1E71C4A0121DB
:10356C00154808F034FF14269FE71A4A0121124827
:10357C0008F02DFF15269DE72146404600F046FA3F
:10358C00A0B90E4B9B6A13F0100FA2D0124C40F254
:10359C00271322461149124808F0F6FC114808F08E
:1035AC00F3FC40F22711204608F0E5FC80F3098873
:1035BC0002268EE744F80008D8EA000800ED00E087
:1035CC005CF8000898F7000890F80008A8F80008C4
:1035DC00C0F8000814F80008E0F8000814F9000816
:1035EC0020EC000860F9000870B506460D463B4A11
:1035FC0001213B4808F0EBFE00232B70394BDC6AB1
:10360C0014F0020425D1374BDB6A002B29DB354B38
:10361C00DB6A13F0804F50D0334A0121304808F058
:10362C00D6FE3046FFF762FD08BB2E4B9B6A13F0AB
:10363C00FF0F24D12B4B9B6A13F47F4F26D1294BC0
:10364C009B6AB3F5803F28D33046FFF791FD0446C3
:10365C0005E0264A0121224808F0B9FE0024204644
:10366C0070BD234A01211E4808F0B1FEF7E733680C
:10367C00204A01211A4808F0B4FE3468EFE72A46C4
:10368C0001213046FFF7F0FE0446E8E72A46012107
:10369C003046FFF761FE0446E1E7174C40F2ED239C
:1036AC0022461649164808F06FFC164808F06CFCC8
:1036BC0040F2ED21204608F05EFC0F4C4FF43C73B9
:1036CC0022460E490E4808F05FFC0F4808F05CFCDF
:1036DC004FF43C71204608F04EFC00BF84F9000802
:1036EC00D8EA000800ED00E0D0F900089CF90008C9
:1036FC00C0F90008F0F90008E0F80008ECF2000846
:10370C0020EC00080CFA000830FA000830B58BB039
:10371C00264B5D68C5F30805002383F31188BFF3BE
:10372C006F8F0DF12603FFF7FFFC58B104460DF126
:10373C002702294608F03AFF05469DF827308BB141
:10374C000BB030BD1A4C40F21443224619491A48AA
:10375C0008F01AFC194808F017FC40F214412046F6
:10376C0008F009FC0DF1040C20686168A268E3689C
:10377C00ACE80F0020696169A269E369ACE80F004D
:10378C009DF8263043B1089BC3F3080242B940F2BE
:10379C00FF121A43089203E0094B089A134008934E
:1037AC0001A92846FFF74CFCCAE700BF00ED00E07A
:1037BC00E0F8000860FA000820EC000874FA000831
:1037CC0000FEFFFF044B5A6942F010025A615A691D
:1037DC0022F008025A61704700ED00E0EFF3088018
:1037EC00EFF3098101B57246FFF790FF01BD00BFF1
:1037FC000E4880F30888102080F311880C484FF095
:10380C00AA014FF404620AF07CFA09484FF40461EF
:10381C00401880F30988EFF314800221084380F3E9
:10382C001488BFF36F8F00F0B3F8000080280024D9
:10383C00C016002408B50A4B9B68834202D007F0DF
:10384C0079F808BDEFF30583002BF8D0054B5A68C7
:10385C0042F080525A605A6A22F400425A62EEE7F1
:10386C00280E002400ED00E014498A684FF0300067
:10387C001044EFF3098C80E8F01F102080F31288BD
:10388C00BFF36F8F0E4F4FF000664A698A603E603F
:10389C00106F0C4C2060506F0023536780F311881D
:1038AC0004B5104600F0AEF9BDE8044002F130005A
:1038BC0090E8F01F8CF3098870470000280E002454
:1038CC0004ED00E0400B00241EF0040F0CBFEFF3DE
:1038DC000880EFF30980816911F8021C0229FFD0DE
:1038EC0001B5724608F054FE01BD00BF002807DB8D
:1038FC0000F01F02400901239340024A42F8203095
:10390C00704700BF00E100E0002804DB0901C9B2E8
:10391C00044B1954704700F00F000901C9B2024B57
:10392C001954704700E400E014ED00E070B5054652
:10393C000C4601310F2903D800B2FFF7E5FF70BD2B
:10394C00084E6B2332460849084808F01DFB0F232C
:10395C002A462146064808F017FB6B21304608F032
:10396C000AFB00BFB4FA0008ECFA000820EC0008CF
:10397C0008FB0008044B23F07F03044A9360BFF359
:10398C004F8FBFF36F8F70470000000800ED00E011
:10399C0008B5FFF7EFFF0C4AD2F8883023F4700318
:1039AC00C2F88830EFF3148323F0040383F31488F4
:1039BC00BFF36F8F05F016F907F084FA00F06AF880
:1039CC0008F03BFE05F076F900ED00E010B4A2F132
:1039DC0020040D4942F8081C21F0010142F8081C92
:1039EC0042F8203C019B42F81C3C029B42F8183CDC
:1039FC00039B42F8143C4FF0807342F8043C04657E
:103A0C000023436710BC7047CD1300080E4B9B6816
:103A1C00A3B110F1160F0AD01A6EA2F1400C844516
:103A2C000ED882420ED98A4206D8002070471A6EF0
:103A3C008A4201D800207047186E704700207047EA
:103A4C000020704700207047280E002408B50E4651
:103A5C0015460B4A9060026F0A4B1A6000F0D2F8C0
:103A6C002C4686F309880020034B984720460021FA
:103A7C0000220023014C20471FC60008CD1300086C
:103A8C00280E0024400B0024014B10221A617047B1
:103A9C0000ED00E0002306E002F00F02084911449B
:103AAC0010220A760133A22B08DC1AB2002AF3DBAF
:103ABC0004491144102281F80023F3E7704700BF3A
:103ACC00FCEC00E000E100E008B5EFF30583103BEF
:103ADC00044A02EBC301496852F833008847FFF7E8
:103AEC00F5FA08BDA0E40008184B5B6913F4803F9D
:103AFC002AD110B4154B0022C3F88420BFF34F8F8A
:103B0C00D3F88040C4F34E3000E01846C4F3C90229
:103B1C0043F6E07303EA401343EA82730B49C1F89E
:103B2C0060321346013A002BF2D1431E0028ECD12F
:103B3C00BFF34F8F4B6943F480334B61BFF34F8F0F
:103B4C00BFF36F8F10BC7047704700BF00ED00E0F3
:103B5C00002910DD034600F01F000144BFF34F8F16
:103B6C00064AC2F86832203320390029F8DCBFF34A
:103B7C004F8FBFF36F8F0020704700BF00ED00E048
:103B8C00002910DD034600F01F000144BFF34F8FE6
:103B9C00064AC2F85C32203320390029F8DCBFF326
:103BAC004F8FBFF36F8F0020704700BF00ED00E018
:103BBC000C4B5B6913F4003F13D1BFF34F8FBFF372
:103BCC006F8F084B0022C3F85022BFF34F8FBFF307
:103BDC006F8F5A6942F400325A61BFF34F8FBFF3B3
:103BEC006F8F704700ED00E008B5034B034A0121CD
:103BFC00034800F0B5F908BD0000052400000024BE
:103C0C0048FB000808B5036E403B054803604023A1
:103C1C004360044B8360012100F0C4F908BD00BF70
:103C2C00440B002400000B15084AC2F898000B68DE
:103C3C0023F01F03034343F01003C2F89C308B683E
:103C4C0043F00103C2F8A030704700BF00ED00E064
:103C5C0010B504460A4BD3F89030C3F30723013B4D
:103C6C00984203D8FFF7E0FF204610BD0346054AF3
:103C7C000121054808F0B5FB6FF01500F5E700BF12
:103C8C0000ED00E058FB0008D0EA00082DE9F047F1
:103C9C0080460F469A461646002409E02946F0B2A3
:103CAC0008F0DDFC064610F1160F1AD0013601346F
:103CBC00BC4216DA04EB440508EB85056A68002A59
:103CCC00F5D0BAF1000FE9D0284608F0B7FC00286F
:103CDC00E4D12346044A0121044808F082FB6FF02A
:103CEC0015063046BDE8F08780FB0008D0EA0008D6
:103CFC0010B5034C01232278FFF7C8FF207010BDCC
:103D0C006A0E002408B500230B4A1278FFF7BEFF99
:103D1C0010F1160F0FD0024606E0084BC3F898209E
:103D2C000021C3F8A0100132044BD3F89030C3F338
:103D3C0007239342F1DC08BD6A0E002400ED00E07D
:103D4C00F0B585B0054603A8FFF796F806460024A3
:103D5C0023E0B3F5801F1FD1506851F80C10936805
:103D6C00202B63D9B3F1004F62D8013BB3FA83F334
:103D7C00C3F11F035B0003F03E03664A1A43009035
:103D8C000191029269462878FFF762FF0028C0F281
:103D9C00BA802B7801332B700134B44280F0B6809A
:103DAC004FEA041C039901EB0412D0685A4B0340F0
:103DBC00B3F5000F6DD01CD8B3F5001F3AD0B3F596
:103DCC00800FC6D1506851F80C109368202B5CD929
:103DDC00B3F1004F5BD8013BB3FA83F3C3F11F037C
:103DEC005B0003F03E034D4A1A430090019102928E
:103DFC00C8E7B3F1807F67D0B3F1007FCCD15068B6
:103E0C0051F80C109368202B79D9B3F1004F78D866
:103E1C00013BB3FA83F3C3F11F035B0003F03E03D2
:103E2C0043F48023009001910293ABE70823A4E7AD
:103E3C003E23A2E7576851F80C109368202B20D929
:103E4C00B3F1004F1FD8013BB3FA83F3C3F11F0347
:103E5C005B0003F03E03324A1A4300970191029231
:103E6C0010F0010F8ED02F4C832322462E492F4861
:103E7C0008F08AF82E4808F087F88321204608F0CD
:103E8C007AF80823E7E73E23E5E70823ABE73E2370
:103E9C00A9E7506851F80C109368202B10D9B3F196
:103EAC00004F0FD8013BB3FA83F3C3F11F035B0040
:103EBC0003F03E0343F0827300900191029361E79B
:103ECC000823F7E73E23F5E7506851F80C10936888
:103EDC00202B10D9B3F1004F0FD8013BB3FA83F369
:103EEC00C3F11F035B0003F03E0343F088730090A3
:103EFC000191029346E70823F7E73E23F5E70823F1
:103F0C008EE73E238CE76FF0150000E0002005B033
:103F1C00F0BD00BF00000B110000F0FF0000020616
:103F2C0000000811A4FB0008D4FB000820EC0008DA
:103F3C00FCFB0008044B0522C3F89420BFF34F8F01
:103F4C00BFF36F8F704700BF00ED00E0BFF35F8FD2
:103F5C00024B0022C3F89420704700BF00ED00E034
:103F6C0038B50C46FFF7C4FE10F1160F00D038BD63
:103F7C00084D4FF4BF732A460749084808F004F867
:103F8C002146074808F000F84FF4BF71284607F0A7
:103F9C00F2FF00BFA4FB0008ECF2000820EC0008C4
:103FAC002CFC000838B50C46FFF7ACFE10F1160FD0
:103FBC0000D038BD084D40F29D132A4607490848E9
:103FCC0007F0E2FF2146074807F0DEFF40F29D11A3
:103FDC00284607F0D0FF00BFA4FB0008ECF2000855
:103FEC0020EC000858FC000838B52D4B1D682D4BF3
:103FFC00D3F89030C3F307239D4203D8FFF7A6FFF5
:10400C0000241FE0284C40F2F71322462749284889
:10401C0007F0BAFF234BD3F89020C2F307222946AE
:10402C00244807F0B1FF40F2F711204607F0A3FF38
:10403C001B4B5B6804EB440103EB81012046FFF74B
:10404C00F3FD0134A542F3D81B480570FFF778FE49
:10405C0010F1160F02D0184B1A7816E0124C40F2E1
:10406C00212322461149124807F08EFF134807F00E
:10407C008BFF40F22121204607F07DFF094BC3F84E
:10408C0098200021C3F8A0100132064BD3F89030D1
:10409C00C3F307239A42F1DBFFF74CFF002038BD36
:1040AC0044F0000800ED00E0A4FB0008ECF200086E
:1040BC0020EC000888FC00086A0E0024BCFC0008F8
:1040CC0030B587B00D46114600240094019402943B
:1040DC0003940494059402228DF80220044A019260
:1040EC00049005951A46684607F0C2FB07B030BD30
:1040FC00A9C6000808B5024B1B689847002008BDEC
:10410C00500B0024034B1860034A937843F00203CE
:10411C0093707047500B00241000002408B505491B
:10412C0021F00701044A521A0448FCF7DDFA00207A
:10413C0008BD00BF072D002400000524540B0024EB
:10414C00002399420ADD10B400EB030C044C24F854
:10415C001C2001339942F7DC10BC7047704700BF3C
:10416C0020000024F8B50746002401E00134E4B235
:10417C007B78A34217D33D786619304600F02AF9B4
:10418C000028F3D0304600F05BF9074B53F836208B
:10419C00002AEBD006F01F0503EBC603596801207B
:1041AC00A8409047E2E7F8BD600B002401F0030C37
:1041BC000CF102020B4B53F822200B0C22EA11419A
:1041CC0093FAA3F35BB1B3FA83F303F01F039840A4
:1041DC0001430CF1020C034A42F82C1070472023C7
:1041EC00F3E700BF0004005800F003030233084A51
:1041FC0052F82320030C02EA104093FAA3F32BB1DC
:10420C00B3FA83F303F01F03D84070472023F9E778
:10421C000004005810B5B0B10246B0FA80F3C3F1F7
:10422C001F03DBB20F2B0ED8124931F91300FF28F4
:10423C0014D04FF0B043D3F880100A43C3F8802059
:10424C0008F0D9F910BD0C4CBD2322460B490C4883
:10425C0007F09AFEBD21204607F08DFE064CC123C7
:10426C0022460849064807F08FFEC121204607F078
:10427C0082FE00BF20000024E8FC00082CFD000892
:10428C0020EC00083CFD000803292BD8DFE801F0E6
:10429C00020D17214FF0B0431A6822EA00021A608F
:1042AC005A6822EA00025A6070474FF0B0431A680D
:1042BC0002431A605A6822EA00025A6070474FF0B3
:1042CC00B0435A6802435A601A6822EA00021A6024
:1042DC0070474FF0B0431A6802431A605A68104393
:1042EC005860704710B5054CF82322460449054820
:1042FC0007F04AFEF821204607F03DFEE8FC0008D6
:10430C00ECF2000820EC000810B498B1B0FA80F37D
:10431C00C3F11F03DBB29C460D4850F833008842B2
:10432C000AD088B90A4B43F83C1003EBCC035A6013
:10433C0010BC7047FF23EEE7054C04EBC3035B682E
:10434C009342EED10020F3E76FF00F00F0E700BFCF
:10435C00600B002460B1B0FA80F3C3F11F03DBB231
:10436C00044A002142F8331002EBC302516070473B
:10437C00FF23F5E7600B002400B583B0124809F069
:10438C0091FCA8B1002300930193BDF80030F422F6
:10439C0062F30B03ADF80030022301930A4B9B68C8
:1043AC001B686BB169460848984703B05DF804FB7D
:1043BC00064A0121064808F00AF86FF01200F4E7EB
:1043CC006FF05700F1E700BF00E20008C4FD0008E1
:1043DC00A8EA000808B500F01F02012393405F28EB
:1043EC0009D81F2811D84FF0B042D2F88820934337
:1043FC0009D0002008BD03460F4A01210F4807F0E1
:10440C00F0FF0020F6E70120F4E73F2809D84FF031
:10441C00B042D2F89820934301D00020EAE7012063
:10442C00E8E74FF0B042D2F8A820934301D0002027
:10443C00E0E70120DEE700BF68FD0008A8EA0008FD
:10444C0008B500F01F02012393405F2807D81F28EE
:10445C000ED84FF0B042C2F88830002008BD034699
:10446C000A4A01210A4807F0BCFF6FF01500F5E776
:10447C003F2805D84FF0B042C2F898300020EDE745
:10448C004FF0B042C2F8A8300020E7E768FD000802
:10449C00A8EA00080048704700127A00074A93699E
:1044AC0023F44043936100E033B9044B9B6913F44C
:1044BC000053F9D00123F7E7002070470048025859
:1044CC00074A936923F44043936100E033B9044BEA
:1044DC009B6913F40053F9D00123F7E700207047D0
:1044EC0000480258144BB3FBF0F0144B0344144A2D
:1044FC00934202D8002008607047124B0344124AC2
:10450C00934203D801230B60002070470F4B0344E8
:10451C000F4A934203D802230B60002070470D4BC7
:10452C000344054A934203D203230B6000207047D7
:10453C006FF02100704700BF00127A00C0BDF0FF81
:10454C0040420F007F7BE1FF7F841E00FFF6C2FF1D
:10455C00FF083D00FFED85FF0B88C3F30B0303F64B
:10456C002C72C2F30B02202A10D810B483B0094A63
:10457C0048689C58204398500B88C3F30B039B58F6
:10458C000193019B002003B010BC70476FF08500B5
:10459C00704700BF004402580B88C3F30B0303F6AB
:1045AC002C72C2F30B02202A07D8054849681A5806
:1045BC0022EA01021A50002070476FF08500704704
:1045CC00004402580F4B1B6813F0040F0ED10D4A18
:1045DC00136843F00103136001E0012B06D0094B73
:1045EC001B6813F00403F8D00123F6E7054A13699E
:1045FC0023F007031361034B1B6913F0380FFAD137
:10460C00704700BF0044025830B583B0614B1B6942
:10461C0003F03803182B5BD05E4B1A6822F08072C3
:10462C001A601A6822F080621A601A6822F08052AE
:10463C001A609A6A22F0030242F002029A6201A9FD
:10464C000420FFF74FFF0028C0F2A180019C2046F8
:10465C0008F0A8F84F4B9A6A22F47C7242F04002A0
:10466C009A62DA6A22F00C0242EA8402DA62DA6AAC
:10467C0022F0020242EA4002DA62196B464A0A4010
:10468C0042F489721A63DA6A22F00102DA621A6B56
:10469C0022F47E421A63DA6A42F48032DA621A6BCE
:1046AC0022F4FE0242F440321A63DA6A42F4003217
:1046BC00DA621A6B22F0FE4242F080721A63DA6AF6
:1046CC0042F48022DA621A6842F080721A6009E0C1
:1046DC00FFF778FF2F4A936923F00F0393619BE751
:1046EC00012C06D02B4B1C6814F00074F8D001245C
:1046FC00F6E701A90120FFF7F5FE002847DB019D35
:10470C00284608F04FF8234B9A6A22F47C3242F484
:10471C0080529A62DA6A22F0C00242EA8512DA62A8
:10472C00DA6A22F0200242EA4012DA62996B1A4AE3
:10473C000A4042F009029A63DA6A22F01002DA6245
:10474C009A6B22F47E429A63DA6A42F40022DA62AD
:10475C009A6B22F4FE029A63DA6A42F48012DA62ED
:10476C009A6B22F0FE429A63DA6A42F40012DA6221
:10477C001A6842F080621A6001E0012B06D0054BEA
:10478C001B6813F00063F8D02346F6E7002003B053
:10479C0030BD00BF0044025800FEFFFF10B5002BD7
:1047AC0018BF002907D08E46B0FBF1F002FB00F0D9
:1047BC00B0FBF3F010BD054CD42322460449054848
:1047CC0007F0E2FBD421204607F0D5FB10FE0008D1
:1047DC0050FE000820EC000808B50C4B1B6903F0D8
:1047EC003803102B0AD0182B0AD1FFF753FE0123E4
:1047FC0040F213120421FFF7D1FF02E0044800E05D
:10480C000020022107F0CBFF08BD00BF0044025876
:10481C0000127A0070B50C46154602215B4B1868E5
:10482C0007F0BDFF0646022107F0B9FF2388C3F34A
:10483C000B0213460D2A22D812B262B1013B0C2B8B
:10484C0000F29B80DFE803F04B52564F5A99995D6A
:10485C0067717B848D006FF085000FE003F62C737D
:10486C00C3F30B03012202FA03F341F211121342B8
:10487C001FD113F4803F2ED16FF0850070BDE42A58
:10488C000FD9F42A7CD8E82A10D3E83B0C2B71D82A
:10489C00DFE803F01D7070701D7070701F70707009
:1048AC002300D42ADAD26FF08500E7E76FF0850099
:1048BC00E4E72E602368B3F5805F64D32A68C3F302
:1048CC0013330133B2FBF3F22A600020D6E72860E1
:1048DC00F0E72860EEE72860ECE72860EAE7FFF7EE
:1048EC007BFF2860E6E72A4B2B60E3E74FF400439D
:1048FC002B60DFE74FF4FA432B60DBE7254B2B6093
:10490C00D8E7FFF7C7FD012340F213120421FFF78C
:10491C0045FF2860CEE7FFF7BDFD042340F21312DC
:10492C001946FFF73BFF2860C4E7FFF7B3FD0223EE
:10493C0040F213120421FFF731FF2860BAE7FFF7AA
:10494C00A9FD01230A221946FFF728FF2860B1E7C9
:10495C00FFF7A0FD01230A221946FFF71FFF28606D
:10496C00A8E7FFF797FD01230A221946FFF716FF68
:10497C0028609FE76FF0850080E76FF085007DE78A
:10498C006FF085007AE7002078E700BF78010024FB
:10499C0000127A00006CDC0238B5244B1A6842F421
:1049AC0080221A601A6842F480321A6001E0012BEE
:1049BC0006D01E4B1B6813F40033F8D00123F6E726
:1049CC001A494A6F42F001024A6701E0012D06D0F4
:1049DC00164A556F15F00205F8D01D46F6E7FDF79F
:1049EC0037F8124B1A6F22F018021A671A6F42F03E
:1049FC0001021A6701E0012C06D00C4B1C6F14F05D
:104A0C000204F8D02C46F6E7FDF782F8074A136843
:104A1C0043F48053136001E0012B06D0034B1B6859
:104A2C0013F40053F8D02346F6E738BD004402587F
:104A3C0070B582B02F4BD3F8E02042F00072C3F86F
:104A4C00E020D3F8E03003F000730193019BFFF7F3
:104A5C00A3FFFFF723FDFFF7D7FD041E40DBFFF795
:104A6C00BBFE06460221244807F099FE0546864205
:104A7C0039D3204B9A6922F470629A619A6922F0B8
:104A8C000F0242F008029A61DA6922F0700242F0D9
:104A9C004002DA61DA6922F4E06242F48062DA619F
:104AAC009A6922F0700242F040029A611A6A22F06E
:104ABC00700242F040021A621A6922F0070242F0B8
:104ACC0003021A610B4B1B6903F03803182BF9D145
:104ADC00AE420BD2084D2846FFF7F2FC074B1D6087
:104AEC00204602B070BD03F04FFDC2E7284603F02C
:104AFC004BFDEFE7004402588055C8207801002494
:104B0C0010B50C460888C0F30B0007F050FE0028C7
:104B1C0017DB6368FF2B15D098B20B49C3F3845293
:104B2C00C3F305439A40435823EA02034350626897
:104B3C0090B2D30EC2F305429340425813434350F4
:104B4C00002010BD0020FCE70044025810B50446BC
:104B5C000A2806D0E1B2064883685B68984720466D
:104B6C0010BD034883685B680D219847F2E700BFCE
:104B7C0020E4000810B5044C2046FFF7C3FA204689
:104B8C00FCF718FC10BD00BF594B000808B50548D0
:104B9C0009F088F818B1FFF7EDFF002008BD6FF0A1
:104BAC001200FBE720E400082DE9F04114464368AD
:104BBC001D69481E5A69824214D9DE694FEA4018B1
:104BCC0006EB401700F056FC084B1B5C1D446B6851
:104BDC009BB2636016F808306370BB7A23700020B8
:104BEC00BDE8F0816FF01500FAE700BF5001010835
:104BFC0008B5032815D8DFE800F002050A0F0020DD
:104C0C00086008BD4FF480330B600020F9E74FF4C7
:104C1C0000330B600020F4E74FF440330B600020AE
:104C2C00EFE70346034A0121034807F0DAFB6FF074
:104C3C001500E6E778FE000890EA000808B50128A0
:104C4C000ED0022810D040B10346094A0121094870
:104C5C0007F0C7FB6FF0150001E080230B6008BD67
:104C6C0040230B600020FAE700200860F7E700BF44
:104C7C008CFE000890EA0008012813D002280ED000
:104C8C0008B540B10346094A0121094807F0A9FBC0
:104C9C006FF0150002E04FF480630B6008BD00203C
:104CAC00086070476FF08500704700BFA0FE0008D9
:104CBC0090EA0008012813D002280ED008B540B1A4
:104CCC000346094A0121094807F08BFB6FF01500D8
:104CDC0002E04FF400730B6008BD002008607047C1
:104CEC006FF08500704700BFBCFE000890EA00081A
:104CFC002DE9F04F97B000AF38600E461446D0F84F
:104D0C000490D9F81CA06FF078450D444FEA451B70
:104D1C000AEB4515D9F810307B6007F1140008F048
:104D2C009DFF013ED9F81430B34240F28980AB7A32
:104D3C00002B40F08E803146786807F063FD80468A
:104D4C00002840F08F803146386807F074FD638886
:104D5C0003F47E63B3F57E6F00F08D802269536996
:104D6C00B3F5803F80F09580637813F0070F04D182
:104D7C0099F80C30002B00F09480E188A3889942BC
:104D8C0040F0F380042B18BF022B02D0012B40F013
:104D9C00F480137FC3F38012B2EBD31F40F0F58085
:104DAC000123AB72A369AB61637803F007034AF884
:104DBC000B3063696B61A388EB60E3882B6123691B
:104DCC001B7FC3F380132B7723691B68002B00F028
:104DDC00E48023695B68002B00F0E5805AF80B3007
:104DEC00012B00F0E68023691A687A615B68BB616D
:104DFC00206807F13C01C0F3C330FFF7F9FEB0F1B6
:104E0C00000841DB607807F11C0100F00700FFF798
:104E1C0015FFB0F1000837DB637803F00703012BB3
:104E2C0000F05B81022B00F0CA80002B00F0C780E1
:104E3C00B04A0121B04807F0D4FA6FF0150823E00E
:104E4C003346AE4A0121AC4807F0CBFA6FF0150897
:104E5C001AE03346AA4A0121A74807F0C2FA6FF0BC
:104E6C000F0811E03346A74A0121A34807F0B9FA0D
:104E7C006FF00F0808E00123AB726B72A369AB6192
:104E8C0063696B6100232B7740465C37BD46BDE8F8
:104E9C00F08F9D4A0121984807F0A3FA6FF015088E
:104EAC00F2E73B68D3F800C06D4600233B74022345
:104EBC007B7488B06C4614F110021DD00E21131EA9
:104ECC0018BF012308460429D4BF002603F00106AD
:104EDC000EB18E4961610021397302217973082862
:104EEC00D4BF002303F001030BB1C4F818C092B176
:104EFC0004F11C0300210CE06FF00041DFE701F12D
:104F0C00500607F1080C664416F84C6C03F8016B5C
:104F1C0001310129F3D90D2824DD0E2342B10321DF
:104F2C00397400217974B9740121F97438692061DC
:104F3C0000216FF300016FF341016FF382016FF3F6
:104F4C00C501012060F38811C3F30A0363F35321F5
:104F5C006FF31F5100236848FDF7B4FBAD466FF0AB
:104F6C00850891E76FF01B03D8E7694A0121624875
:104F7C0007F02DFA6FF0150886E7664A01215E48A6
:104F8C0007F02FFA6FF015087EE7634A01215A48A3
:104F9C0007F01DFA6FF0150876E7604A02215648B3
:104FAC0007F015FA15E75E4A0221534807F00FFA8D
:104FBC0014E723691A68BA615B687B6118E7236997
:104FCC001B7FC3F30110C3F3810907F12801FFF71D
:104FDC0053FEB0F10008FFF657AF07F12401484625
:104FEC00FFF768FEB0F10008FFF64EAF2B7F002BE9
:104FFC007AD04FF480733B625AF80B30022B14BFFB
:10500C00002301232B72A38893FAA3F2B2FA82F243
:10501C000BB94FF0FF32434B53F82230FB62E3885D
:10502C0093FAA3F2B2FA82F20BB94FF0FF323E4B75
:10503C0053F822303B63297A204600F093FCB86485
:10504C00297A204600F0B6FCF8642369587F00F0FA
:10505C000F0000F0D7FC786407F1140007F01EFE77
:10506C00002844D004233B642B7A002B60D02369A6
:10507C005B69A288B3FBF2F37B632378BB63304696
:10508C0000F0F8F9014607F114027C68204603F0A1
:10509C0017FA304600F0EEF9244B1A5CA35843F093
:1050AC001003A3502B7F002B49D13B6C042B51D008
:1050BC00304600F0DFF91D4C235C7D682B445A69A7
:1050CC0022F004025A61304600F0D4F9235C2B44E0
:1050DC005A6922F080025A61D6E623691B7FC3F31A
:1050EC008100C3F3011970E700233B6284E70023BE
:1050FC003B64B9E73400010890EA0008D8FE0008C8
:10510C00FCFE000814FF000838FF000850FF0008E0
:10511C0074FF000898FF0008BCFF0008F4FF0008AB
:10512C00140001083801010844010108500101086C
:10513C0023695B69E288B3FBF2F37B639DE730463E
:10514C0000F098F90E4B1A5C79688B5843F0080301
:10515C008B50AAE7304600F08DF9094C235C7D6832
:10516C002B445A6942F004025A61304600F082F92D
:10517C00235C2B445A6942F080025A6184E600BFDA
:10518C00500101082DE9F84F1E46406805694C1E78
:10519C004369A34266D91746D0F81CA04FEA441BBA
:1051AC000AEB44182146284607F02CFB81460028C0
:1051BC005BD15AF80B10012907D0022930D079B3F2
:1051CC006FF015094846BDE8F88F204600F052F9FB
:1051DC00DFF89CA01AF800302B44DF60204600F06A
:1051EC0049F91AF800302B449E6098F8083043B304
:1051FC00204600F03FF9D8F80C300A9AB2FBF3F3D2
:10520C001B4A125C2A4450681A4901400B435360F4
:10521C00012388F80A302146284600F059FBD1E7D3
:10522C00204600F027F9DFF848A01AF800302B448C
:10523C009F60204600F01EF91AF800302B44DE6007
:10524C00D3E7204600F016F9D8F810300A9AB2FBD2
:10525C00F3F3074A125C2A445068064901400B4399
:10526C005360D5E76FF01509ACE76FF00F09A9E7AC
:10527C00500101080000FFFFF8B54368DD696FF0CD
:10528C0078420A4405EB42151F694C1E5B69A34228
:10529C0024D906466B7A13B10020A872F8BD2146BA
:1052AC00384600F023FB08B90020F7E7204600F051
:1052BC00E1F80C4B1A5CBB5823F01003BB50214691
:1052CC00384600F03FFB2146304607F0B4FA214641
:1052DC00384607F097FA0020A872DFE76FF0150048
:1052EC00DCE700BF500101082DE9F04143681F695C
:1052FC005A698A4219D906460D46DC6904EB4114F9
:10530C00637A0BB9A37ADBB1D4F80480294638460A
:10531C0000F09AFAE0B1637AABB1A5690123424679
:10532C0061693046A847BDE8F081294C5F232246CD
:10533C002849294806F028FE5F21204606F01BFE6E
:10534C0007F079FAEFE72946384600F0ADF8E4E7C4
:10535C002946384600F05EFA80B1237F03B9A37268
:10536C00637A33B1A5690023424661693046A84788
:10537C00D9E72946384600F0B3F8F3E72946384612
:10538C0000F07CFA60B1154A0121154807F01FF8AE
:10539C00A5696FF00403424661693046A847C2E72D
:1053AC00104A01210E4807F012F80023A372294677
:1053BC00304607F0B3FA2946304607F03CFAA569A7
:1053CC006FF00403424661693046A847ABE700BF63
:1053DC00540001088000010820EC00089C00010822
:1053EC0090EA0008B800010870B5054644681D48ED
:1053FC0008F058FC68B11B4B9B681B688BB12146AD
:10540C0018489847064660B9A36828469847002371
:10541C001BE0154A0121154806F0D9FF6FF0120662
:10542C001DE0134A0121114806F0D1FF6FF004066C
:10543C0015E0E26902EB431200219172217EE269D0
:10544C0002EB431219445160013362699342F0D369
:10545C002A69002313602A6953602A6993603046D5
:10546C0070BD00BF00E20008C800010890EA000807
:10547C00E8000108072803D8074B53F820007047B1
:10548C0010B5064C212322460549064806F07CFD42
:10549C002121204606F06FFDFC040108580101088B
:1054AC008801010820EC000810B5072904D8084B26
:1054BC0053F82130984710BD064C47232246064925
:1054CC00064806F061FD4721204606F054FD00BF5A
:1054DC00DC040108580101084002010820EC000816
:1054EC0010B5072904D8084B53F82130984710BD44
:1054FC00064C592322460649064806F045FD59211B
:10550C00204606F038FD00BFBC0401085801010814
:10551C004002010820EC000810B5072907D8094BF8
:10552C0053F821309847003818BF012010BD064CA5
:10553C006B2322460549064806F026FD6B212046C2
:10554C0006F019FD9C0401085801010840020108ED
:10555C0020EC000810B5072907D8094B53F8213067
:10556C009847003818BF012010BD064C7D232246F9
:10557C000549064806F008FD7D21204606F0FBFC97
:10558C007C040108580101084002010820EC0008C5
:10559C0010B5072904D8084B53F82130984710BD93
:1055AC00064C8F2322460649064806F0EDFC8F2157
:1055BC00204606F0E0FC00BF5C040108580101081D
:1055CC004002010820EC000810B5072904D8084B4C
:1055DC0053F82130984710BD064CA12322460649AA
:1055EC00064806F0D1FCA121204606F0C4FC00BF01
:1055FC003C040108580101084002010820EC000895
:10560C0010B5072904D8084B53F82130984710BD22
:10561C00064CB32322460649064806F0B5FCB321D6
:10562C00204606F0A8FC00BF1C0401085801010824
:10563C004002010820EC000810B5072907D8094BD7
:10564C0053F821309847003818BF012010BD064C84
:10565C00C52322460549064806F096FCC52120467E
:10566C0006F089FCFC0301085801010840020108FE
:10567C0020EC000810B5072907D8094B53F8213046
:10568C009847003818BF012010BD064CD72322467E
:10569C000549064806F078FCD721204606F06BFC3D
:1056AC00DC030108580101084002010820EC000845
:1056BC0010B5072907D8094B53F821309847003803
:1056CC0018BF012010BD064CE923224605490648A7
:1056DC0006F05AFCE921204606F04DFCBC030108FB
:1056EC00580101084002010820EC00082DE9F047A0
:1056FC0082B000AF04468A46FFF72CFF8146514624
:10570C002046FFF709FF804651462046FFF794FFDD
:10571C00064651462046FFF7ADFF0546514620464A
:10572C00FFF7C6FF8CB06C4614F1100267D04FF037
:10573C001C0C131E18BF01236146BCF1040FD4BF0F
:10574C004FF0000E03F0010EBEF1000F03D0DFF896
:10575C00BCC0C4F814C00829D4BF4FF0000C03F02F
:10576C00010CBCF1000F01D0C4F818900C29D4BF67
:10577C004FF0000C03F0010CBCF1000F01D0C4F889
:10578C001C801029D4BF4FF0000C03F0010CBCF1AD
:10579C00000F00D026621429D4BF002603F00106A6
:1057AC0006B165621829D4BF002303F0010303B1CD
:1057BC00A0621B2926DD1C233AB107213971002177
:1057CC007971B971F9717868206100216FF300016A
:1057DC006FF341016FF382016FF3C501032060F396
:1057EC008811C3F30A0363F353216FF31F51002392
:1057FC000748FCF767FF0837BD46BDE8F0876FF038
:10580C00004C96E76FF01B03D6E700BFE4020108DB
:10581C0098EA000838B504460D460846FFF72AFEFC
:10582C00084B1B5CE35813F0100F06D0294620469A
:10583C00FFF790FE18B1012000E0002038BD0020D9
:10584C00FCE700BF2C05010838B504460D46084698
:10585C00FFF710FE084B1B5CE35813F0080F06D043
:10586C0029462046FFF758FE18B1012000E0002021
:10587C0038BD0020FCE700BF2C05010870B50446BC
:10588C000D460846FFF7F6FD0E4B1B5C23445B6987
:10589C0013F0800F13D029462046FFF709FF064668
:1058AC0070B1094A0121094806F091FD29462046AC
:1058BC00FFF71CFF2946204607F0E2F900E000261E
:1058CC00304670BD2C0501080C03010898EA00084D
:1058DC0010B504460846FFF7CDFD034B1A5CA358E0
:1058EC0043F00103A35010BD2C05010810B504466C
:1058FC000846FFF7BFFD054B1B5CE35813F0010F87
:10590C0001D1002010BD0120FCE700BF2C050108CF
:10591C0038B504460D460846FFF7ACFD084B1A5C3B
:10592C00A35823F00103A35029462046FFF7DEFFBE
:10593C000028F9D129462046FFF7D2FD002038BDBA
:10594C002C05010810B504460846FFF793FD044BDF
:10595C001B5CE018436923F08003436110BD00BF5A
:10596C002C05010808B569B14389013B0F2B13D8ED
:10597C00DFE803F00A1212191212120C1212121290
:10598C001212120F0389F0E7002001E04FF0807033
:10599C0008BD4FF0C070FBE7044A0121044806F033
:1059AC0016FD0020F4E74FF40000F1E7180301089E
:1059BC0098EA000808B569B10389013B0F2B13D88D
:1059CC00DFE803F00A1212191212120C1212121240
:1059DC001212120F4389F0E7002001E04FF480000F
:1059EC0008BD4FF4C000FBE7044A0121044806F04F
:1059FC00EEFC0020F4E74FF40010F1E7500301082F
:105A0C0098EA000808B5032809D8DFE800F0020F6F
:105A1C000406002008BD0220FCE70320FAE7044A34
:105A2C000221044806F0D3FC0020F3E70120F1E743
:105A3C008C03010898EA000838B54468154808F04A
:105A4C0031F970B1134B9B681B6893B12146114817
:105A5C009847054668B9A2680F4B9A4211D0284660
:105A6C0038BD0E4A01210E4806F0B1FC6FF012054C
:105A7C00F5E70C4A01210A4806F0A9FC6FF0040571
:105A8C00EDE7094808F00EF90028E8D16FF012058F
:105A9C00E5E700BF00E2000800080240C80001086A
:105AAC00A0EA0008E800010860E2000838B5826846
:105ABC000A4B9A4201D10A4838BD0446094D6E235F
:105ACC002A460949094806F05FFAA168084806F019
:105ADC005BFA6E21284606F04EFA00BF0008024021
:105AEC002C07010834050108ECF2000820EC000832
:105AFC00640501082DE9F0410C4616464568284618
:105B0C00FFF7D4FF3778AB7B6A7B1344BB4217DBC0
:105B1C002B7B9C421DD2D0F800802B6903EBC40177
:105B2C003246097953F83400C047D8B9AA6852F8FC
:105B3C00243023F0FF031F4342F82470BDE8F081AA
:105B4C003B460C4A01210C4806F04BFC6FF015004B
:105B5C00F4E72346094A0121074806F042FC6FF09E
:105B6C001500EBE7064A0121034806F030FC6FF004
:105B7C001500E3E784050108A0EA0008A005010868
:105B8C00BC05010838B50C4645682846FFF78EFF62
:105B9C002B7BA34209D942682B6903EBC401097919
:105BAC0053F83400904748B938BD2346084A0121C0
:105BBC00084806F016FC6FF01500F5E72346064A78
:105BCC000121044806F00DFC6FF01500ECE700BF56
:105BDC00A0050108A0EA0008DC05010838B50C4650
:105BEC0045682846FFF762FF2B7BA34209D98268E0
:105BFC002B6903EBC401097953F83400904748B979
:105C0C0038BD2346084A0121084806F0EAFB6FF02C
:105C1C001500F5E72346064A0121044806F0E1FB8E
:105C2C006FF01500ECE700BFA0050108A0EA000822
:105C3C00000601082DE9F04182B00C4615461E46BF
:105C4C0047683846FFF732FF3B7BA34210D9D0F8A8
:105C5C000C803B6903EBC40253F834001179089BA8
:105C6C00009333462A46C04758B902B0BDE8F081CC
:105C7C002346084A0121084806F0B3FB6FF01500D3
:105C8C00F3E72346054A0121034806F0AAFB6FF00F
:105C9C001500EAE7A0050108A0EA0008240601089F
:105CAC00F8B50C46164645682846FFF7FFFE2B7BD9
:105CBC00A3420AD907692B6903EBC401324609795F
:105CCC0053F83400B84748B9F8BD2346084A0121B7
:105CDC00084806F086FB6FF01500F5E72346064AE8
:105CEC000121044806F07DFB6FF01500ECE700BFC6
:105CFC00A0050108A0EA00084C06010808B5436895
:105D0C0041B103F10C010B4B9B681B685BB109485B
:105D1C00984708BD03F10C01064B9B685B682BB1DF
