:020000040800F2
:1000000040210024191F0008B5750008051F0008CD
:10001000051F0008051F0008051F0008000000005C
:10002000000000000000000000000000D91F0008D0
:10003000051F000800000000791F00082950000873
:1000400055210008552100085521000855210008B8
:1000500055210008552100085521000855210008A8
:100060005521000855210008552100085521000898
:100070005521000855210008552100085521000888
:1002CC0053B94AB9002908BF00281CBF4FF0FF31B1
:1002DC004FF0FF3000F00CB8ADF1080C6DE904CE16
:1002EC0000F010F8DDF804E0DDE9022304B07047FB
:1002FC00704700BF034613F8012B002AFBD1181AD4
:10030C00013870472DE9F04786468C460846089E12
:10031C00154674461946002B40F0C2808542B2FA4D
:10032C0082F245D94AB1C2F1200300FA02FC2EFA3E
:10033C0003F3954043EA0C0C94404FEA154EA8B2D7
:10034C00BCFBFEF8230C0EFB18CC08FB00F943EAAF
:10035C000C43994528D9EB1808F1FF3704D299457D
:10036C0002D9A8F102072B44A3EB0903A4B2B3FBF7
:10037C00FEFC0EFB1C330CFB00F044EA0344A042D1
:10038C0014D92C190CF1FF3304D2A04202D9ACF1D0
:10039C0002032C44241A43EA07401EB1D440002324
:1003AC0034607360BDE8F0874746DDE76346F1E7EC
:1003BC0092BB431B01214FEA154EAFB2B3FBFEFCBF
:1003CC00200C0EFB1C330CFB07F840EA034398454A
:1003DC0062D9EB180CF1FF3004D2984502D9ACF17C
:1003EC0002002B44A3EB0803A4B2B3FBFEFC0EFBF0
:1003FC001C330CFB07F744EA0344A7424ED92C19D3
:10040C000CF1FF3304D2A74202D9ACF102032C4405
:10041C00E41B43EA0040C0E7C2F1200320FA03F1D9
:10042C00954090402EFA03F303434FEA154EAFB2BA
:10043C00B1FBFEFC0EFB1C10190C0CFB07F841EA7F
:10044C000041884504FA02F422D969180CF1FF30F6
:10045C0004D2884502D9ACF102002944A1EB080171
:10046C009BB2B1FBFEFC0EFB1C110CFB07F743EA25
:10047C0001439F420ED9EB180CF1FF3104D29F427D
:10048C0002D9ACF102012B44DB1B41EA004192E79B
:10049C006046E3E76146F7E76046A3E76346B7E7E4
:1004AC00834206D916B9002108467BE7C6E900E06D
:1004BC00F9E7B3FA83F78FB9834201D3724508D8B1
:1004CC00BEEB020460EB030301209C461EB9002125
:1004DC0068E73846FAE7C6E9004CF8E7C7F1200CA4
:1004EC00BB4022FA0CF41C432EFA0CF120FA0CF34C
:1004FC00B84001434FEA14490EFA07F5B3FBF9F87B
:10050C001FFA84FE09FB18300B0C08FB0EFA43EAA9
:10051C0000439A4502FA07F240D9E31808F1FF307C
:10052C0004D29A4502D9A8F102002344A3EB0A0392
:10053C0089B2B3FBF9F809FB183308FB0EFE41EA4C
:10054C0003418E452CD9611808F1FF3304D28E4536
:10055C0002D9A8F10203214443EA0040A0FB02980F
:10056C00A1EB0E014145CE46434602D306D14D4583
:10057C0004D2B9EB020E68EB04030138002EA6D0AE
:10058C00B5EB0E0261EB030101FA0CFC22FA07F346
:10059C004CEA0303F940C6E9003198E74046C5E749
:1005AC004346D9E738B50E4C204608F077F8A8B189
:1005BC0022690021A5682046136823F0010313600B
:1005CC004FF420222B68984701216B6920469847ED
:1005DC00002143F6982008F0A7F9F5E738BD00BFD5
:1005EC000C8E00082DE9F04F91B0840705460E469D
:1005FC00009302F00403DDF868800293C2F3C20397
:10060C00039203F10103059340F0BA81041D30B14C
:10061C00072909D86FF01B0011B0BDE8F08F01F06D
:10062C0007063444C6F10806009B4FF000094FF052
:10063C00040A591E4FF0FF334F46CB4601935346E5
:10064C00CDF810900DB1009A22600598002800F3A7
:10065C00E8809848009A824203D397488242C0F0BF
:10066C00E080039AA4EB050E92074FEA9E0000F17E
:10067C0003810F2F00F2B180002D00F0058107F1EE
:10068C0040020DEB020C019A0CF8200C0CF8102C0B
:10069C00049801300490E7E07A285DD84B280ED8F6
:1006AC00472859D829282DD8252852D054D8202865
:1006BC007AD02338D0F1000B4BEB000B74E04C38A4
:1006CC002E2849D8DFE800F0704848484848484888
:1006DC00484848484B484848484848484859484B77
:1006EC004B595959704B6D487048184B18484882F3
:1006FC007F4B48484B487F0000204FF0000B4FF0D9
:10070C00040A38E02A380122C0B202FA00F010EADA
:10071C000E0F49D110F0625C2FD110EA020B43D0BE
:10072C006046013C5444B4FBFAF40AFB04F4002D7B
:10073C0061D0A3EB050CA444B4453FF66BAF002885
:10074C0068D1042B47D158F8043B236004340423AC
:10075C002AE0019A013A01924FF0000B24E011F8C3
:10076C00010C6C2834D111F8023C00206C2B834610
:10077C00C5D14FF0080A5346D3E708F107080734F0
:10078C0028F0070824F00704F8E802AB35B1069806
:10079C002044B0423FF63EAFC4E900AB08344FF002
:1007AC00000B4FF0080A534611F8010F002878D0BF
:1007BC00BBF1000F7FF470AF2528F5D1019B4FF0F2
:1007CC00010B013301934FF0040AECE7584694E710
:1007DC0000208346A5E7082B02D06FF015001BE71D
:1007EC0008F1070828F00708F8E80223C4E90023F9
:1007FC0008340823D8E768B9042B02D108F104089F
:10080C00A4E7082BE9D108F1070828F0070808F13C
:10081C000808EDE7059A013A059258F8042B009266
:10082C0010E7039A900720D5A4EB050E4FF0010CAE
:10083C004FEA9E00BEF5007FCFD20F2FCDD8F5B179
:10084C0007F14002C0B20DEB020E019A0EF8200C1B
:10085C000EF8102CBCF1000F3FF41AAF60F07F00C3
:10086C0009F101090EF8200C0137C5F10802043416
:10087C004FF6DA7E069297E74FF0000CDAE7BCF100
:10088C00000F01D00136EFE7029802360028EBD1B9
:10089C000098CDE90631FFF72DFD0644DDE9063160
:1008AC00E2E7631BB3F5806F97D23DB9A6F108045C
:1008BC00E018B1E6848B000864AD00089B08029A2E
:1008CC0028602B709DF81030C2B1EB7085F8029047
:1008DC00B9F1000F05D008A80022C5F1010C974210
:1008EC000ED1C5F101030DF120084FF0000A0DF1F6
:1008FC00300B0193574512D1601B8DE66B70E5E709
:10090C0010F8013B190608D50CEB040E03F07F031D
:10091C00B6453FF67FAE04F8013B0132DFE7B9F193
:10092C00000F03D098F90020002A17DB029BD3B1EB
:10093C001AF80B2004F8012B0022019B1819104403
:10094C00B0423FF667AE98F80000009904F8010B2E
:10095C002046039208F085F8039A14440AF1010A20
:10096C0008F10108C6E798F8002055F822300093EA
:10097C00029B009845F82230FFF7BCFC421CDCE7D8
:10098C006FF00D0048E600BF2DE9F04F97B004461C
:10099C00894600AF90F802A0D7F880B03B62CBF349
:1009AC00C003FA62BB6141B9457800780AEB80005C
:1009BC0020444D4517D8A0EB0409E378FB61BAF14C
:1009CC00000F02D01BF0010F16D1FB6953BBFB6A61
:1009DC001BB13A6A4946204698474D4628465C3733
:1009EC00BD46BDE8F08F461C09F101093046FFF702
:1009FC0081FC01303044DCE72378626899007A622C
:100A0C00FA6A796104EB8301002A40F000814D46BB
:100A1C000E4601EB0A094FF000084E454CD101EB94
:100A2C000A0610E01BF0020FD1D023789A0004EBD9
:100A3C0083017A6162687A62FA6A002A77D14D463C
:100A4C0001EB0A0690461BF0050F0CBF0223012395
:100A5C00FB62FB6906EB430A0BF00203BB625645D3
:100A6C00BCD016F8021B16F8013C54F82390994B95
:100A7C00994502D3984B994536D3BB69002B40D08E
:100A8C00786A06F07EF900283BD0E9468AB06A46BF
:100A9C00924B53617B6AC2E906314FF400731384A5
:100AAC008F4B42F8103F00234FF412518D48023DFA
:100ABC0000F09AFCCD46D2E716F8013BF96254F8E7
:100ACC002300FFF717FCD7F884300130F96A4BB1DB
:100ADC00D7F8883098453EBFD7F8843023F81800F3
:100AEC0008F10108054498E7BB6923B1786A06F060
:100AFC0048F90028C9D11BF0010F05D1FB6AED1A8A
:100B0C00ADE7BB6A002BAAD04846FFF7F3FBD7F83A
:100B1C00843053B1D7F8883098453FBF431CD7F881
:100B2C00842022F8183008F10108054497E7BAF13F
:100B3C00000F72D01BF0040672D0D046002607F1CD
:100B4C00480052463B61B96207F08BFFB96A3B69BA
:100B5C0001EB0A02F969BA62FA695200FA60BA6AE0
:100B6C0002EB41023A610BF00202BA603A69B96ACF
:100B7C008A4257D11BF0020F62780CBF4FEA580122
:100B8C0000217A621BF0010F3244D2B240F09F80F8
:100B9C001BF0040F14BF40460020BB616270A070B4
:100BAC002046E1703A6A7969FB6A9847051EFFF6A0
:100BBC0015AFBB6941463A6A07F1480023707B6A5E
:100BCC0084F802A06370FB69E370FB6A9847B0F18C
:100BDC000008C0F2BB807B69A9EB0A013A6AC91A0A
:100BEC00FB68C91AD7E90A0398470028C0F2B080FD
:100BFC00A8444FF0000B07F1380A08EB0005B34589
:100C0C0072D300213A6AFB6A08469847E6E65646D4
:100C1C004FF0000807F1380093E75646D04697E7A7
:100C2C00B04695E7BA6A12F8021B12F8015CBA6278
:100C3C0054F82500274A904202D3274A90421ED3EB
:100C4C00BA6932B1786A7B6006F09BF87B68002841
:100C5C008CD1BA6802BB08F1280207F1300C08F1FC
:100C6C00010008F10208944407F158025FFA88F871
:100C7C0052FA80F00CF8101C00F8105C76E7BA6998
:100C8C003AB1786A7B6006F07CF87B6800287FF4C8
:100C9C006DAF1BF0010F09D006F1280207F13000EF
:100CAC00711C161806F8205CCEB25FE71BF0040F1F
:100CBC003FF45CAF08F1280207F1300008F10101A4
:100CCC0002EB000808F8105C5FFA81F84EE7002090
:100CDC0063E700BF848B000864AD0008B49B000878
:100CEC0004000001F49400081BF80A3054F8239017
:100CFC0087F83730D7F884302BB3D7F888309B453A
:100D0C0021D2D7F8843033F81B803A6A012107F1DD
:100D1C003700FB6A984700281ADB0544B8F1000F2E
:100D2C0006D14846FFF7E6FA00F101081FFA88F8E9
:100D3C003A6A41464846FB6A9847002808DB054456
:100D4C000BF1010B5BE74FF00008DEE7454645E68B
:100D5C00054643E6014B1860704700BF00000024B5
:100D6C0080B505460E461746984605F009F9DFF89A
:100D7C002090034607F0F6FE0446424649F8003040
:100D8C0039463046A84754F8090001F0D9F800BF9D
:100D9C0008000000054B00205A6822F002025A603D
:100DAC005A6822F001025A60704700BF0010005CC4
:100DBC00EFF31180102383F31288BFF36F8F094B6D
:100DCC001A683AB9084A116841F4807111601168C7
:100DDC00C905FCD51A6801321A6080F31188BFF37B
:100DEC006F8F7047DC0800240048025810B5EFF3F1
:100DFC001184102383F31288BFF36F8F134B1A687F
:100E0C00C2B9134B0122BFF35B8F53E8001F0029BB
:100E1C0003D143E800200028F7D1BFF35B8F04D146
:100E2C000C4A02210C4806F0F5FA84F31188BFF342
:100E3C006F8F10BD012A04D108490A6822F4807210
:100E4C000A601A68013A1A60EFE700BFDC08002458
:100E5C00D8080024689C00085C95000800480258DB
:100E6C0008B501F0E1F901F081F90C4B0C4A1A605C
:100E7C000C4AD36823F0070343F00203D3600A4BF8
:100E8C001A6841F20303B3EB124F06D1074AD2F8AA
:100E9C00083143F00103C2F8083108BD58010024A1
:100EAC000090D003004802580010005C00800051F4
:100EBC002DE9F047044607464FF00109DFF8508052
:100ECC0014B93846BDE8F08794FAA4F5B5FA85F55F
:100EDC0009FA05F32E0108EB05156FEA030A24EA5B
:100EEC0003042B7B002BEBD058F806301B694BB955
:100EFC0046440422284607EA0A077368196806F074
:100F0C0019FADDE7284698470028D9D1F0E700BF49
:100F1C006C95000830B5002289B00F490F4807F0D6
:100F2C0070FD0022002300240D4D0E49284600942C
:100F3C00CDE906230E234FF44072CDE90334CDE9FD
:100F4C000144094B04F0CAFD0849284607F056FC39
:100F5C00204609B030BD00BF7D0F0008F00600240C
:100F6C0068020024400C002499120008D29C00084E
:100F7C00014804F00BBD00BF540200242DE9F047DA
:100F8C00804620480F4606F0ADF90646002832D0C0
:100F9C0000252846BDE8F087237B83B12368DB68F6
:100FAC000BB120469847636883F8069023681B6949
:100FBC00CBB9636804222046196806F0BBF90136E8
:100FCC0010345445E8D3B8F1000FE2D0002DDFD037
:100FDC002846FFF76DFF0546002FF7D0002164204F
:100FEC0007F0A2FCF2E7204698470028E1D009FA66
:100FFC0006F31D43E3E7044C0546DFF810A04FF061
:10100C000109DEE7F00800246C9500087C950008C7
:10101C00014B53F820007047F495000808B50346BF
:10102C0008462BB1044A136000F074FC002008BD84
:10103C006FF01500FBE700BF0400002410B5044C52
:10104C00237813B9034804F0A1FC0123237010BDCD
:10105C00300C00245402002410B504460B4806F052
:10106C0041F95CB10A4BBFF35B8F53E8001F0139A8
:10107C0043E80012002AF8D1BFF35B8F054807F054
:10108C00CCFC0548BDE8104004F080BCE808002406
:10109C00EC080024F0060024540200240020064B27
:1010AC00BFF35B8F014653E8000F43E80012002AA0
:1010BC00F9D1BFF35B8F7047E808002470B5FFF7D8
:1010CC00EDFF084C0546084EB44200D370BD636872
:1010DC005B792BB123685B6813B12946204698478E
:1010EC001034F1E76C9500087C95000810B5044CA1
:1010FC000449204605F07CFF034B1C6010BD00BF6B
:10110C00B4010024E0950008E008002400230D4AF7
:10111C004FF47A710C4810B513700C4A13600C4ADA
:10112C001360FFF77BFFFFF7E1FF0A4B0A491846F4
:10113C008B4200D310BD1A1A5C68103312110132A5
:10114C002271F5E7310C00240B730008E808002429
:10115C00EC0800246C9500087C95000801460022E0
:10116C000023014805F065BFB4010024014805F0D7
:10117C00FEBF00BFB4010024024B0146186806F004
:10118C004AB800BFE0080024014806F07FB800BF51
:10119C00B4010024264B70B51878002846D0FFF710
:1011AC00E5FF054600283ED1224B234C1B68002B43
:1011BC0012DD07F024FC0A220023FFF781F8D4E9A2
:1011CC000032C01A40F2E93361EB0201984271F12E
:1011DC00000101D3FFF772FFD4E9003213F57A73E3
:1011EC0042F10002C4E90032BDE87040FFF7CCBF09
:1011FC0063685B7923B12368294620461B689847AE
:10120C001034B442F4D32846FFF7B6FF0B4BBFF3B0
:10121C005B8F53E8001F013943E80012002AF8D114
:10122C00BFF35B8FC0E7064C064EEAE770BD00BF0C
:10123C00300C0024E8080024E8060024EC08002404
:10124C006C9500087C95000870B50D4D297861B936
:10125C000C4C01200C4EFFF791FEB44206D3FFF765
:10126C0099FF0028FBD101232B7070BD63685B795B
:10127C001BB1236820469B6898471034EDE700BFEC
:10128C00310C00246C9500087C95000800212DE998
:10129C00F0470846FFF772FE044658B34FF4FA784D
:1012AC004FF000091C4B07F05DFC1C4A1B581360E7
:1012BC0033B11B4B1B68092B02DD1A4804F066FB8B
:1012CC000025194FDFF85CA044B12046FFF7F0FD74
:1012DC00044618B94FF0FF384FF0FF39FFF75AFFAB
:1012EC00064628B9B5B942464B46504604F082FB37
:1012FC003546E9E74FF0FF384FF0FF39D2E72B685E
:10130C009B691BB100222846114698471035BD42F7
:10131C00F5D3E8E7054DFAE708000000E4080024DF
:10132C00EC080024540200247C9500086C950008FD
:10133C0013B5184805F0D6FF174B1B7873B1EFF3B4
:10134C001184102383F31288BFF36F8FFFF722FFF2
:10135C0084F31188BFF36F8F02B010BD0F4B1B6865
:10136C00002BF9D050B9002200230D48CDE9002301
:10137C0042F21072002305F015F9EDE70928EBD1C4
:10138C00074807F04AFB074802B0BDE8104004F0DC
:10139C00FDBA00BFEC080024310C0024E408002442
:1013AC00F006002454020024064B10B504461B68BA
:1013BC0098472146A060044805F0BAFEBDE81040ED
:1013CC00FFF7B6BF04000024B4010024044A054B07
:1013DC009B1AB1EBD30F34BF52F831000020704789
:1013EC00F49400086C9500082DE9F04F8FB0C1F310
:1013FC004A280D46914604AF0C0DB8607B60B8F1DD
:10140C00000F63D0002607F114034FF0040B4FF0CC
:10141C000A0AC7F80C8032467E624846C7E907665E
:10142C00019307F11C03CDF808B0CDF800A0F968C2
:10143C00FFF7AAFAB0F5006F03461CD36C468AB0CE
:10144C00D9F8041004AB26481A46C3E9050140F24A
:10145C00FF71D9614FF400711984224B42F8103F8F
:10146C004FF4125133462048FFF7BEFFA5462C37E8
:10147C00BD46BDE8F08FC0F30A0804F117003B60CD
:10148C00184468F3532520F007008008FFF766FE28
:10149C00044690B13B6800F11001144A4846F961CA
:1014AC00C7E9083607F11403CDF808B0CDE900A35D
:1014BC0007F11C03F968FFF767FA68F353257B689B
:1014CC00B96820462A4605F055FFD0E704F117000D
:1014DC0020F007008008FFF741FE0446EDE700BF4F
:1014EC00E79C0008040000012495000853730008D1
:1014FC002DE9F04F87B00446934698460391DDE9F9
:10150C001279DDE9105ABFB13B465246102100203A
:10151C00CDF80090CDF81490FFF764F8B0F5006F9B
:10152C0006460AD340F2FF73174A0221174807B048
:10153C00BDE8F04F05F077BF3E4604F0070405F117
:10154C0017000BF0070BE400304444EA8B1420F036
:10155C00070044EA4624800844EA0554FFF7FEFDE0
:10156C00054640B13FB13B46524631461030CDF8AE
:10157C000090FFF737F8434622460399284607B0F8
:10158C00BDE8F04F05F0F6BE269D00082495000836
:10159C00406820B1034BC01A40F3CF0070474FF0A6
:1015AC00FF307047F49400080EB403B503AB01464A
:1015BC00054853F8042B019300F0C4FF02B05DF80A
:1015CC0004EB03B0704700BF7D740008CA0605D455
:1015DC008B064CBF02490349FFF7E6BF704700BFBB
:1015EC005F9D00085E9D00082DE9F04F89B09B4679
:1015FC0004460D46149B90469DF84CA00693159BF3
:10160C00179E0593169B0493BAF1000F00F09D8072
:10161C0006F4807306F00209079305F089FE024672
:10162C0000283ED091492046FFF7BEFF0746B9F18E
:10163C00000F08D016F0440F35D12A468C492046AD
:10164C00FFF7B2FF074406F0010353B1894B204664
:10165C00894953F82A20894B002A08BF1A46FFF7FC
:10166C00A3FF06F48073002B49D006F00803002B6F
:10167C0063D1B8F1000F66D0424681492046FFF78E
:10168C0093FF0546069B3D44002B6DD1049B002B1C
:10169C0073D1F30700F1E48031462046FFF796FF43
:1016AC00D8E00746C3E7774B18680028CAD0764BBA
:1016BC004FF47A794FF03C0C1B68B5FBF3F5B5FB96
:1016CC00F0F100FB11554FF4616309FB05F5B1FB1B
:1016DC00F3F2B5FBF0FE03FB121100FB1E55B1FB40
:1016EC00FCF309FB05F50CFB1311B5FBF0F50091B0
:1016FC0020466649CDE901E5FFF756FFA2E706F063
:10170C000803EBB1624B2046624953F82A20FFF7DD
:10171C004BFF0546B8F1000F05D04246584920460C
:10172C00FFF742FF0544BBF1000FABD05A465A49B4
:10173C002046FFF739FF0544A4E74FF0000BE1E723
:10174C0006F00805E6E745469CE7BBF1010F069B52
:10175C0006D1002B64D1049B002B7BD000250CE020
:10176C00002BF8D04D485CE04D48069B22464D4975
:10177C0005F0D6FA049B002B68D0DFF82C81DFF83B
:10178C002C91049F4FF0000B31462046102F28BFA0
:10179C001027FFF71BFF5D4545DC059B4FF0010B48
:1017AC00494620461A78FFF7FFFE1BF0070F03D1BE
:1017BC0041462046FFF7F8FE5F453BD9059B49465D
:1017CC00204613F80B20FFF7EFFE0BF1010BBBF1DA
:1017DC00100FEAD14FF0000B35492046FFF7E4FE1D
:1017EC005A46059B20469A5CA2F120015F2931499B
:1017FC0028BF2E22FFF7D8FE0BF1010BBBF1100F07
:10180C001DD01BF0070F03D141462046FFF7CCFE3D
:10181C005F455A46E5D841462046FFF7C5FEEBE743
:10182C001F485546A1E7414620460BF1010BFFF737
:10183C00BBFEB0E720492046FFF7B6FEC5E7059B87
:10184C003B440593049BDB1B04939AD1BAF1000F24
:10185C007FF41FAF204609B0BDE8F04F05F0FBBD8B
:10186C00064A20460449FFF79FFE15E7669D0008CF
:10187C006A9D000804960008BFA30008619D00083B
:10188C008F9D0008F8080024F4080024739D0008BC
:10189C0018960008939D0008999D0008B3740008E1
:1018AC007D74000851250008A69D00089E9D000827
:1018BC00A89D0008AA9D0008A49D000842F20F7381
:1018CC00114A8B4273B5044628BF0B4605680521A7
:1018DC00684604F0BDFE636806460B2228465B682A
:1018EC000A4905F0AAFD63683246694628465B68DA
:1018FC0005F0A3FD63681B2205495B68284605F0CB
:10190C009CFD02B070BD00BF05A40008C99D000875
:10191C00AD9D000800210123064A904206D8064AD4
:10192C0001B901231360054B186070474008012171
:10193C005B00F2E740420F00F4080024F808002492
:10194C00F8B50D4604464618054FB44201D1284659
:10195C00F8BD14F8011BBB6801485B689847F4E7B5
:10196C008C8E0008014B03600120704760960008C4
:10197C002DE9F047064600AF0C46002936D0E94663
:10198C008AB0A3686D46D1E9001221484FF0050AD0
:10199C00A846C5E90501C5E9072348F810AF00239F
:1019AC0042464FF421511B48FFF71EFDCD4663699B
:1019BC00AD46D4E903121848C5F810A0C5E90501D5
:1019CC00C5E90723002342464FF421511148FFF784
:1019DC000BFDCD46E369114A01210E4805F023FDAC
:1019EC00A3690F4A01210B4805F01DFD012E07D1FB
:1019FC00EFF305830B4A103B3146064805F013FD07
:101A0C002146304603F018FDBD46BDE8F08700BF07
:101A1C001F9E0008449500084E9E00087D9E0008FD
:101A2C008C9E0008BA9E000830BFFFF7FDBF00BFB8
:101A3C002DE9F0410B4E0546DFF82C80324606EBC3
:101A4C000807CC1B0949204607F00BF8A019083CE5
:101A5C004246002107F013F807F108002C67BDE897
:101A6C00F08100BF00000000040000007C9500081D
:101A7C00054B5A699B689A4204D0044A536843F058
:101A8C0080535360704700BF040C002400ED00E04D
:101A9C0070B5294C06460D462848294905F08BFDA2
:101AAC00A36AD9043CD52548264905F084FD1720A6
:101ABC00A36A1A0504D52148234905F07CFD18209A
:101ACC001D4CA36A9B0512D51C48204905F073FDDB
:101ADC00A36BA26A100409D51D4A0121174805F011
:101AEC00A2FC1EB1A36A23F40043A3621920124C7A
:101AFC00A36A590504D51148164905F05CFD1A2056
:101B0C00A36ADA050ED50D48134905F054FD1B20C8
:101B1C00094A936A43F47F43936200232B7070BD90
:101B2C001620C5E7A36A9B04F2D504480B4905F0BF
:101B3C0042FD1C20ECE700BF00ED00E044950008DE
:101B4C00CD9E0008E39E0008F49E0008079F000845
:101B5C00209F0008359F0008509F0008689F0008D0
:101B6C0010B5204C2049214805F025FDA36A9901A8
:101B7C0036D51E481E4905F01EFD1E20A36ADA014B
:101B8C0004D51A481B4905F016FD1F20154CA36AF5
:101B9C001B0304D51548184905F00DFD2120A36A37
:101BAC00590304D51148154905F005FD22200D4CAB
:101BBC00A36A9A0304D50D48114905F0FCFC2320B7
:101BCC00A36ADB0304D509480E4905F0F4FC242074
:101BDC00044A936A6FEA03436FEA1343936210BD9E
:101BEC001D20CBE700ED00E0979F0008449500080E
:101BFC00AF9F0008C29F0008DC9F0008FA9F0008F6
:101C0C001FA0000839A000082DE9F843364D804686
:101C1C00894636483649174605F0CDFCAB6ADE06D8
:101C2C0027D511243349314805F0C5FCAB6A1D0793
:101C3C0004D5122430492D4805F0BDFC2A4DAB6A61
:101C4C00980718D52D49294805F0B5FC6E6BAB6A81
:101C5C00190646D52A4A33460121244805F0E3FBF0
:101C6C00B9F1000F03D0AB6A23F08003AB621324ED
:101C7C0003E01024DAE76FF015061B4DAB6ADA07A8
:101C8C0004D514241F49194805F095FCAB6A9B0632
:101C9C0004D515241C49154805F08DFC124B9A6A85
:101CAC00D50602D49A6A90070AD55B68190507D540
:101CBC004146304600F002FA10B180F30988022444
:101CCC00094B9A6A920603D55A6A22F400525A6258
:101CDC009A6A204642F0FF029A6200233B70BDE8EC
:101CEC00F8836FF01506C2E700ED00E0449500089C
:101CFC0064A000087AA00008F49E0008ADA00008BB
:101D0C00C5A00008DBA00008689F00082DE9F04181
:101D1C00664B8AB004460026D3F8048000AFC8F3A3
:101D2C00080586F31188BFF36F8F02F07F43B3F180
:101D3C007F4F07D102F00C03082B12D15C495D4890
:101D4C0005F039FC002634460023FB71EB1E092BF1
:101D5C0000F28B80DFE803F00A81847D8989898910
:101D6C00898710074CBF0C460126EDE752495148B4
:101D7C0005F021FC4D4D0023FB71EB6A9A0705D54C
:101D8C004E494C4805F017FC002332E0EB6A002B5F
:101D9C0001DA4B49F5E7EB6A5B00F5D54949454853
:101DAC0005F009FC6B69A26943F480736B61BFF3A6
:101DBC004F8FBFF36F8F6B6932F8022C23F4807353
:101DCC006B61BFF34F8FBFF36F8F4DF602739A4267
:101DDC0008D0AB6ADBB27BB3FA1D01212046FFF7BA
:101DEC0013FF38E02368384A0121324805F01BFB09
:101DFC002368FA79E2B907F1080504F1200C206890
:101E0C00083454F8041C2A46644503C21546F6D11E
:101E1C007A6A002E45D0C2F3080121B96FEA52222A
:101E2C006FEA42227A6207F108011846FFF7A0FD1B
:101E3C002837BD46BDE8F081AB6A13F47F4F04D060
:101E4C00F91D0120FFF724FE05E0AB6AB3F5803FD6
:101E5C009AD3FFF785FE0346CBE7FA1D0021BDE7B9
:101E6C00F91D0020EEE719498BE718F4F87F184AA2
:101E7C00E8468AB0174B18BF13466A461649103D00
:101E8C00C2E905134FF40073D5611384134B42F868
:101E9C00103F00234FF411510648FFF7A5FAC54631
:101EAC0072E722F4FF7222F00102BBE700ED00E0C2
:101EBC0028A100084495000853A100086AA1000855
:101ECC008BA1000899A10008B8A10008D4A10008B2
:101EDC000FA10008FAA00008F8A1000804000001F6
:101EEC00044B5A6942F010025A615A6922F00802F6
:101EFC005A61704700ED00E0EFF30880EFF30981C1
:101F0C0001B57246FFF702FF01BD00BF0A4880F31E
:101F1C000888102080F3118808484FF40461401899
:101F2C0080F30988EFF314800221084380F31488AE
:101F3C00BFF36F8F00F08EF840210024800F002437
:101F4C00084B9B6883420BD1EFF3058343B1064BDF
:101F5C005A6842F080525A605A6A22F400425A621D
:101F6C0004F014B8040C002400ED00E014498A6855
:101F7C004FF030001044EFF3098C80E8F01F102074
:101F8C0080F31288BFF36F8F0E4F4FF000664A69D3
:101F9C008A603E60106F0C4C2060506F00235367BA
:101FAC0080F3118804B5104600F064F9BDE80440D4
:101FBC0002F1300090E8F01F8CF3098870470000A4
:101FCC00040C002404ED00E0200900241EF0040F92
:101FDC000CBFEFF30880EFF30980816911F8021C44
:101FEC000229FFD001B5724605F0DAFA01BD00BF37
:101FFC0000B2002807DB0123410900F01F00024A50
:10200C00834042F82130704700E100E000B201311A
:10201C0000284FEA0111C9B206DB00F1604000F55F
:10202C00614080F80013704700F00F00014B195409
:10203C00704700BF14ED00E0044B054A23F07F030A
:10204C009360BFF34F8FBFF36F8F70470000000892
:10205C0000ED00E008B5FFF7EFFF0C4AD2F888302E
:10206C0023F47003C2F88830EFF3148323F00403D5
:10207C0083F31488BFF36F8F03F0CAFA04F0ACF843
:10208C0000F056F805F0B6FA03F010FB00ED00E096
:10209C0042F8203C203A009B07495360019B21F0F9
:1020AC0001019360029B9161D3604FF08073D36107
:1020BC0000230265436770476D0D0008094A03460B
:1020CC00906870B113F1160F006E05D0A0F14002AC
:1020DC009A4205D8834203D2814228BF0020704720
:1020EC0000207047040C002415460C4A0E4608B517
:1020FC000B4B9060026F1A6000F0BCF82C4686F314
:10210C0009880020034B9847204600210022002319
:10211C00014C2047D97500086D0D0008040C0024F3
:10212C0020090024014B10221A61704700ED00E0D9
:10213C00002304481021C2180133A32B82F800138A
:10214C00F9D1704700E100E008B5EFF30583064ACA
:10215C00103B02EBC30152F8330049688847BDE8D5
:10216C000840FFF785BC00BF0C8F0008154A70B5FE
:10217C00536913F4803323D1C2F88430BFF34F8FEB
:10218C00D2F8803043F6E074C3F3C900C3F34E3386
:10219C005B0103EA0406014646EA81750139C2F87F
:1021AC006052F9D2203B13F1200FF2D1BFF34F8FC5
:1021BC00536943F480335361BFF34F8FBFF36F8F79
:1021CC0070BD00BF00ED00E0002910DD00F01F0322
:1021DC000B44BFF34F8F07490344C1F8680220300A
:1021EC001A1A002AF9DCBFF34F8FBFF36F8F002050
:1021FC00704700BF00ED00E0002910DD00F01F0368
:10220C000B44BFF34F8F07490344C1F85C022030E5
:10221C001A1A002AF9DCBFF34F8FBFF36F8F00201F
:10222C00704700BF00ED00E00B4B5A6912F400320E
:10223C0011D1BFF34F8FBFF36F8FC3F85022BFF391
:10224C004F8FBFF36F8F5A6942F400325A61BFF35C
:10225C004F8FBFF36F8F704700ED00E0024B0121F1
:10226C00024A034800F08AB800000524000000244C
:10227C0070960008026E4021044B403A18461A60D2
:10228C00034AC3E90112012100F082B82409002499
:10229C0000000B1508B503461048D0F89020C2F387
:1022AC000722013A934207D90D4801210D4A05F046
:1022BC00BAF86FF0150008BDC0F898300A6822F023
:1022CC001F021A4342F01002C0F89C208A6842F0A8
:1022DC000102C0F8A0201846EDE700BF00ED00E0B9
:1022EC003C9500080FA20008F0B50E4685B01F46BD
:1022FC0004460025B5420DDA606810B397B1431E51
:10230C0018420AD0104A2B460121104805F08BF8D0
:10231C006FF01502104605B0F0BD1F28F2D92168E8
:10232C000B42EFD1236801A9019305F064F9A3686E
:10233C000343D0B20393FFF7ADFF10F1160FE7D0B4
:10234C00421C01350C34D5E735A200083C95000839
:10235C00044B0522C3F89420BFF34F8FBFF36F8F4C
:10236C00704700BF00ED00E0BFF35F8F024B00220F
:10237C00C3F89420704700BF00ED00E010B5034C8B
:10238C0001232278FFF7B0FF207010BD330C00241E
:10239C000B4A08B500231278FFF7A6FF10F1160FB1
:1023AC0007D0084A0021D2F89030C3F30723984293
:1023BC0000DB08BDC2F898000130C2F8A010F2E7AB
:1023CC00330C002400ED00E0584859492DE9F04346
:1023DC00D0F8903085B00D68C3F307239D4200F20E
:1023EC00A180FFF7C1FF49680022954201F10C0161
:1023FC001AD1504C6846504F2570FFF7B3FA0025A0
:10240C000646DFF83881DFF83891AE421FD12378C9
:10241C0000204649D1F89020C2F3072293427BDB7F
:10242C000020FFF795FF4CE0C0F8982051F80C3CC9
:10243C0023F01F031343013243F01003C0F89C3008
:10244C0051F8043C43F00103C0F8A030CDE70098EC
:10245C004FEA051C00EB0511CB683B40B3F5000FB0
:10246C0044D00AD8B3F5001F2ED0B3F5800F34D06A
:10247C00B3F5801F10D00135C7E7B3F1807F3ED094
:10248C00B3F1007FF7D150F80C30886805F0B3F841
:10249C004A6840F4802009E050F80C30886805F058
:1024AC00AAF840F088504A6840F43020039001A903
:1024BC002078CDE90123FFF7EDFE002828DA6FF034
:1024CC00150005B0BDE8F08350F80C30886805F0B5
:1024DC0092F84A6840EA0800E8E750F80C3088683F
:1024EC0005F089F84A6840EA0900DFE750F80C303B
:1024FC00886805F080F84A6840F08270D6E750F89A
:10250C000C30886805F077F84A6840F08870CDE7A1
:10251C00237801332370AEE7C1F898300133C1F84A
:10252C00A00077E74FF0FF30CBE700BF00ED00E0F5
:10253C009C950008330C00240000F0FF00000811EB
:10254C0000000206F0B587B007460E46144600217F
:10255C00102268461D4606F092FA02232A462146AE
:10256C008DF802306846044BCDE90476019304F0F3
:10257C0099F807B0F0BD00BF2376000808B5024BF0
:10258C001B689847002008BD30090024034B044AFF
:10259C001860937843F0020393707047300900245D
:1025AC00100000240649074821F00701C1F1105220
:1025BC0008B502F5A02204F05BFB002008BD00BFAB
:1025CC00C725002434090024044B03EB40000023EE
:1025DC00013320F8022B9942FADC70476801002481
:1025EC002DE9F84306464FF00009114F4FF0010852
:1025FC00347854FA89F5284600F0A6F870B12846CC
:10260C0000F0C8F857F8353043B14C4407EBC5051A
:10261C0004F01F04696808FA04F0984709F10109ED
:10262C0072785FFA89F39A42E2D2BDE8F88300BF70
:10263C0040090024034680B1B0FA80F2C2F11F02B7
:10264C00D2B2074931F912004FF0B042D2F88010E3
:10265C000B43C2F88030FFF7CBBCFF22F1E700BF81
:10266C006801002430B5B0B1B0FA80F3C3F11F0398
:10267C00DBB20B4850F833408C4204D100EBC3055D
:10268C006D68954205D044B940F8331000EBC30097
:10269C004260002030BDFF23EBE76FF00F00F9E73D
:1026AC004009002460B1B0FA80F3C3F11F03DBB220
:1026BC00044A002142F8331002EBC3025160704708
:1026CC00FF23F5E74009002400F003020F23043236
:1026DC0092009340094A43EA900000F0030302334E
:1026EC0052F82320030C93FAA3F3B3FA83F302EA10
:1026FC00104003F01F03D840704700BF000400587F
:10270C0013B50E4C204605F0C9FF40B90C48012109
:10271C000C4A04F07FFE6FF0120002B010BD0223D1
:10272C00F422CDE90023A3681B681BB1694620463F
:10273C009847F2E76FF05700EFE700BF6C8C00088A
:10274C001495000866A2000800F01F0201215F2802
:10275C0001FA02F208B5034605D90C480C4A04F0FC
:10276C0062FE002008BD1F284FF0B04106D8D1F8FA
:10277C0088309A430CBF01200020F3E73F2802D891
:10278C00D1F89830F5E7D1F8A830F2E714950008A5
:10279C0085A2000800F01F0201215F2801FA02F255
:1027AC0008B5034606D90B480B4A04F03CFE6FF003
:1027BC00150008BD1F284FF0B04103D8C1F8882080
:1027CC000020F6E73F2802D8C1F89820F8E7C1F8B6
:1027DC00A820F5E71495000885A20008064B1B6994
:1027EC0003F03803102B05D0182B044818BF002019
:1027FC00400870470248FBE7004402588055C82047
:10280C0000127A00314B10B518680B88C3F30B0318
:10281C000D2B2CD813B96FF0850027E0013B0C2B46
:10282C00F9D801A050F823F0A7280008692800085F
:10283C00AD280008C7280008B32800082328000882
:10284C0023280008B7280008BB280008BF28000868
:10285C00C3280008C3280008C32800084FF4004010
:10286C0010600B68B3F5805F29D2002010BDD42B0B
:10287C000FD003F62873C3F30B031C2BCBD8012406
:10288C0004FA03F3124C234205D140F211142342F3
:10289C00C1D04008E4E78008E2E7FFF79FFFDFE7DD
:1028AC004FF4FA40DCE70B48DAE70B48D8E70B4863
:1028BC00D6E70B48D4E70B48D2E70B48D0E7C3F375
:1028CC0013330133B0FBF3F01060CEE75801002452
:1028DC0000101111006CDC028055C8206015320804
:1028EC00C02A641000B4C40400127A00994B73B56A
:1028FC00D3F8E02042F00072C3F8E020D3F8E020D7
:10290C0002F000720192019A1A6842F480221A6055
:10291C001A6842F480321A601A689003FCD55A6F18
:10292C008C4C42F001025A67636F9907FCD5FEF795
:10293C003FFA236F23F018032367236F43F001033F
:10294C002367236F9A07FCD5FEF750FA2368814A58
:10295C0043F48053236013689B04FCD57E4B9A6927
:10296C0022F440429A619A699604FCD5794B1A6913
:10297C0002F03802182A16D11A68550706D41A68BC
:10298C0042F001021A601A685407FCD5714B1A699F
:10299C0022F007021A611A6912F0380FFBD19A69FA
:1029AC0022F00F029A616B4B1A6822F080721A6047
:1029BC001A6822F080621A601A6822F080521A603B
:1029CC009A6A22F0030242F002029A629A6A22F494
:1029DC007C7242F040029A62DA6A22F00C02DA62ED
:1029EC00DA6A42F00202DA621A6B22F4FF7222F007
:1029FC00010242F489721A63DA6A22F00102DA6285
:102A0C001A6B22F47E421A63DA6A42F48032DA627A
:102A1C001A6B22F4FE0242F440321A63DA6A42F470
:102A2C000032DA621A6B22F0FE4242F080721A63B4
:102A3C00DA6A42F48022DA621A6842F080721A6012
:102A4C001A689001FCD59A6A424C22F47C3242F40A
:102A5C0080529A62DA6A22F0C00242F08002DA6294
:102A6C00DA6A22F02002DA629A6B22F4FF7222F008
:102A7C00010242F009029A63DA6A22F01002DA6269
:102A8C009A6B22F47E429A63DA6A42F40022DA628A
:102A9C009A6B22F4FE029A63DA6A42F48012DA62CA
:102AAC009A6B22F0FE429A63DA6A42F40012DA62FE
:102ABC001A6842F080621A6023681901FCD5274E0F
:102ACC00FFF78CFE0546B04202D8254802F0D8FB31
:102ADC00A369204A23F47063A361A36923F00F0355
:102AEC0043F00803A361E36923F0700343F0400350
:102AFC00E361E36923F4E06343F48063E361A36976
:102B0C0023F0700343F04003A361236A23F07003A6
:102B1C0043F040032362236923F0070343F00303CC
:102B2C002361136903F03803182BFAD1B54202D98B
:102B3C000B4802F0A5FB084B9A6922F440429A61BB
:102B4C009A699204FCD5074B0020074A1A6002B020
:102B5C0070BD00BF0044025800480258BF2A6410E0
:102B6C00C02A6410580100248055C82008B50748B5
:102B7C0005F094FD38B10648FFF708FD0448FEF750
:102B8C00E9F8002008BD6FF01200FBE78C8E0008FE
:102B9C00A12B00080A2838B50446074D04D1AB68B0
:102BAC000D2128465B689847AB68E1B202485B6828
:102BBC009847204638BD00BF8C8E00082DE9F041A7
:102BCC0043681446481E5A69D3F81080824212D9C1
:102BDC00DD69470105EB401600F03EFB074B1B5C23
:102BEC00002043445B689BB26360EB596370B37A1B
:102BFC002370BDE8F0816FF01500FAE7EEA4000831
:102C0C002DE9F041436801F100624C1E0746DD6975
:102C1C00013A1E695B6905EB4215A34227D995F869
:102C2C000980B8F1000F04D00023AB720020BDE87E
:102C3C00F0812146304600F007FC0028F6D02046F3
:102C4C0000F00AFB0B4B21461A5C3046935923F0DB
:102C5C001003935100F020FC2146786804F04EFEDE
:102C6C002146304604F036FE85F80A80DEE76FF028
:102C7C001500DCE7EEA400082DE9F84F99464368EF
:102C8C0092464C1E5A691D69A24212D9D3F81CB047
:102C9C0021462846670104F01DFE06460BEB44183E
:102CAC0000285DD15BF80730012B07D033F002030D
:102CBC0033D06FF015063046BDE8F88FDFF8A8B0BA
:102CCC00204600F0C9FA1BF8003020462B44C3F80C
:102CDC000CA000F0C1FA1BF800302B44C3F808908C
:102CEC0098F808302046DFF880904BB300F0B4FA27
:102CFC0019F80010D8F80C3029440A984A68B0FB2F
:102D0C00F3F3120C120413434B60012321462846A3
:102D1C0088F80A3000F08AFBCDE7DFF84CB020468B
:102D2C0000F09AFA1BF8003020462B44C3F808A098
:102D3C0000F092FA1BF800302B44C3F80C90CFE74C
:102D4C0000F08AFA19F80020D8F810102A440A98D2
:102D5C005368B0FBF1F71B0C1B041F435760D4E7FF
:102D6C006FF00F06A7E700BFEEA4000870B505468C
:102D7C0046681D4C204605F091FC40B96FF01204DA
:102D8C001A4A01211A4804F045FB204670BDA3687D
:102D9C001B683BB9174A012115486FF0040404F075
:102DAC0039FBF2E720463146984704460028F1D11A
:102DBC00B368284698472346224671698B4206D34E
:102DCC002B691A602B695A602B699A60DDE7F169EF
:102DDC0001EB43118A72F169307E01EB4311184407
:102DEC0001334860E9E700BF6C8C0008D2A20008F0
:102DFC00FC940008F1A200082DE9F0410646406859
:102E0C000D46C469076904EB4114637A2BB9A37AA4
:102E1C001BB9BDE8F04104F071BD29463846D4F821
:102E2C00048000F0C3FA70B1637A1BB929463846A6
:102E3C0000F018FAA5690123424661693046AC4698
:102E4C00BDE8F04160472946384600F099FA58B180
:102E5C00237F03B9A372637A1BB92946384600F065
:102E6C0007FAA5690023E7E73846294600F0B4FACB
:102E7C00074640B10C4A01210C4804F0CBFAA56975
:102E8C006FF00403D8E70A4A0121084804F0C2FA9B
:102E9C00A77273682946186900F03EFA29467068D3
:102EAC0004F02CFDEBE700BF02A30008FC94000823
:102EBC001BA300082DE9F04F01F1006395B00D46FE
:102ECC001446013BD0F804B000AF5A01013DDBF8C9
:102EDC001CA0786007F10C003A600AEB4319DBF890
:102EEC00106005F0B8FBDBF81420AA4207D82A467C
:102EFC007B497C4804F0E9FC6FF0150809E099F86F
:102F0C000A205AB12A4678496FF00F08754804F028
:102F1C00DCFC40465437BD46BDE8F08F29463046B0
:102F2C0004F0D8FC804610B12A467049ECE77B6867
:102F3C002946586804F0E2FC628802F47E62B2F51D
:102F4C007E6F0DD1012289F80A2089F80920A26927
:102F5C00C9F81820626989F81C80C9F81420D8E7D0
:102F6C0021694A69B2F5803F01D36149C1E76278B2
:102F7C0052071AD19BF80C00B8B97B686C4688B024
:102F8C001B686A465B49C2E905134FF400739383CF
:102F9C00594B42F8103F4FF4E25103465148FEF7AB
:102FAC0023FAA5466FF08508B3E7A088E288824231
:102FBC0005D0524A01214B4804F02CFA9CE7042A14
:102FCC0004D0501E012801D94D4992E70A7FC2F363
:102FDC008011B1EBD21F01D04A4AEBE701223B68CA
:102FEC0089F80A20A269C9F81820627802F0070251
:102FFC004AF803206269C9F81420A288C9F80C2089
:10300C00E288C9F810202269127FC2F3801289F875
:10301C001C202269126822B93B4A0221314804F073
:10302C00F9F92269526822B9384A02212D4804F074
:10303C00F1F93B6821695AF803000A6801280BBFB3
:10304C003A61FA604A684A680CBFFA603A612268D1
:10305C00C2F3C332032A13D8DFE802F01402160FAE
:10306C004FF480327A63627802F00702012A0ED0A4
:10307C00022A1BD012B326493BE74FF44032F1E74A
:10308C00244936E70022EDE74FF40032EAE740220C
:10309C007A610A7FC2F38101C2F30112012981D046
:1030AC00022910D061B94FF480610DE000227A61E1
:1030BC000A7FC2F30111C2F38102EFE78022F6E727
:1030CC000322154915E70021012A39623FF46AAF42
:1030DC00022A25D0002A00F0A38003220F4908E71A
:1030EC002BA30008FC9400084FA3000866A300085B
:1030FC0087A300089EA3000803000001C2A30008D8
:10310C00E4A3000808A400083EA400085DA400087D
:10311C008DA400087AA40008A1A40008BCA400088F
:10312C000022FA61204699F81C203B681202BA6111
:10313C005AF80320931E5A425A4189F80820A18854
:10314C00002991FAA1F24149B2FA82F208BF4FF07C
:10315C00FF3251F82220E1887A62002991FAA1F21B
:10316C003B49B2FA82F208BF4FF0FF3251F82220ED
:10317C00BA6299F8081000F09FF93864204699F863
:10318C00081000F0BBF922697864507F00F00F0042
:10319C0000F0D6F9F86307F10C0004F039FD226950
:1031AC008000B86399F8081000293CD0A1885269B6
:1031BC002846B2FBF1F2FA622278264C3A6300F010
:1031CC004BF807F10C020146304602F007F828468E
:1031DC0000F042F8215C8A5942F010028A5199F8A9
:1031EC001C303BB1284600F037F8225C935943F071
:1031FC0008039351BB6B2846042B16D100F02CF816
:10320C00235C284633445A6942F004025A6100F0A8
:10321C0023F8235C33445A6942F080025A6178E601
:10322C004FF400727DE7E188C1E700F015F8235CEC
:10323C00284633445A6922F004025A6100F00CF813
:10324C00235C33445A6922F08002E7E79C9600081D
:10325C00A8960008EEA40008014B53F82000704714
:10326C00F4970008014B53F821301847D497000805
:10327C00014B53F821301847B497000808B5044B9C
:10328C0053F821309847003818BF012008BD00BF03
:10329C009497000808B5044B53F821309847003830
:1032AC0018BF012008BD00BF74970008014B53F8EC
:1032BC002130184754970008014B53F82130184718
:1032CC0034970008014B53F8213018471497000825
:1032DC0008B5044B53F821309847003818BF01202B
:1032EC0008BD00BFF496000808B5044B53F8213014
:1032FC009847003818BF012008BD00BFD4960008BD
:10330C0008B5044B53F821309847003818BF0120FA
:10331C0008BD00BFB49600082DE9F04704460D46E1
:10332C0000AFFFF7B7FF294682462046FFF7A6FFFE
:10333C00294681462046FFF7CBFF2946804620468A
:10334C00FFF7D2FF294606462046FFF7D9FF8CB07F
:10335C006A4609490723C2E9051AC2E90798C2E976
:10336C00096042F8103F00234FF463510348FEF705
:10337C003BF8BD46BDE8F087F6A4000804950008AC
:10338C00084A10B552F82120074CA25C835813F060
:10339C00100304D0FFF77EFF00F0010010BD1846AB
:1033AC00FAE700BFF4970008D4A50008084A10B546
:1033BC0052F82120074CA25C835813F0080304D068
:1033CC00FFF75CFF00F0010010BD1846FAE700BFE4
:1033DC00F4970008D4A50008104B114A53F821307B
:1033EC00D35C034470B55B6905460E461B0602D4DC
:1033FC000024204670BDFFF783FF04460028F7D059
:10340C00084A0121084804F005F831462846FFF720
:10341C0083FF3146284604F0ECFBEAE7F4970008FA
:10342C00D4A500081EA5000804950008044B054A05
:10343C0053F82130D25C835843F00103835070471A
:10344C00F4970008D4A50008044B054A53F8213022
:10345C00D35CC05800F00100704700BFF49700081F
:10346C00D4A5000838B50A4B04460A4A53F8213053
:10347C00D25C835823F0010383502046FFF7E4FF0E
:10348C0005460028F9D12046FFF7F2FE284638BD44
:10349C00F4970008D4A50008054B064A53F82130D0
:1034AC00D35C1844436923F080034361704700BF29
:1034BC00F4970008D4A5000808B571B14389082B0E
:1034CC0012D00CD8012B06D0042B10D0094A0121A4
:1034DC00094803F09FFF002008BD0389EFE7102B7C
:1034EC00F4D14FF0C070F7E74FF08070F4E74FF471
:1034FC000000F1E72AA500080495000808B571B191
:10350C000389082B12D00CD8012B06D0042B10D019
:10351C00094A0121094803F07DFF002008BD4389B9
:10352C00EFE7102BF4D14FF4C000F7E74FF4800015
:10353C00F4E74FF40010F1E760A5000804950008CB
:10354C0008B5032807D8DFE800F00B020D040120B2
:10355C0008BD0320FCE7044A0221044803F05AFF8B
:10356C000020F5E70220F3E79AA50008049500086F
:10357C0038B50C4641680F4B0F488D68854218BF13
:10358C000023087BA04207D822460C490C4804F0C3
:10359C0066FB6FF0150038BD08691B6900EBC401B0
:1035AC0050F83400097998470028F4D02246054990
:1035BC00ECE700BFA898000800080240DCA5000852
:1035CC000C950008F6A5000873B50C464168104D23
:1035DC008E681048AE4218BF00200D7BA54208D85B
:1035EC0022460D490D4804F03AFB6FF0150002B06D
:1035FC0070BD0D69069E05EBC40109790096C6687D
:10360C0055F83400B0470028F1D022460449E9E7C8
:10361C0000080240A8980008DCA500080C950008DA
:10362C0022A6000810B542680C460F4B0F49906853
:10363C00884218BF0023117BA14207D822460C49AF
:10364C000C4804F00CFB6FF0150010BD12699B6860
:10365C0002EBC40152F83400097998470028F4D0E1
:10366C0022460549ECE700BFA89800080008024074
:10367C00DCA500080C95000847A6000810B54268A8
:10368C000C460F4B0F499068884218BF0023117BE2
:10369C00A14207D822460C490C4804F0E0FA6FF01E
:1036AC00150010BD12695B6802EBC40152F83400BE
:1036BC00097998470028F4D022460549ECE700BF69
:1036CC00A898000800080240DCA500080C9500082A
:1036DC006AA6000870B545680C46194BA8681949CC
:1036EC001678884218BF0023A97B687B0144B1423D
:1036FC0007DA32461449154804F0B1FA6FF0150098
:10370C0070BD297B8C4202D322461149F3E728690C
:10371C001B6800EBC40150F834000979984728B1B4
:10372C000C4A0121094803F075FEE7E7AB6853F832
:10373C00242022F0FF02324343F82420E0E700BFAC
:10374C00A8980008000802408EA600080C950008F6
:10375C00DCA50008AAA6000838B54568144C20461C
:10376C0004F09CFF38B9134A0121134803F052FEB0
:10377C006FF0120409E0A3681B6843B96FF00404EE
:10378C000E4A01210C4803F045FE204638BD204668
:10379C002946984704460028F0D1AA68084B9A425B
:1037AC00F3D1084804F07AFF0028EED1E0E700BF1F
:1037BC006C8C0008D2A200080C950008F1A200083D
:1037CC0000080240CC8C00082DE9F843D0F80480A6
:1037DC001746D0F810900D46D8F808001E4603F096
:1037EC006EFFB7F5001F044616D1D8F808402846DE
:1037FC00FEF76AFF84420CD1294603F060FF0446B1
:10380C0003F062FF2046FEF74DFF0021204603F037
:10381C0064FF0020BDE8F883B7F5800F20D0B6F127
:10382C00806F19D0B6F1C06F18D0B6F1007F1AD1E5
:10383C0002264A460F492046FEF714FFB0B9D8F8C5
:10384C000810284603F072FF2046314603F045FF6E
:10385C002046FEF7EFFEDCE70126EAE70326E8E761
:10386C006FF08500D6E76FF01500D3E76FF00F000F
:10387C00D0E700BF817E000838B503690446586064
:10388C000A4D284604F00AFF60B1AB6861681B68FA
:10389C000C3123B12846984700EAE07038BD6FF030
:1038AC005700F9E76FF01200F8E700BF6C8C0008C6
:1038BC0041680B685A69500607D50C4802680132FA
:1038CC0002609A6942F040029A610B685A6992064A
:1038DC0007D507490A6801320A609A6942F020024A
:1038EC009A61044A1368013313607047B40B0024C7
:1038FC00B00B0024B80B002438B54D6804462A6878
:10390C00936823F4004393602A68136923F04003FF
:10391C0013612A68136923F0200313612A68136961
:10392C0023F480731361D0E902018368DB68984744
:10393C00A16C21B1E06B04F0F9FE0023A3646420B8
:10394C0004F09CFE2B6800211A6822F001021A6018
:10395C001A6D22F001021A65024BE26843F822103C
:10396C0038BD00BFBC0B0024F0B500224E6887B0F8
:10397C0004460F46002300F14801C06B01F00EFF16
:10398C00051E29DB94F84D30326843B3136D23F0D8
:10399C000E0343F006031365264BE168226C43F8D3
:1039AC0021703368049294F82F203033039294F8EA
:1039BC002E200292A26C019294F82D20009204F118
:1039CC001002A06804F0D6FA051E0EDA1A4A2B462D
:1039DC0001211A4803F027FD284607B0F0BD136DEE
:1039EC0023F00E0343F00203D5E7326800259368F9
:1039FC0043F4804393603268136943F040031361CE
:103A0C003268136943F0200313613268136943F47D
:103A1C008073136133681A6D42F001021A651A68DB
:103A2C0042F001021A603268136843F400731360A9
:103A3C00D2E700BFDC0B00247EA700081C95000811
:103A4C0038B54D6804462A68936823F48043936024
:103A5C002A68136923F0400313612A68136923F061
:103A6C00200313612A68136923F480731361D0E96E
:103A7C0002018368DB689847A16C21B1E06B04F00C
:103A8C0055FE0023A3642B6800211A6822F0010262
:103A9C001A601A6D22F001021A65024BE26843F8B3
:103AAC00221038BDDC0B00242DE9F74313781446A3
:103ABC009278112B4568076934BF102320235207D5
:103ACC0014BF6278022211B1012905D15837396827
:103ADC0001290DD9754903E0022900F0E3807449EE
:103AEC00744804F095FA6FF0150003B0BDE8F0834C
:103AFC00012107F1340887F84D10E17811F0060C1C
:103B0C000CBF0121002187F84D10666856B9384664
:103B1C0004F0F4F914223146404604F0B0FF0020C2
:103B2C003E60E2E7214604F1140651F804EBB14281
:103B3C0048F804EBF9D16668BCF1000F24D106FB00
:103B4C0003F195F814C05143BCF1000F1CD0102B9D
:103B5C004FF0010814BF042608264E43D0F80490F9
:103B6C0000235548D9F808200193012A8368D9F815
:103B7C000410DB681ED908315BB950494D4804F07C
:103B8C0047FA6FF00400B0E75E434FF0000856436D
:103B9C00E4E701AA98470028EFDB019B03EB5603EF
:103BAC00B3FBF6F303F00101C3F34603012B09D871
:103BBC00434995E70BB94349E0E701AA9847002828
:103BCC00EBDAF8E7D9F80000026D22F47F0242EA42
:103BDC0003430365D9F80020136D23F0807343EA87
:103BEC00016313652B681A6DB8F1000F14D042F005
:103BFC0000721A652378102B11D12A68136D23F4E7
:103C0C008E431365A37803F00703042B48D8DFE831
:103C1C0003F01A2D3439400022F00072E9E7182B1A
:103C2C0006D12A68136D23F48E4343F4A063E8E7AE
:103C3C00202B06D12A68136D23F48E4343F4C06302
:103C4C00DFE721494CE72A68136D23F0B0031365B5
:103C5C000126A2782B6802F03002102A1A6D0CBFD4
:103C6C0042F4006222F400621A6558E72A68136D68
:103C7C0023F0B00343F03003E9E72A68136D43F0F7
:103C8C00B003E4E72A68136D23F0B00343F010038C
:103C9C00DDE72A68136D23F0B00343F02003D6E769
:103CAC000A491DE76FF057001FE700BF35A9000850
:103CBC00A2A700081C9500086C8C0008CDA7000872
:103CCC0029A80008FBA7000853A8000865A800084D
:103CDC0070B50D460469436811B1012908D15834F7
:103CEC00042A00F29B80DFE802F00D2E59808E0032
:103CFC00022900F095804C494C486FF0150504F0F2
:103D0C0087F917E02668012E08D0494A334601216D
:103D1C00464803F088FB6FF004050BE00146236D69
:103D2C0020469847051E07DA424A2B4631463F4843
:103D3C0003F079FB284670BD02232360002384F82E
:103D4C004C300025F6E7EFF311821021164681F373
:103D5C001288BFF36F8F2168022908D082F3118873
:103D6C00BFF36F8F3449314804F052F9D3E71B6825
:103D7C005B6913F480530CD0636D01462046984761
:103D8C000123236084F84C3086F31188BFF36F8FC6
:103D9C00D7E70322226084F83030F5E7EFF3118681
:103DAC00102282F31288BFF36F8F2268022A05D08B
:103DBC0086F31188BFF36F8F2049D4E7012D10D102
:103DCC006268126A4AB91B685B69DB0405D5014657
:103DDC00636D204698472560D6E7032323600123B3
:103DEC00D9E7002DC3D0164986E723680BB91549CE
:103DFC00B9E7636D014620469847204604F07EF8EB
:103E0C00012323609DE72368042B01D00E49AAE708
:103E1C0001232046236004F071F892E70B496BE70D
:103E2C006FF0570586E700BFA2A700081C95000895
:103E3C0081A80008A1A80008B9A80008D5A8000806
:103E4C00F2A8000808A9000824A9000843A9000842
:103E5C00F0B589B04E6804460F46002300F14801C6
:103E6C0007AA406804F034F8051E2DDBA06C0799F6
:103E7C00FEF7AAF994F84D30326843B3136D23F072
:103E8C000E0343F00403136504F11002E168244BA4
:103E9C0043F82170236C049394F82F30039394F817
:103EAC002E30029333682033019394F82D30009315
:103EBC00A36CA06804F05EF8051E0CDA194A2B46B8
:103ECC000121194803F0AFFA284609B0F0BD136D73
:103EDC0023F00E03D7E732680025936843F40043C0
:103EEC0093603268136943F04003136132681369BD
:103EFC0043F0200313613268136943F48073136138
:103F0C0033681A6D42F001021A651A6842F0010218
:103F1C001A603268136843F400731360D4E700BF6F
:103F2C00BC0B00245FA900081C9500081F49002B3E
:103F3C00F0B551F8225085B06F682C6908DA04236B
:103F4C0023602946204605B0BDE8F040FFF778BD58
:103F5C002368042BF5D00022002304F14801E06B08
:103F6C00A66C01F01BFC0028E9DB3A68236C3032AC
:103F7C000093A36CD4E9020104F04EF80028E0DBB6
:103F8C00216C3046FEF738F9236C6068CDE902638A
:103F9C000022002302A904F018FC0028CFDB2368C0
:103FAC00032B01D10123CBE705B0F0BDDC0B0024C2
:103FBC002DE9FF412B491D1E51F822603469D6F8BA
:103FCC00048004F1580701DA042320E0D4F8A0108F
:103FDC00D4F8940004F0AAFB0023C4F8A030A36D1D
:103FEC00042B0AD12049214804F012F831463846F6
:103FFC0004B0BDE8F041FFF77FBC032B0DD165B9D0
:10400C00E36D1B6A2BB9384603F078FF0123A365D7
:10401C00ECE794F88830002BF8D094F8A430002BFF
:10402C00F4D103AA04F1A001E06D03F051FF0028C4
:10403C0003DAA36D032BC7D1E8E7D4F8A0000399EA
:10404C00FEF7C2F8D8F80030039A20330092D4F867
:10405C00A020D4E9180103F0DFFF0028C6DB04B070
:10406C00BDE8F081BC0B002483A900081C95000856
:10407C002DE9F04782B000230546066900AFD0F861
:10408C00048086F88830D0F804A0544C204604F004
:10409C0005FB08BB5249534803F0BAFF6FF01203FB
:1040AC006C468AB06A46504951615049C2E90613C0
:1040BC004FF4007313844E4B42F8103F00234FF41F
:1040CC0011514848FDF790F9A5466FF004042046BD
:1040DC000837BD46BDE8F087D4F80890DAF804102C
:1040EC00D9F8003033B943493E4803F091FF6FF0E3
:1040FC000403D5E72046984702460028F3D1DAF8A6
:10410C000830012B0BD9DAF80410D9F81830083123
:10411C000BB93949E8E7204698470028F9DB3A1DE6
:10412C000021D8F80C0003F08EFF041E07DB7B681F
:10413C0000221979186800F06DF8041E06DA2F4A6F
:10414C0023460121274803F06EF9C0E7D8F8103058
:10415C002846984720220021294804F090FC202270
:10416C000021284804F08BFC306E04F097FA0346CB
:10417C00B0B9326E6C4688B011686A462248C2E902
:10418C0005014FF400719183204942F8101F4FF440
:10419C00E2511448FDF728F9A5466FF0120496E792
:1041AC00B06804F07BFA034608B9B268E2E76C46E3
:1041BC0088B02B686A461649C2E905134FF40073A0
:1041CC009383124B42F8103F00234FF4E6510548FD
:1041DC00FDF70AF9A546002479E700BF6C8C0008AE
:1041EC00D2A200081C950008D5A900082FAA000827
:1041FC000400000195A90008B0A90008F3A9000863
:10420C00DC0B0024BC0B002411AA000803000001E5
:10421C0025AA00082DE9F047044600EBC10600254D
:10422C001C4FB44201D1002014E02068C30600F0FA
:10423C001F0911D4656845F02005C0F3481AC0F376
:10424C004420102823D857F82080B8F1000F0DD146
:10425C006FF01200BDE8F087B9F1100F04D0B9F17E
:10426C00110FEAD16568E8E73025E6E7404604F02F
:10427C0015FA0028ECD04B462A460AF00F014046AE
:10428C0003F00EFE002804F10804CADAE2E76FF02E
:10429C001500DFE7E8990008012912D0022907D0A0
:1042AC0089B90068094BC01A18BF01200003704778
:1042BC000068064B984214BF4FF440504FF4005026
:1042CC007047002070474FF400507047000C0058A6
:1042DC0070B51D460026094B6C0833F81220334686
:1042EC00FBF7EEFF2A460902334641EA1061000251
:1042FC00201841F10001FBF7E3FF70BD9C9B000807
:10430C002DE9F04383B006460C460269436800AFC2
:10431C0010681D68D9688368DB6843B9334A01218A
:10432C00334803F077F80C37BD46BDE8F0833A1DEF
:10433C0098470028F2DB2F4B9D4248D1D7F80480D8
:10434C000025DFF8B4902346AAB240460021FFF7BF
:10435C00BFFFA0F54070484518D901350C2DF2D19E
:10436C006D468AB033686A462449D461C2E90513A4
:10437C004FF400731384224B42F8103F00234FF488
:10438C0011511B48FDF730F8AD46CCE7194EF36AD6
:10439C0023F00F032B43F362002CC4D0194B40467F
:1043AC0033F8152000231946FBF78AFF2246090231
:1043BC00630841EA10610002C0184FF0000341F19C
:1043CC000001FBF77DFFC0F31300F060ABE72B6837
:1043DC0023F400432B607B68002CA4D003EB540324
:1043EC00B3FBF4F39BB2EB609DE700BFFBA70008A7
:1043FC0064950008000C0058FFFC0F006FAA000821
:10440C00040000019C9B00082DE9F84306460A793C
:10441C0040680D463369012A04685F686BD0931EAF
:10442C00D3F1000848EB03084FEA88286979FFF7B5
:10443C0033FF95F806900346B9F1020F5ED0B9F13F
:10444C00040F5FD0002A67D0033A012A5CD94FF4DD
:10445C008050B3F5805F61D0B3F5405F60D0002B26
:10446C000CBF0123032399424ED1414603F037FE82
:10447C00814549D1EB795BB3012B53D12B4B9C423A
:10448C0026D0A3F54C439C4222D003F580639C427A
:10449C001ED003F580639C421AD003F580639C42C6
:1044AC0016D003F544439C4212D0A3F51C439C4206
:1044BC000ED003F580639C420AD003F51C439C424A
:1044CC0006D003F580639C4202D0194B9C421BD151
:1044DC0023682946304623F00103236003F0B6FE1F
:1044EC00236843F00103236095E8030087E8030089
:1044FC000020BDE8F8834FF4C06897E73AB94FF055
:10450C008050A6E7002AA2D06FF08500F1E7033AAD
:10451C00012AF9D900209CE710469AE70023A2E76C
:10452C000223A0E7032BA9D0EEE700BF0010014047
:10453C00000C00582DE9F04182B00646456804692C
:10454C0000AF7048206004F0A9F838B96E4A012118
:10455C006E486FF0120402F05DFF0BE02068E96812
:10456C0083681B685BB96FF05704694A012167487F
:10457C0002F050FF20460837BD46BDE8F081984751
:10458C000446E8B93A1D0021286A03F05CFD041EBC
:10459C00F0DB7B68002219791868FFF73BFE041EDC
:1045AC00E8DB756833692C68D3F80480236823F042
:1045BC0001032360686804F071F848B9554AC6E7EE
:1045CC00534A0121514802F025FF002CD2DBD9E7D8
:1045DC00D5E901018368DB6803B1984754E8003FD3
:1045EC0043F00C0344E80032002AF7D14146304630
:1045FC0003F02CFE2B7D1BB1A36843F00803A360D2
:10460C006B7D1BB1636843F400436360AB7D1BB1EE
:10461C00636843F480336360EB7D1BB1636843F4E0
:10462C00003363602B7E002B5AD03B4B9C423DD019
:10463C00A3F54C439C4239D003F580639C4235D0A2
:10464C0003F580639C4231D003F580639C422DD0EE
:10465C0003F544439C4229D0A3F51C439C4225D02E
:10466C0003F580639C4221D003F51C439C421DD072
:10467C0003F580639C4219D0284B9C4216D06C46A3
:10468C0088B033686A462649C2E905134FF40073B3
:10469C009383244B42F8103F00234FF4E2511B4804
:1046AC00FCF7A2FEA5466FF0150463E773681A6861
:1046BC00936843F48043936023686A7E23F0787395
:1046CC0043EA425323602368AA7E23F4F81343EA97
:1046DC0002432360EB7E1BB1A36843F40043A36049
:1046EC002B7F1BB1236843F000532360236843F0F6
:1046FC0001032360E3699A02FCD5E3695B02FCD5F4
:10470C00002437E76C8C0008D2A2000864950008DE
:10471C0086AA0008A6AA000800100140000C005848
:10472C00C1AA0008030000012DE9F84F804600AF34
:10473C00D0F8109044684B4D284603F0AFFF50B9A9
:10474C00494A0121494802F065FE6FF012042046E7
:10475C00BD46BDE8F88F2369012B12D9AB6861699E
:10476C009B69083153B1002228469847041E08DA89
:10477C003F4A01213D4802F04DFEE8E76FF0570437
:10478C00F6E7D9F808604FF0010AD9E9023203EBD9
:10479C00C2039E4225D3484603F03BFF0121D8F8C3
:1047AC00040003F00DFF041E02DA14F1860FCED1C3
:1047BC00D8F804600021304603F002FF041E0DDB24
:1047CC00AB6871691B68002B48D026489847044693
:1047DC0020B1284A0121254802F01CFE04EAE474A9
:1047EC00B5E7306803F05AFF0346B0B932686C463F
:1047FC008AB0317910686A46D1614FF400711E4D50
:10480C0011841E49C2E9055042F8101F4FF4115192
:10481C001648FCF7E9FDA54697E730683179F3882F
:10482C00DA0704690AFA01FBD0F808C054BF43F454
:10483C00B01383F4D013D4F800E023F48012DB0718
:10484C004CBF4BEA0E032EEA0B032360DCF800305E
:10485C009847041EFFF67BAF083696E76FF05704B7
:10486C00B7E700BF6C8C0008D2A200084C9500087A
:10487C001EAB000864AB000840AB0008040000014C
:10488C002DE9F04F8FB081460E46924600AF046979
:10489C00BB604368D3F80080FB601AB9BB68002B7F
:1048AC0000F07783B388980400F1E5804FF0FF3275
:1048BC004FF0FF3304F1100001F09CF86660D9F85A
:1048CC00103007F11805DFF8B8C27B60D9F804B0D6
:1048DC00BCE80F000FC59CE80F0085E80F007A6854
:1048EC00DBF800501268B388964240F0D08019056E
:1048FC0008D5BAF1000F00F0C7804FF4C12128464B
:10490C0003F03FFDB3885146BA682046C3F3451304
:10491C00082B0CBF0123022303F058FDD8F80050DC
:10492C00D8F80C3005F4006503F4C0231D43FB6874
:10493C001B7EFBB1B388DA071CD4002D40F0A68196
:10494C005146304603F01AFEB0F1000AC0F2A780BF
:10495C00B968304603F012FE0028C0F21883824575
:10496C00B8BF8246D8F804301B0C1B0443EA0A0378
:10497C00C8F80430D8F8003043F00103C8F8003010
:10498C00D8F80C305B0200F18E81012003F076FE2A
:10499C00D9F810603068002840F091812368FA68DB
:1049AC009B881668D80700F1C881137E002B00F095
:1049BC00A4813368F26803F4006A02F4C0234AEA63
:1049CC00030ABAF5C12F40F087817369990700F18A
:1049DC008F81FB681E68736913F4787300F03D8255
:1049EC006D468AB06A46674951616749C2E9061348
:1049FC004FF400731384654B42F8103F00234FF4BF
:104A0C0011516348FCF7F0FC7369AD465B0603D5A6
:104A1C00B36943F04003B3616FF0040AD9F8048022
:104A2C00D9F81060D8F800506B69DB0700F17F8271
:104A3C00EB68580200F17E826B69990503D5AB696E
:104A4C0043F40073AB6198F818102B68EA680029DE
:104A5C0000F08B82AB6943F01003AB61AB6943F0A0
:104A6C004003AB61AB6943F00803AB616B681B0C93
:104A7C001B046B6082E2A369002B7FF417AF6368A1
:104A8C009E427FF413AF1AE74FF4C02137E7C3F30C
:104A9C004512082A13D0102A11D06FF0850A23680A
:104AAC0013B19B889B0405D40023636004F11000B0
:104ABC0000F06CFF50463C37BD46BDE8F08F1A0441
:104ACC0005D5EB6823F4601343F40023EB60314805
:104ADC00DBF810208368012ADBF81410DB682FD96F
:104AEC0008313BB92C4A012129486FF0040A02F025
:104AFC0091FCD4E707F1140298470028F2DB79699E
:104B0C000123306821FA03F2824222D90133092BA6
:104B1C00F8D16D468AB06A46204BC2E905304B0885
:104B2C00090AD3610523116242F8103F00234FF4A8
:104B3C00215117486FF0150AFCF756FCAD46AEE74D
:104B4C000BB9174ACFE707F1140298470028D6DAB9
:104B5C00F7E72A6807F1380122F0010201EB830321
:104B6C002A60AA6853F8243C22F0E0421343AB605D
:104B7C00B3889B0716D4EB6823F0007315E000BFD5
:104B8C007C95000806AC000811AC0008040000017C
:104B9C004C9500086C8C00087FAB0008D7AB000864
:104BAC00ABAB0008EB6843F00073EB60B38813F019
:104BBC00040FEB6814BF43F0807323F08073EB6039
:104BCC00B18811F4006104D0BAF1000F52D04FF447
:104BDC00C121284603F0D5FBB38813F0100FEB6806
:104BEC0014BF43F4000323F40003EB60AB6823F41D
:104BFC008003AB60B268B388002A3ED0D80706D4D5
:104C0C00EB68D90003D42B6843F480532B60EB681A
:104C1C0023F0105343F08063EB60B38813F0010F63
:104C2C00EB6814BF23F4800343F48003EB60B38878
:104C3C00C3F34513082BAB6823F01F030CBF43F0E1
:104C4C00070343F00F03AB60EB68DBF80C2023F099
:104C5C000F031343EB60EB68DBF8082023F0F00341
:104C6C0043EA0213EB60AB6823F4F073AB607B6830
:104C7C001E6047E64FF4C021ABE713F0010FEB6861
:104C8C0023F0105308BF43F00053C5E7B5F5C12F0F
:104C9C0030460CBF5146B96803F070FC00288246C0
:104CAC00BFF660AEFBE6D8F8003043F40073C8F8EA
:104CBC000030D8F800309E053FF567AEF9E7836801
:104CCC00002B3FF46BAE0121083003F08EFC3368EF
:104CDC00186903F0D3FC61E67369DA0703D5214642
:104CEC00304603F0F9FBBAF5C02F7FF46EAE70E6D8
:104CFC002146304603F0A7FB6BE63368F26803F4F9
:104D0C00006A02F4C0234AEA030ABAF5C02F08D19C
:104D1C00FB6818684369DE07FCD5214603F0DCFB11
:104D2C0057E673699B07FCD52146304603F08BFB95
:104D3C00BAF5C12F3FF44DAEEAE77269910769D518
:104D4C00A26C002A66D0C3F34513626C082B4CD1BD
:104D5C00137886F82030A36C9BB1013BA364002B25
:104D6C003DD1636B08336363A36B013BA3630123E6
:104D7C0004F1480204F1380104F1340003F010FB93
:104D8C0060647369DA077FF524AEE36C002B3FF4A3
:104D9C0020AE226D002A3FF41CAE22689288C2F32A
:104DAC004512082A42D196F830201A70236D002B38
:104DBC003FF40FAE013B2365002B30D1E36B08337E
:104DCC00E363236C013B2364012304F1500204F1DF
:104DDC00400104F13C0003F0E3FAE064F9E5636C94
:104DEC00002BCED001336364CBE713883384A36CE0
:104DFC00002BC6D0013BA3643BB9636B08336363E0
:104E0C00A36B013BA3630223B2E7636C002BB8D006
:104E1C000233E8E7336923F002033361B1E7E36C53
:104E2C00002B3FF4D6AD0133E364D2E5328E1A8009
:104E3C00236D002B3FF4CDAD013B23653BB9E36BF8
:104E4C000833E363236C013B23640223BDE7E36C6B
:104E5C00002B3FF4BEAD0233E6E7B5F5C12FA36CD2
:104E6C003CD1002B31D1236D002B57D0304603F0B1
:104E7C0077FB0028FAD1336823F0010333602368F1
:104E8C009B88DD0712D4256C0246AA4230D1C3F3AD
:104E9C00022390FBF3F203FB1202002A37D1726853
:104EAC00B0FBF3F0130C1B04184370604FF4C021DB
:104EBC00304603F066FA336843F001033360F3685D
:104ECC0059021CD4012003F0D9FBD8F80050D8F8B3
:104EDC000C3005F4006503F4C0231D43A36C002BB8
:104EEC007FF45CAD236D002B7FF458AD9A4695E5AD
:104EFC00E16B01EBC201013249680844C5E7336834
:104F0C0043F40073336033689A05DBD4FBE7D8F8BD
:104F1C0000306FF0150AD8F80C307FE5D8F8003067
:104F2C00D8F80C5003F4006305F4C025D5E795F8C8
:104F3C00303079E5284603F013FB0028FAD13368AA
:104F4C00002B3FF479AD9A68002A3FF475AD99882F
:104F5C0011F480597FF470AD186903F08FFB306841
:104F6C004946083003F041FB66E503F4006302F4A4
:104F7C00C0221343B3F5C02F3FF478AD33689B8840
:104F8C00DA043FF58CAD284603F04FFA87E58246EC
:104F9C0085E5D7F808A08DE54FF0E0230F4910B553
:104FAC009C691A6908689B6902F480320C4934B90F
:104FBC0093B903464AB90A681044C01A10BD002BB5
:104FCC0008BF03460AB9A342F5D90A6802440A602D
:104FDC004FF0E0221269EEE70446F3E7000C0024E0
:104FEC00FC0B00240A4B1022002083F823204DF2E6
:104FFC00D862084B1A604DF2D762074B18604FF01D
:10500C00E0235A6198611A6942F007021A617047ED
:10501C0000ED00E0000C0024FC0B0024684620F09E
:10502C0007018D4619B5FFF7B7FF1149114B0868F9
:10503C00D3E90042001942F10002C3E900020E4A12
:10504C0000230B604DF2D863D2E90041001BB0FB8A
:10505C00F3F043431B1941F10001C2E9003101F0A7
:10506C00A1F9FCF705FDBDE819408546704700BF66
:10507C00FC0B002430070024280700242DE9F04104
:10508C00DFF8E08099B1421C0BD14FF0E02213699C
:10509C0023F0010313614FF07F43C8F80030BDE8E3
:1050AC00F081D8F80060012807DC00270BE0431CD6
:1050BC00D8F80060F7D14FF4987040F23113984251
:1050CC00A8BF1846471EEFF31185102383F31288EF
:1050DC00BFF36F8FFFF760FF234C4FF0E02399690C
:1050EC00D4E9002380184FF0000243F10003C4E917
:1050FC0000031E4B1A601E4B1A68831A2ED44DF2F5
:10510C00D86C0CFB073303F55643D733B3FBFCF7D2
:10511C00131A40F66D520CFB0733934238BF1346FB
:10512C00144A934228BF1346C8F800304FF0E022CF
:10513C00013B90695361002381429361A1EB000311
:10514C00D4E9001238BF9B195B1842F10002C4E984
:10515C00003285F31188BFF36F8FA0E740F66D53D3
:10516C00E2E700BF000C002430070024FC0B0024F5
:10517C00280700248020FF0038B5EFF31185102399
:10518C0083F31288BFF36F8F084B1C68084B1B68A6
:10519C00E41AFFF701FF85F31188BFF36F8F4DF20F
:1051AC00D8632044B0FBF3F038BD00BF30070024B7
:1051BC002807002438B5EFF31185102383F31288E8
:1051CC00BFF36F8F044B1C68FFF7E6FE85F3118865
:1051DC00BFF36F8F204438BD30070024264BF0B549
:1051EC005C5CD2E90237065905193B43176926F472
:1051FC0077263B43576926F47E663B4397693B43CE
:10520C00D7693B43976A3B43D76B3B43176C3B4394
:10521C0033430351D36A93B16E69176B26F00706BB
:10522C003B4333436B610359566B23F0C0733343D9
:10523C0003510359966B23F4C00333430351536852
:10524C0001F18051EB6001F502411368AB606B68B2
:10525C00146A1B0C1B0423436B60084B526AC01A64
:10526C0018BF0120400150F8213023F0FF031343F5
:10527C0040F821300020F0BD3DAC00080000024099
:10528C00024610B578B14F498B6913F440433FD1B6
:10529C004D484E4C1044A04207D28B6903F4404356
:1052AC00B3F5404F51D101207CE04948494C1044A2
:1052BC00A04246D948481044A04244D947488242AB
:1052CC00886900F4404007D9B0F5404FEBD08969AC
:1052DC00012001F440414CE0B0F5404F45D1404B2A
:1052EC001344404A93428CBF002301233E490A6871
:1052FC0022F00F021A430A600A6802F00F029A4267
:10530C005ED0086800F00F00C01A18BF012049E0F9
:10531C0000232C48816901F44041B1F5404F2BD159
:10532C00324933481144814246D92D49A0F57420A5
:10533C001144A0F51070814240D92E498A42D5D92A
:10534C00B1E70223E5E70123E3E78B69002003F4CF
:10535C004043B3F5004F4FF0030319D02649274CB7
:10536C001144A14226D9264918E08969184601F44E
:10537C004041B1F5004FF0E7816901F44041B1F5CE
:10538C00004F10D11F4920481144814214D90020EC
:10539C001E491D4C1144A1420CD91D498A4282D888
:1053AC000028A3D010BD0C491A481144814203D3E4
:1053BC000020D3E70123F3E7022397E7012395E7C6
:1053CC001846A1E7004802587FA77BF340D2DF03C1
:1053DC00FFC4A7F77F1D2C047FE2D3FB801D2C0498
:1053EC003FA901FC7F14EF0300200052BF9412F878
:1053FC00BF56FE03C056FE033FF1E9FDBF0E160279
:10540C00C00E1602FF1E0AFA7FF0FA027F0F05FD8E
:10541C0080F0FA02C0E1E40010B50446FBF714FF7B
:10542C0003480121034A01F0F5FF204603F041F93E
:10543C004495000845AC00082DE9F843044600AF3C
:10544C000D46EFF31188102383F31288BFF36F8F8F
:10545C000428294AE9468AB098BF284B9668117CE3
:10546C006A4694BF53F82030254BC2E9073140F20D
:10547C00013324489384244BC2E9050442F8103FBD
:10548C0000234FF431512148FBF7AEFFCD4645B117
:10549C00EB69C3F3080323B11D4A01211B4801F03A
:1054AC00B9FF2EB1304603F0ACF908B1037803B95B
:1054BC001848E9468AB06A46174BD061C2E90536EE
:1054CC0040F201331384154B42F8103F00234FF484
:1054DC0011510E48FBF788FF29462046CD46FFF7B1
:1054EC009BFF88F31188BFF36F8F3046FCF728FDC4
:1054FC00BD46BDE8F88300BF040C0024709B000877
:10550C0054AC00086AAC0008050000014495000882
:10551C0092AC000862AC0008B3AC000804000001B7
:10552C0038B50A4B53F82040013053F82050A542AF
:10553C0000D838BD606830B1037FDB0701D403F0BD
:10554C00C0F80834F3E723689847FAE7849B00080F
:10555C002A4B0122032070B5294C86B0294D1A70B4
:10556C00FFF7DEFF01F05CF80420FFF7D9FF2646B9
:10557C003034AE4210D3224C00F00EFC224EAC4222
:10558C0026D300F01DFCFBF70DF8204A137B23F00B
:10559C000103137306B070BD54F80C3C059354F81A
:1055AC00103C049354F8143C039354F8183C0293A5
:1055BC0054F81C3C019354F8203C009354E90A2302
:1055CC0054E90C0100F03CFA54F8303C5E65CEE72F
:1055DC00D4E90A23B3F1FF3F08BFB2F1FF3F05D076
:1055EC0052EA0301206803D100F0A6FC3034C6E770
:1055FC003146183000F046FEF8E700BF340C0024AA
:10560C00249400082494000801890008B807002499
:10561C0006480021064A08B5121A03F069F8054835
:10562C00054A0021121A03F063F808BD6802002431
:10563C00380C0024000000200000002070B500236E
:10564C0086B00122144E01930446144D06EBC0168D
:10565C001349CDE904230F22CDE9023214234FF470
:10566C00A07203FB00554FF4C0700E4B00FB0411ED
:10567C003046009500F0E4F9737B0B4A23F00403E9
:10568C00EE602C7473734FF4046304FB0333134404
:10569C006B6006B070BD00BF38070024040C0024FA
:1056AC00C0170024A7870008800F0024BFB5002076
:1056BC00FFF736FF284B83F30888284D0024F0238E
:1056CC00274F85F82230EC772C766C76AC7685F803
:1056DC0020406B6A43F4E0236B62FCF701FCFCF79F
:1056EC0021FD4FF0FF33AB62EB62FCF76DFE1D4DFD
:1056FC00FCF7B4FDFBF70AFD1B4800F01BFA02F0A7
:10570C00CCFFFBF7ADFB0120FFF70AFF0220FFF7F0
:10571C0007FF00F089FB154B15494FF400625D61E2
:10572C002846144B009405930123CDE90144CDE99F
:10573C0003433B4600F084F96A7B0646284622F078
:10574C0004026A7303F099F82046FFF777FF3A4694
:10575C0031462846FCF7C8FCC017002400ED00E0D9
:10576C005D550008B807002438080024040C0024F8
:10577C0040190024A09C000838B50020054C064DAB
:10578C00AC4200D338BD204602F0B6FF0028F9DB4E
:10579C001C34F5E7F0010024F001002473B50C462D
:1057AC00EFF31181102585F31288BFF36F8FC56855
:1057BC005DB125602B68C360836901338361002070
:1057CC0081F31188BFF36F8F11E052EA030603D106
:1057DC006FF00B002560F3E7CDE90023024608309B
:1057EC0000F092FA18B9034B9B681B69236002B056
:1057FC0070BD00BF040C00242DE9F34104460E4695
:10580C009DF8200004F10808EFF31187102181F3B3
:10581C001288BFF36F8F256AE1688D4241D22568EB
:10582C00AC4219D0C5B1284602F0C2FF05F11800F0
:10583C0003F0B9F8A26800243146286903F011F985
:10584C002846AC6703F019F84046394600F07EFA5A
:10585C00204602B0BDE8F081A268A8B13146E069EB
:10586C0003F0FFF8E369A268134462699342E361B1
:10587C0001D12369E361236A00200133236287F39A
:10588C001188BFF36F8FE4E7A16923699942314610
:10589C0004BF6369A361A069801AA06103F0E1F8F9
:1058AC00E9E752EA03010AD00649404689680E61CD
:1058BC003946CDE90023224600F026FAC9E76FF0FD
:1058CC002200DCE7040C0024F7B50446084604F17A
:1058DC000807EFF31186102181F31288BFF36F8F45
:1058EC00216A002939D0A268A16903F0BAF8A3692A
:1058FC00A2682568134462699342A36104BF2369BB
:10590C00A361AC42236A03F1FF33236233D02846F0
:10591C00002D31D002F04CFF05F1180003F043F8D4
:10592C00A2682969E06903F09CF8E369A26828463B
:10593C00134462699342E36104BF2369E361236A00
:10594C00013323620024AC6702F097FF38463146DE
:10595C0000F0FCF9204603B0F0BD52EA030110D070
:10596C0009498968086131463846CDE90023224649
:10597C0000F0CAF9EFE7002086F31188BFF36F8FB0
:10598C00E9E76FF02200F7E7040C002470B5EFF3A1
:10599C001186102383F31288BFF36F8F0468A04223
:1059AC001AD0CCB1002504F11800D4E900321360F0
:1059BC005A60637BA56023F00203C4E9005563734E
:1059CC0002F0F1FF2046A56702F057FF3146084868
:1059DC00BDE8704000F0BAB9D0E902329A4218BF63
:1059EC000133836086F31188BFF36F8F70BD00BFE6
:1059FC00350C002413B5EFF31181102484F31288B5
:105A0C00BFF36F8F846844B1013C846081F31188CB
:105A1C00BFF36F8F002002B010BD52EA030406D111
:105A2C0081F31188BFF36F8F6FF00F00F3E7CDE9AF
:105A3C0000230246014800F067F9ECE7350C00241E
:105A4C0007322DE9F04322F0070285B00E461F46BF
:105A5C00109900F158037F3204460173042122F09F
:105A6C003F0206F1400941733F2AA2F14008C0E908
:105A7C0016334FF0000383600F98E373A073C4E9EF
:105A8C00063305D883F31188BFF36F8F084602DF06
:105A9C00B51820462946FBF7CBFF07300E9B314645
:105AAC0020F00700C4E91898A0662D1A029320462E
:105ABC000D9B2A4601930C9B00933B46FCF7E8FA9E
:105ACC0000236365044B9B6803B1DB6E2846E366D9
:105ADC0005B0BDE8F08300BF040C0024F0B5002530
:105AEC0087B004460595109D04950F9D03950E9D5A
:105AFC0002950D9D01950C9DDDE912760095FFF741
:105B0C009FFFB6F1FF3F08BFB7F1FF3F05D056EA44
:105B1C00070305D1204600F00FFA204607B0F0BD70
:105B2C003A46334604F11800014900F0ABFBF4E7A8
:105B3C000189000840F201138381002310B5C0E9EC
:105B4C001833044600F066FD014B9C6010BD00BF8D
:105B5C00040C0024094A6FF00A01936899670849FC
:105B6C0058674B6843F080534B60002383F31188D4
:105B7C00BFF36F8F9368986F704700BF040C0024BD
:105B8C0000ED00E070B590F90D20437B002A36DB68
:105B9C00D90634D11B4C63F07F0322464373E16971
:105BAC0052F8183F934207D1C0E900210860E06128
:105BBC0011E09942F8D01B68002BF5D090F90E50EB
:105BCC0093F90E60B542F4D0AE42F2DD5968C0E9EB
:105BDC00003108605860A569954200D005B9E568A8
:105BEC00A3685A7BD20604D1DA897F2A01D9AA6923
:105BFC0032B1AB4202D0284600F096FA656170BD16
:105C0C006361FCE7040C002438B590F90D200146C3
:105C1C00437B002A04DA03F07F03437302F0F3FDA5
:105C2C000D4D2A46AB6852F8184F944200D004B977
:105C3C00EC688B4207D05A7BD20604D1DA897F2AD2
:105C4C0001D9A2692AB1A34202D0204600F06CFA15
:105C5C0023466B6138BD00BF040C0024B3F1FF3F39
:105C6C0008BFB2F1FF3F03D00249183000F00ABB65
:105C7C00704700BF0189000870B590F90D200146EE
:105C8C00437B002A04DA03F07F03437302F0BBFD6D
:105C9C004B7B1C4C63F07F0322464B7352F8183F2E
:105CAC00E069934207D1C1E900200160E16111E094
:105CBC009842F8D01B68002BF5D091F90E5093F94F
:105CCC000E60B542F4D0AE42F2DD5868C1E9003046
:105CDC0001605960A569A368954200D005B9E568D3
:105CEC008B4207D05A7BD20604D1DA897F2A01D99C
:105CFC00AA692AB1AB4202D0284600F015FA2B460D
:105D0C00636170BD040C0024F8B50E4B0C461146B3
:105D1C000D4A9868DDE906671060EFF311821022D6
