:020000040800F2
:1000000000120024410C00089D3200082D0C00084D
:100010002D0C00082D0C00082D0C0008000000001D
:10002000000000000000000000000000010D0008BA
:100030002D0C000800000000A10C0008A51C000801
:10004000790E0008790E0008790E0008790E000874
:10005000790E0008790E0008790E0008790E000864
:10006000790E0008790E0008790E0008790E000854
:10007000790E0008790E0008790E0008790E000844
:1002CC0053B94AB9002908BF00281CBF4FF0FF31B1
:1002DC004FF0FF3000F00CB8ADF1080C6DE904CE16
:1002EC0000F008F8DDF804E0DDE9022304B0704703
:1002FC00704700BF2DE9F04786468C460846089E9D
:10030C00154674461946002B40F0C2808542B2FA5D
:10031C0082F245D94AB1C2F1200300FA02FC2EFA4E
:10032C0003F3954043EA0C0C94404FEA154EA8B2E7
:10033C00BCFBFEF8230C0EFB18CC08FB00F943EABF
:10034C000C43994528D9EB1808F1FF3704D299458D
:10035C0002D9A8F102072B44A3EB0903A4B2B3FB07
:10036C00FEFC0EFB1C330CFB00F044EA0344A042E1
:10037C0014D92C190CF1FF3304D2A04202D9ACF1E0
:10038C0002032C44241A43EA07401EB1D440002334
:10039C0034607360BDE8F0874746DDE76346F1E7FC
:1003AC0092BB431B01214FEA154EAFB2B3FBFEFCCF
:1003BC00200C0EFB1C330CFB07F840EA034398455A
:1003CC0062D9EB180CF1FF3004D2984502D9ACF18C
:1003DC0002002B44A3EB0803A4B2B3FBFEFC0EFB00
:1003EC001C330CFB07F744EA0344A7424ED92C19E3
:1003FC000CF1FF3304D2A74202D9ACF102032C4416
:10040C00E41B43EA0040C0E7C2F1200320FA03F1E9
:10041C00954090402EFA03F303434FEA154EAFB2CA
:10042C00B1FBFEFC0EFB1C10190C0CFB07F841EA8F
:10043C000041884504FA02F422D969180CF1FF3006
:10044C0004D2884502D9ACF102002944A1EB080181
:10045C009BB2B1FBFEFC0EFB1C110CFB07F743EA35
:10046C0001439F420ED9EB180CF1FF3104D29F428D
:10047C0002D9ACF102012B44DB1B41EA004192E7AB
:10048C006046E3E76146F7E76046A3E76346B7E7F4
:10049C00834206D916B9002108467BE7C6E900E07D
:1004AC00F9E7B3FA83F78FB9834201D3724508D8C1
:1004BC00BEEB020460EB030301209C461EB9002135
:1004CC0068E73846FAE7C6E9004CF8E7C7F1200CB4
:1004DC00BB4022FA0CF41C432EFA0CF120FA0CF35C
:1004EC00B84001434FEA14490EFA07F5B3FBF9F88B
:1004FC001FFA84FE09FB18300B0C08FB0EFA43EABA
:10050C0000439A4502FA07F240D9E31808F1FF308C
:10051C0004D29A4502D9A8F102002344A3EB0A03A2
:10052C0089B2B3FBF9F809FB183308FB0EFE41EA5C
:10053C0003418E452CD9611808F1FF3304D28E4546
:10054C0002D9A8F10203214443EA0040A0FB02981F
:10055C00A1EB0E014145CE46434602D306D14D4593
:10056C0004D2B9EB020E68EB04030138002EA6D0BE
:10057C00B5EB0E0261EB030101FA0CFC22FA07F356
:10058C004CEA0303F940C6E9003198E74046C5E759
:10059C004346D9E738B50E4C204603F0C5FAA8B14E
:1005AC0022690021A5682046136823F0010313601B
:1005BC004FF420222B68984701216B6920469847FD
:1005CC00002143F6982003F02DFBF5E738BD00BF62
:1005DC003C400008014B1B68184700BF000000247A
:1005EC00014B1860704700BF0000002430B585B087
:1005FC0004460D4610220021684603F08CFB0223B2
:10060C002A4621468DF802306846034B019302F0CE
:10061C00EDFA05B030BD00BFE105000880B5054618
:10062C000E461746984602F051F8DFF82090034624
:10063C0003F0DCFB0446424649F8003039463046AC
:10064C00A84754F8090000F00FFB00BF0800000099
:10065C00054B00205A6822F002025A605A6822F0B8
:10066C0001025A60704700BF0010005CEFF311806C
:10067C00102383F31288BFF36F8F094B1A683AB9B2
:10068C00084A116841F4807111601168C905FCD5E4
:10069C001A6801321A6080F31188BFF36F8F7047AC
:1006AC004C02002400480258EFF31180102383F30E
:1006BC001288BFF36F8F114B1A689AB9104B012235
:1006CC00BFF35B8F53E8001F002904D143E8002CD3
:1006DC00BCF1000FF6D1BFF35B8F80F31188BFF331
:1006EC006F8F7047012A04D106490A6822F4807280
:1006FC000A601A68013A1A60EFE700BF4C02002446
:10070C0048020024004802580C4B0D4A1A600D4A4E
:10071C00D36823F0070343F00203D3600A4B1A6833
:10072C0041F20303B3EB124F06D1084AD2F8083159
:10073C0043F00103C2F80831704700BF44000024A5
:10074C000090D003004802580010005C008000515B
:10075C00014B0360012070479C46000838B50546E4
:10076C000C4699B11048D1E90123096802F07EFDCD
:10077C00E1680E48D4E9042302F078FDE1690C48E5
:10078C0002F074FDA1690B4802F070FD012D05D13A
:10079C00EFF305810848103902F068FD2146284620
:1007AC00BDE8384001F010BC2D4900085D49000837
:1007BC008D4900089D490008CC49000830BFFFF75F
:1007CC00FDBF00BF2DE9F0410B4E0546DFF82C8034
:1007DC00324606EB0807CC1B0949204603F08DFA7C
:1007EC00A019083C4246002103F095FA07F10800D5
:1007FC002C67BDE8F08100BF000000000400000081
:10080C0058460008054B5A699B689A4204D0044A22
:10081C00536843F080535360704700BFD4030024E7
:10082C0000ED00E02DE9F843324D80463248894610
:10083C00174602F01BFDAB6ADE0622D511242F48A9
:10084C0002F014FDAB6A1D0703D512242C4802F0EC
:10085C000DFD284DAB6A980715D52A4802F006FD08
:10086C006E6BAB6A190642D53146274802F0FEFC86
:10087C00B9F1000F03D0AB6A23F08003AB621324F1
:10088C0003E01024DEE76FF015061A4DAB6ADA07A9
:10089C0003D514241D4802F0E9FCAB6A9B0603D572
:1008AC0015241B4802F0E2FC124B9A6AD50602D4BE
:1008BC009A6A90070AD55B68190507D541463046F8
:1008CC0000F08EFA10B180F309880224094B9A6A61
:1008DC00920603D55A6A22F400525A629A6A20464A
:1008EC0042F0FF029A6200233B70BDE8F8836FF080
:1008FC001506C4E700ED00E0E0490008F7490008E0
:10090C002B4A00083F4A0008584A00086F4A000862
:10091C008F4A000810B51D4C1D4802F0A7FCA36AB5
:10092C00990130D51B4802F0A1FC1E20A36ADA0104
:10093C0003D5194802F09AFC1F20144CA36A1B0320
:10094C0003D5164802F092FC2120A36A590303D563
:10095C00134802F08BFC22200C4CA36A9A0303D59B
:10096C00104802F083FC2320A36ADB0303D50E4856
:10097C0002F07CFC2420054A936A6FEA03436FEA79
:10098C001343936210BD1D20D0E700BF00ED00E0C3
:10099C00BF4A0008D84A0008EC4A0008074B000878
:1009AC00264B00084C4B0008674B000870B5244CD4
:1009BC00064624480D4602F059FCA36AD90435D5E5
:1009CC00214802F053FC1720A36A1A0503D51F48CF
:1009DC0002F04CFC18201A4CA36A9B050FD51C483E
:1009EC0002F044FCA16BA36A180407D5194802F065
:1009FC003DFC1EB1A36A23F40043A3621920104CE2
:100A0C00A36A590503D5144802F030FC1A20A36AD6
:100A1C00DA050DD5114802F029FC1B20084A936A0F
:100A2C0043F47F43936200232B7070BD1620CBE7F9
:100A3C00A36A9B04F2D50A4802F018FC1C20EDE7CF
:100A4C0000ED00E0934B0008AA4B00082B4A00086D
:100A5C00BC4B0008D64B0008EC4B0008084C0008B7
:100A6C008F4A00085D4B2DE9F0415F688AB004465F
:100A7C000025C7F3080685F31188BFF36F8F02F0CA
:100A8C007F43B3F17F4F06D102F00C03082B13D137
:100A9C00534802F0EBFB00252C464FF00008F31EE8
:100AAC008DF80780092B00F28780DFE803F00A7BC2
:100ABC007F7785858585858310074CBF0C4601257E
:100ACC00EBE7464E474802F0D1FB8DF80780F36AFE
:100ADC009A0704D5444802F0C9FB002330E0F36ABE
:100AEC00002B01DA4148F6E7F36A5B00F5D5404884
:100AFC0002F0BCFB7369A26943F480737361BFF3AA
:100B0C004F8FBFF36F8F736932F8022C23F480730D
:100B1C007361BFF34F8FBFF36F8F4DF602739A4221
:100B2C0009D0B36ADBB25BB30DF107020121204699
:100B3C00FFF778FE34E021682E4802F097FB23681B
:100B4C009DF80720CAB902AE04F1200720680834CA
:100B5C0054F8041C3246BC4203C21646F6D1099A1C
:100B6C00B5B3C2F3080121B96FEA52226FEA4222EF
:100B7C00099202A91846FFF7F1FD0AB0BDE8F08111
:100B8C00B36A13F47F4F05D00DF107010120FFF775
:100B9C000DFF05E0B36AB3F5803F9ED3FFF7BAFEB5
:100BAC000346CDE70DF107020021C0E70DF1070167
:100BBC000020ECE710488EE717F4F87F0F4B104934
:100BCC00A6F1100218BF19460E4802F04FFB84E73D
:100BDC0022F4FF7222F00102CAE700BF00ED00E030
:100BEC004F4C00087B4C0008934C0008B54C000897
:100BFC00C44C0008E44C0008014D0008364C0008B9
:100C0C00214C0008264D0008044B5A6942F0100292
:100C1C005A615A6922F008025A61704700ED00E0EF
:100C2C00EFF30880EFF3098101B57246FFF71AFF65
:100C3C0001BD00BF0A4880F30888102080F311889A
:100C4C0008484FF40461401880F30988EFF31480CE
:100C5C000221084380F31488BFF36F8F00F08EF8E5
:100C6C000012002440040024084B9B6883420BD1E3
:100C7C00EFF3058343B1064B5A6842F080525A6039
:100C8C005A6A22F400425A6201F026BDD4030024B1
:100C9C0000ED00E014498A684FF030001044EFF387
:100CAC00098C80E8F01F102080F31288BFF36F8F3F
:100CBC000E4F4FF000664A698A603E60106F0C4C14
:100CCC002060506F0023536780F3118804B51046E1
:100CDC0000F0EAF8BDE8044002F1300090E8F01FA3
:100CEC008CF3098870470000D403002404ED00E065
:100CFC00500200241EF0040F0CBFEFF30880EFF33A
:100D0C000980816911F8021C0229FFD001B57246D5
:100D1C0002F0BAFA01BD00BF00B2002807DB0123C4
:100D2C00410900F01F00024A834042F8213070470D
:100D3C0000E100E000B2013100284FEA0111C9B214
:100D4C0006DB00F1604000F5614080F8001370474D
:100D5C0000F00F00014B1954704700BF14ED00E078
:100D6C00044B054A23F07F039360BFF34F8FBFF30F
:100D7C006F8F70470000000800ED00E008B5FFF72A
:100D8C00EFFF0B4AD2F8883023F47003C2F8883096
:100D9C00EFF3148323F0040383F31488BFF36F8FF2
:100DAC0001F0A2F901F0BEFD00F054F801F0EAF9EF
:100DBC0000ED00E042F8203C203A009B07495360CC
:100DCC00019B21F001019360029B9161D3604FF074
:100DDC008073D361002302654367704729060008BE
:100DEC00094A0346906870B113F1160F006E05D0D6
:100DFC00A0F140029A4205D8834203D2814228BF17
:100E0C000020704700207047D403002415460C4A7C
:100E1C000E4608B50B4B9060026F1A6000F044F858
:100E2C002C4686F309880020034B98472046002166
:100E3C0000220023014C2047B93200082906000883
:100E4C00D403002450020024014B10221A61704775
:100E5C0000ED00E0002304481021C2180133A32B3D
:100E6C0082F80013F9D1704700E100E008B5EFF308
:100E7C000583064A103B02EBC30152F83300496864
:100E8C008847BDE80840FFF7BDBC00BFDC40000848
:100E9C00024B0121024A034800F076B800000524F9
:100EAC0000000024AC460008026E4021044B403A7E
:100EBC0018461A60034AC3E90112012100F06EB80A
:100ECC005402002400000B15084AC2F898000B6865
:100EDC0023F01F03034343F01003C2F89C308B68CC
:100EEC0043F00103C2F8A030704700BF00ED00E0F2
:100EFC002DE9F0430E4685B01F4604464FF000091D
:100F0C00DFF85480B14523DA6068D8B13FB1411E97
:100F1C0008421BD11F2819D92368194216D12368FE
:100F2C00019302F0D7F9A3680343D0B20393D8F826
:100F3C009050C5F30725013DA84207D801A9FFF73A
:100F4C00C3FF421C09F101090C34DBE76FF01502F9
:100F5C00104605B0BDE8F08300ED00E0044B05221F
:100F6C00C3F89420BFF34F8FBFF36F8F704700BF50
:100F7C0000ED00E0BFF35F8F024B0022C3F894201A
:100F8C00704700BF00ED00E010B5034C0123227840
:100F9C00FFF7AEFF207010BD000400240B4A08B50B
:100FAC0000231278FFF7A4FF10F1160F07D0084AA0
:100FBC000021D2F89030C3F30723984200DB08BD20
:100FCC00C2F898000130C2F8A010F2E70004002427
:100FDC0000ED00E0544B2DE9F043544C85B0D3F8B0
:100FEC0090302568C3F307239D4200F29A800020BD
:100FFC000C26FFF7BFFF85421AD14D4C68464D4F6A
:10100C002570FFF7A5FB00250646DFF81C81DFF8ED
:10101C002891AE4213D1237800204349D1F8902077
:10102C00C2F30722934276DB0020FFF797FF42E0E2
:10103C00616806FB0011FFF747FF0130DBE7009802
:10104C004FEA051C00EB0511CB683B40B3F5000FD4
:10105C0048D00AD8B3F5001F30D0B3F5800F36D086
:10106C00B3F5801F10D00135D3E7B3F1807F42D0A8
:10107C00B3F1007FF7D150F80C30886802F02AF9F0
:10108C004A6840F4802009E050F80C30886802F07F
:10109C0021F940F088504A6840F4302003902078C1
:1010AC00CDE90123D8F89030C3F30723013B9842D4
:1010BC002AD96FF0150005B0BDE8F08350F80C305C
:1010CC00886802F007F94A6840EA0900E6E750F838
:1010DC000C30886802F0FEF840F0C0604A6840F4BA
:1010EC000030DBE750F80C30886802F0F3F84A68FF
:1010FC0040F08270D2E750F80C30886802F0EAF8C1
:10110C004A6840F08870C9E701A9FFF7DDFE237833
:10111C0001332370A7E7C1F898300133C1F8A00060
:10112C007CE74FF0FF30C6E700ED00E058460008C2
:10113C00000400240000F0FF0000081108B5024B69
:10114C001B689847002008BD60020024034B044A2A
:10115C001860937843F00203937070476002002488
:10116C00040000240649074821F00701C1F1105280
:10117C0008B502F5A02202F01FF8002008BD00BF40
:10118C004712002464020024044B03EB40000023AC
:10119C00013320F8022B9942FADC704754000024EA
:1011AC002DE9F84306464FF00009114F4FF00108A6
:1011BC00347854FA89F5284602F03FF970B1284684
:1011CC0002F057F957F8353043B14C4407EBC505DD
:1011DC0004F01F04696808FA04F0984709F1010942
:1011EC0072785FFA89F39A42E2D2BDE8F88300BFC5
:1011FC0070020024034680B1B0FA80F2C2F11F02E3
:10120C00D2B2074931F912004FF0B042D2F8801037
:10121C000B43C2F88030FFF77FBDFF22F1E700BF20
:10122C005400002430B5B0B1B0FA80F3C3F11F0301
:10123C00DBB20B4850F833408C4204D100EBC305B1
:10124C006D68954205D044B940F8331000EBC300EB
:10125C004260002030BDFF23EBE76FF00F00F9E791
:10126C007002002460B1B0FA80F3C3F11F03DBB24B
:10127C00044A002142F8331002EBC302516070475C
:10128C00FF23F5E77002002400F003020F23043261
:10129C0092009340094A43EA900000F003030233A2
:1012AC0052F82320030C93FAA3F3B3FA83F302EA64
:1012BC00104003F01F03D840704700BF00040058D3
:1012CC0013B50B4C204602F02FFC58B10223F4222C
:1012DC00CDE90023A3681B683BB1694620469847BB
:1012EC0002B010BD6FF01200FAE76FF05700F7E78D
:1012FC00BC3E0008064B1B6903F03803102B05D0CD
:10130C00182B044818BF0020400870470248FBE720
:10131C00004402588055C82000127A00314B10B599
:10132C0018680B88C3F30B030D2B2CD813B96FF073
:10133C00850027E0013B0C2BF9D801A050F823F0D5
:10134C00BF13000881130008C5130008DF13000841
:10135C00CB1300083B1300083B130008CF13000805
:10136C00D3130008D7130008DB130008DB130008A5
:10137C00DB1300084FF4004010600B68B3F5805F7E
:10138C0029D2002010BDD42B0FD003F62873C3F341
:10139C000B031C2BCBD8012404FA03F3124C23426D
:1013AC0005D140F211142342C1D04008E4E7800873
:1013BC00E2E7FFF79FFFDFE74FF4FA40DCE70B486B
:1013CC00DAE70B48D8E70B48D6E70B48D4E70B48CD
:1013DC00D2E70B48D0E7C3F313330133B0FBF3F080
:1013EC001060CEE74400002400101111006CDC02E8
:1013FC008055C82060153208C02A641000B4C4049B
:10140C0000127A00994B73B5D3F8E02042F00072C9
:10141C00C3F8E020D3F8E02002F000720192019AA8
:10142C001A6842F480221A601A6842F480321A60F8
:10143C001A689003FCD55A6F8C4C42F001025A6723
:10144C00636F9907FCD5FFF711F9236F23F018038D
:10145C002367236F43F001032367236F9A07FCD59F
:10146C00FFF722F92368814A43F480532360136801
:10147C009B04FCD57E4B9A6922F440429A619A698E
:10148C009604FCD5794B1A6902F03802182A16D149
:10149C001A68550706D41A6842F001021A601A68D5
:1014AC005407FCD5714B1A6922F007021A611A69AC
:1014BC0012F0380FFBD19A6922F00F029A616B4B34
:1014CC001A6822F080721A601A6822F080621A6020
:1014DC001A6822F080521A609A6A22F0030242F0D3
:1014EC0002029A629A6A22F47C7242F040029A6278
:1014FC00DA6A22F00C02DA62DA6A42F00202DA628A
:10150C001A6B22F4FF7222F0010242F489721A6300
:10151C00DA6A22F00102DA621A6B22F47E421A6352
:10152C00DA6A42F48032DA621A6B22F4FE0242F476
:10153C0040321A63DA6A42F40032DA621A6B22F031
:10154C00FE4242F080721A63DA6A42F48022DA6256
:10155C001A6842F080721A601A689001FCD59A6A77
:10156C00424C22F47C3242F480529A62DA6A22F0C3
:10157C00C00242F08002DA62DA6A22F02002DA62F9
:10158C009A6B22F4FF7222F0010242F009029A6374
:10159C00DA6A22F01002DA629A6B22F47E429A63C3
:1015AC00DA6A42F40022DA629A6B22F4FE029A633F
:1015BC00DA6A42F48012DA629A6B22F0FE429A6383
:1015CC00DA6A42F40012DA621A6842F080621A6037
:1015DC0023681901FCD5274EFFF78CFE0546B04257
:1015EC0002D8254800F024FCA369204A23F4706338
:1015FC00A361A36923F00F0343F00803A361E3691C
:10160C0023F0700343F04003E361E36923F4E063E8
:10161C0043F48063E361A36923F0700343F0400358
:10162C00A361236A23F0700343F040032362236910
:10163C0023F0070343F003032361136903F038031A
:10164C00182BFAD1B54202D90B4800F0F1FB084B2C
:10165C009A6922F440429A619A699204FCD5074B2C
:10166C000020074A1A6002B070BD00BF0044025847
:10167C0000480258BF2A6410C02A64104400002499
:10168C008055C82008B5074802F04EFA38B1064814
:10169C00FFF75CFD0448FEF7A3FF002008BD6FF0C8
:1016AC001200FBE79C400008B91600080A2838B560
:1016BC000446074D04D1AB680D2128465B6898475A
:1016CC00AB68E1B202485B689847204638BD00BF62
:1016DC009C4000082DE9F843D0F804801746D0F858
:1016EC0010900D46D8F808001E4601F051FEB7F5D3
:1016FC00001F044616D1D8F808402846FFF7C4FD51
:10170C0084420CD1294601F043FE044601F045FE0B
:10171C002046FFF7A7FD0021204601F047FE0020E0
:10172C00BDE8F883B7F5800F20D0B6F1806F19D0E3
:10173C00B6F1C06F18D0B6F1007F1AD102264A4616
:10174C000F492046FFF76EFDB0B9D8F808102846AF
:10175C0001F055FE2046314601F028FE2046FFF7E9
:10176C0049FDDCE70126EAE70326E8E76FF0850090
:10177C00D6E76FF01500D3E76FF00F00D0E700BF8E
:10178C009B37000838B50369044658600A4D284653
:10179C0002F0CAF960B1AB6861681B680C3123B107
:1017AC002846984700EAE07038BD6FF05700F9E71B
:1017BC006FF01200F8E700BFBC3E00082DE9F047BF
:1017CC00044600EBC10600251C4FB44201D1002099
:1017DC0014E02068C30600F01F0911D4656845F0B9
:1017EC002005C0F3481AC0F34420102823D857F81A
:1017FC002080B8F1000F0DD16FF01200BDE8F0871A
:10180C00B9F1100F04D0B9F1110FEAD16568E8E70E
:10181C003025E6E7404602F087F90028ECD04B462D
:10182C002A460AF00F01404601F0C7FF002804F1D8
:10183C000804CADAE2E76FF01500DFE79447000806
:10184C00012912D0022907D089B90068094BC01AA6
:10185C0018BF0120000370470068064B984214BF64
:10186C004FF440504FF400507047002070474FF435
:10187C0000507047000C005870B51D460026094BEF
:10188C006C0833F812203346FEF71AFD2A4609027B
:10189C00334641EA10610002201841F10001FEF7C5
:1018AC000FFD70BDD8480008F7B502690C464368B7
:1018BC0010681D68D9688368DB68B3B101AA9847C2
:1018CC00002812DB214B9D4232D1019F0025204E76
:1018DC002346AAB238460021FFF7CEFFA0F5407090
:1018EC00B04204D901350C2DF2D103B0F0BD174E26
:1018FC00F36A23F00F032B43F362002CF5D0154B46
:10190C00384633F8152000231946FEF7D9FC224639
:10191C000902630841EA10610002C0184FF000038D
:10192C0041F10001FEF7CCFCC0F31300F060DCE7E2
:10193C002B6823F400432B60019B002CD5D003EBC8
:10194C005403B3FBF4F39BB2EB60CEE7000C0058EE
:10195C00FFFC0F00D84800082DE9F84306460A7929
:10196C0040680D463369012A04685F686BD0931E8A
:10197C00D3F1000848EB03084FEA88286979FFF790
:10198C005FFF95F806900346B9F1020F5ED0B9F1EE
:10199C00040F5FD0002A67D0033A012A5CD94FF4B8
:1019AC008050B3F5805F61D0B3F5405F60D0002B01
:1019BC000CBF0123032399424ED1414601F061FF34
:1019CC00814549D1EB795BB3012B53D12B4B9C4215
:1019DC0026D0A3F54C439C4222D003F580639C4255
:1019EC001ED003F580639C421AD003F580639C42A1
:1019FC0016D003F544439C4212D0A3F51C439C42E1
:101A0C000ED003F580639C420AD003F51C439C4224
:101A1C0006D003F580639C4202D0194B9C421BD12B
:101A2C0023682946304623F00103236001F0E0FFD0
:101A3C00236843F00103236095E8030087E8030063
:101A4C000020BDE8F8834FF4C06897E73AB94FF02F
:101A5C008050A6E7002AA2D06FF08500F1E7033A88
:101A6C00012AF9D900209CE710469AE70023A2E747
:101A7C000223A0E7032BA9D0EEE700BF0010014022
:101A8C00000C0058F7B50646446805695E482860A6
:101A9C0002F04AF8002800F0AD802868E1688368FD
:101AAC001B68002B00F0AA8098470028C0F2A48085
:101ABC0001AA0021206A01F098FE0028C0F29C8047
:101ACC00019B002219791868FFF778FE0028C0F2F4
:101ADC009380756833692C685F68236823F0010371
:101AEC002360686802F020F8002800F08380D5E9B4
:101AFC0001018368DB6803B1984754E8003F43F069
:101B0C000C0344E80032002AF7D13946304601F084
:101B1C006FFF2B7D1BB1A36843F00803A3606B7DA3
:101B2C001BB1636843F400436360AB7D1BB1636816
:101B3C0043F480336360EB7D1BB1636843F4003383
:101B4C0063602B7E002B43D0304B9C4226D0A3F5F8
:101B5C004C439C4222D003F580639C421ED003F57B
:101B6C0080639C421AD003F580639C4216D003F527
:101B7C0044439C4212D0A3F51C439C420ED003F567
:101B8C0080639C420AD003F51C439C4206D003F5AB
:101B9C0080639C4202D01E4B9C4232D173681A68FF
:101BAC00936843F48043936023686A7E23F07873D0
:101BBC0043EA425323602368AA7E23F4F81343EAD2
:101BCC0002432360EB7E1BB1A36843F40043A36084
:101BDC002B7F1BB1236843F000532360236843F031
:101BEC0001032360E3699A02FCD5E3695B02FCD52F
:101BFC00002001E06FF0120003B0F0BD6FF0570051
:101C0C00FAE76FF01500F7E7BC3E00080010014042
:101C1C00000C00584FF0E0230F4910B59C691A696D
:101C2C0008689B6902F480320C4934B993B90346B5
:101C3C004AB90A681044C01A10BD002B08BF0346ED
:101C4C000AB9A342F5D90A6802440A604FF0E022AF
:101C5C001269EEE70446F3E7D0030024CC0300241A
:101C6C000A4B1022002083F823204DF2D862084B37
:101C7C001A604DF2D762074B18604FF0E0235A619F
:101C8C0098611A6942F007021A61704700ED00E092
:101C9C00D0030024CC030024684620F007018D46B5
:101CAC0019B5FFF7B7FF1149114B0868D3E900428A
:101CBC00001942F10002C3E900020E4A00230B6036
:101CCC004DF2D863D2E90041001BB0FBF3F0434363
:101CDC001B1941F10001C2E9003100F009FFFEF7C8
:101CEC0091FDBDE819408546704700BFCC03002428
:101CFC00A0000024980000242DE9F041DFF8E080DA
:101D0C0099B1421C0BD14FF0E022136923F001036F
:101D1C0013614FF07F43C8F80030BDE8F081D8F86C
:101D2C000060012807DC00270BE0431CD8F800609A
:101D3C00F7D14FF4987040F231139842A8BF18466F
:101D4C00471EEFF31185102383F31288BFF36F8FB7
:101D5C00FFF760FF234C4FF0E0239969D4E900238F
:101D6C0080184FF0000243F10003C4E900031E4B3E
:101D7C001A601E4B1A68831A2ED44DF2D86C0CFBC9
:101D8C00073303F55643D733B3FBFCF7131A40F66E
:101D9C006D520CFB0733934238BF1346144A9342DF
:101DAC0028BF1346C8F800304FF0E022013B906981
:101DBC005361002381429361A1EB0003D4E900122B
:101DCC0038BF9B195B1842F10002C4E9003285F35D
:101DDC001188BFF36F8FA0E740F66D53E2E700BFA9
:101DEC00D0030024A0000024CC030024980000247D
:101DFC008020FF0038B5EFF31185102383F3128890
:101E0C00BFF36F8F084B1C68084B1B68E41AFFF775
:101E1C0001FF85F31188BFF36F8F4DF2D863204417
:101E2C00B0FBF3F038BD00BFA000002498000024E4
:101E3C00024610B578B14F498B6913F440433FD13A
:101E4C004D484E4C1044A04207D28B6903F44043DA
:101E5C00B3F5404F51D101207CE04948494C104426
:101E6C00A04246D948481044A04244D9474882422F
:101E7C00886900F4404007D9B0F5404FEBD0896930
:101E8C00012001F440414CE0B0F5404F45D1404BAE
:101E9C001344404A93428CBF002301233E490A68F5
:101EAC0022F00F021A430A600A6802F00F029A42EB
:101EBC005ED0086800F00F00C01A18BF012049E07E
:101ECC0000232C48816901F44041B1F5404F2BD1DE
:101EDC00324933481144814246D92D49A0F574202A
:101EEC001144A0F51070814240D92E498A42D5D9AF
:101EFC00B1E70223E5E70123E3E78B69002003F454
:101F0C004043B3F5004F4FF0030319D02649274C3B
:101F1C001144A14226D9264918E08969184601F4D2
:101F2C004041B1F5004FF0E7816901F44041B1F552
:101F3C00004F10D11F4920481144814214D9002070
:101F4C001E491D4C1144A1420CD91D498A4282D80C
:101F5C000028A3D010BD0C491A481144814203D368
:101F6C000020D3E70123F3E7022397E7012395E74A
:101F7C001846A1E7004802587FA77BF340D2DF0345
:101F8C00FFC4A7F77F1D2C047FE2D3FB801D2C041C
:101F9C003FA901FC7F14EF0300200052BF9412F8FC
:101FAC00BF56FE03C056FE033FF1E9FDBF0E1602FD
:101FBC00C00E1602FF1E0AFA7FF0FA027F0F05FD13
:101FCC0080F0FA02C0E1E40038B5EFF3118510237C
:101FDC0083F31288BFF36F8F064B9C6801F0B7FD3B
:101FEC0085F31188BFF36F8F2046BDE83840FEF7AC
:101FFC003BBE00BFD403002438B50A4B53F8204035
:10200C00013053F82050A54200D838BD606830B17B
:10201C00037FDB0701D401F09DFD0834F3E723684F
:10202C009847FAE7C04800082A4B0122032070B5F4
:10203C00294C86B0294D1A70FFF7DEFF00F0D0FD59
:10204C000420FFF7D9FF26463034AE4210D3224C81
:10205C0000F048FA224EAC4226D300F057FAFEF7B5
:10206C0099FA204A137B23F00103137306B070BD59
:10207C0054F80C3C059354F8103C049354F8143C5D
:10208C00039354F8183C029354F81C3C019354F8F5
:10209C00203C009354E90A2354E90C0100F0D6F8D3
:1020AC0054F8303C5E65CEE7D4E90A23B3F1FF3F28
:1020BC0008BFB2F1FF3F05D052EA0301206803D1FB
:1020CC0000F0E0FA3034C6E73146183000F080FCFE
:1020DC00F8E700BF01040024F4450008F4450008AB
:1020EC00293C00082801002406480021064A08B5AE
:1020FC00121A01F046FD0548054A0021121A01F09A
:10210C0040FD08BD980000240404002400000020B9
:10211C000000002070B5002386B00122144E0193FC
:10212C000446144D06EBC0161349CDE904230F22C7
:10213C00CDE9023214234FF4A07203FB00554FF487
:10214C00C0700E4B00FB04113046009500F07EF879
:10215C00737B0B4A23F00403EE602C7473734FF4FF
:10216C00046304FB033313446B6006B070BD00BF03
:10217C00A8000024D4030024800C0024973B000802
:10218C0040040024BFB50020FFF736FF274B83F334
:10219C000888274D0024F023264F85F82230EC7751
:1021AC002C766C76AC7685F820406B6A43F4E02391
:1021BC006B62FEF729FDFEF747FE4FF0FF33AB6273
:1021CC00EB62FEF707FF1C4DFEF762FE1B4800F0AA
:1021DC008BF801F0A8FCFEF797FA0120FFF70CFF33
:1021EC000220FFF709FF00F0C5F9154B15494FF414
:1021FC0080625D612846144B009405930123CDE960
:10220C000144CDE903433B4600F020F86A7B0646C7
:10221C00284622F004026A7301F0D4FC2046FFF732
:10222C0079FF3A4631462846FEF7F0FD800C002433
:10223C0000ED00E03520000828010024A80100244E
:10224C00D4030024000E00244E4E000807322DE962
:10225C00F04322F0070285B00E461F46109900F19C
:10226C0058037F3204460173042122F03F0206F129
:10227C00400941733F2AA2F14008C0E916334FF0E0
:10228C00000383600F98E373A073C4E9063305D889
:10229C0083F31188BFF36F8F084602DFB518204611
:1022AC002946FEF78FFA07300E9B314620F00700C7
:1022BC00C4E91898A0662D1A029320460D9B2A4655
:1022CC0001930C9B00933B46FEF774FD0023636562
:1022DC00044B9B6803B1DB6E2846E36605B0BDE892
:1022EC00F08300BFD403002440F201138381002348
:1022FC00C0E91833C366014B98607047D4030024BF
:10230C00094A6FF00A0193689967084958674B6846
:10231C0043F080534B60002383F31188BFF36F8F1E
:10232C009368986F704700BFD403002400ED00E061
:10233C0070B590F90D20437B002A36DBD90634D1D9
:10234C001B4C63F07F0322464373E16952F8183F3C
:10235C00934207D1C0E900210860E06111E0994285
:10236C00F8D01B68002BF5D090F90E5093F90E6045
:10237C00B542F4D0AE42F2DD5968C0E900310860D4
:10238C005860A569954200D005B9E568A3685A7BE9
:10239C00D20604D1DA897F2A01D9AA6932B1AB42BB
:1023AC0002D0284600F066FA656170BD6361FCE7F7
:1023BC00D403002438B590F90D200146437B002A44
:1023CC0004DA03F07F03437301F0EAFB0D4D2A4658
:1023DC00AB6852F8184F944200D004B9EC688B42A9
:1023EC0007D05A7BD20604D1DA897F2A01D9A26997
:1023FC002AB1A34202D0204600F03CFA23466B617E
:10240C0038BD00BFD403002470B590F90D200146EF
:10241C00437B002A04DA03F07F03437301F0C0FB13
:10242C004B7B1C4C63F07F0322464B7352F8183FD6
:10243C00E069934207D1C1E900200160E16111E03C
:10244C009842F8D01B68002BF5D091F90E5093F9F7
:10245C000E60B542F4D0AE42F2DD5868C1E90030EE
:10246C0001605960A569A368954200D005B9E5687B
:10247C008B4207D05A7BD20604D1DA897F2A01D944
:10248C00AA692AB1AB4202D0284600F0F3F92B46D8
:10249C00636170BDD403002449B9EFF3058030B9F2
:1024AC00054B5A699B689A4201D0FFF729BF81F30B
:1024BC001188BFF36F8F7047D4030024034648B9CB
:1024CC00EFF3058232B9064A51699268914201D004
:1024DC00FFF716BF83F31188BFF36F8F704700BFF0
:1024EC00D4030024EFF31181102383F31288BFF37C
:1024FC006F8F054B9A68D37B013BD37381F31188A3
:10250C00BFF36F8F704700BFD403002470B5EFF397
:10251C001186102383F31288BFF36F8F144DAB68B1
:10252C00DA7B0132DA732A4652F8184F944200D003
:10253C0004B9EC685A7BD20604D1DA897F2A01D916
:10254C00A2692AB1A34202D0204600F093F9234697
:10255C006B6186F31188BFF36F8FEFF3118010233B
:10256C0083F31288BFF36F8FBDE87040FFF7A6BFEF
:10257C00D4030024024B03F11802C3E9062270476E
:10258C00D403002470B5EFF31186102383F3128863
:10259C00BFF36F8F1B4CA168E0690B68814214BFBD
:1025AC001A46002249680B605960A368E1692AB990
:1025BC00154AC3E900210B60E3610CE093F90E00AE
:1025CC0092F90E50A84218D0854216DD5168C3E925
:1025DC0000210B605360A5690B4B9D4200D005B9DF
:1025EC00E568A3689D4202D0284600F043F93046C6
:1025FC006561BDE87040FFF783BE8A42D8D012688F
:10260C00D5E700BFD4030024EC030024F8B550EA4E
:10261C00010306460C4603D1FFF7B4FF0020F8BDBA
:10262C00EFF31187102383F31288BFF36F8F124DD2
:10263C00124BA8681860FFF7BDFEA8682346324607
:10264C000F49183000F0C4F9AA6804463846537B89
:10265C0043F004035373FFF753FEAB68D3E90A232B
:10266C00B3F1004F08BF002AD8D101F042FB201A69
:10267C0020EAE070D3E700BFD4030024F403002465
:10268C00293C000838B50446EFF31185102383F379
:10269C001288BFF36F8F437B5B070FD5183001F0A7
:1026AC0000FB637B204623F004036373FFF740FEBB
:1026BC0029460548BDE83840FFF7EEBE85F3118882
:1026CC00BFF36F8F38BD00BF02040024014B986824
:1026DC00704700BFD40300242DE9F8430446077B60
:1026EC00EFF31185102383F31288BFF36F8F437BB5
:1026FC00190705D585F31188BFF36F8FBDE8F883F3
:10270C00D90943F008025DD14273A36813B1204686
:10271C0001F04EFA04F1180004F1580801F0C1FA66
:10272C00A66DB04511D04FF0000976B1304601F0DE
:10273C003FFA06F1180001F0B4FA3046C6F878906A
:10274C00FFF7F6FDA66DB045EFD1DFF8C080D8F8E5
:10275C0008309C423ED1EFF30589B9F1000918BF4E
:10276C004FF00109D8F81860294A964200D00EB9EA
:10277C00D8F80C60B34202D0304600F07BF820460B
:10278C00C8F8146000F08FFDB9F1000F02D0214899
:10279C00FFF7AAFDD8F808309C4231D1EFF305833E
:1027AC0073BB227BD20718D42846FFF7A9FDFB0781
:1027BC00A4D5002383F31188BFF36F8F042318462D
:1027CC0002DF9BE703F07F0343F00803437301F040
:1027DC00E7F99AE74FF00009C4E785F31188BFF3D6
:1027EC006F8F83F31188BFF36F8F0423184602DFBA
:1027FC00EFF31180102383F31288BFF36F8FD4E7AC
:10280C0085F31188BFF36F8FD1E700BFD403002489
:10281C00EC030024A8010024044B0122C01A044B31
:10282C00C0105843034B1A54704700BF28020024B1
:10283C00ABAAAAAA02040024C3897F2B12D80A4B84
:10284C001B6863B1094B90F90E201B689A4209DB97
:10285C00437BDB0606D1064BC31A18BF012303F0DA
:10286C00010070470023FAE748000024F803002415
:10287C00A80000240E4B70B51E7C05460D4C06EBD3
:10288C00460304EBC304204601F00BFA0A4B00226A
:10289C0028469A55FFF7D0FF48B1084B2046084907
:1028AC001A68013ABDE87040D31700F091B870BDBA
:1028BC00D40300242802002402040024480000242D
:1028CC002528000838B5EFF31185102383F31288FF
:1028DC00BFF36F8F104B114A9C681068A04206D151
:1028EC00FFF7C8FF85F31188BFF36F8F38BD002148
:1028FC001B7C11600A4AD35C002BF3D02046FFF7F7
:10290C009BFF0028EED0637BDB0602D12046FFF74D
:10291C007BFD2046E4E700BFD4030024F40300242D
:10292C00020400240A480B4A0B49121A08B501F09C
:10293C002AF90A480A4A0B49121A01F024F90A48E2
:10294C000A4A0B49121ABDE8084001F01CB900BF35
:10295C000000002498000024A04E00080000002471
:10296C0000000024A04E0008000000200000002001
:10297C00384F0008024B1868984208BF0020704777
:10298C004C000024034B1B680BB9FFF733BA002033
:10299C00704700BFFC03002430B570B10B4B5B6873
:1029AC0098420AD0036843B1D3E90421D0E9044525
:1029BC00121941EB0501C3E90421D0E9003213607F
:1029CC005A600023C0E9003330BD00BF4C00002426
:1029DC00B3F1FF3F08BFB2F1FF3F2DE9F84F0446BA
:1029EC00994615461F467AD08160EFF31188102363
:1029FC0083F31288BFF36F8FB9F1000FDFF8E4A0F7
:102A0C0020DBFFF7BFFF0135064649F100092D1801
:102A1C00DAE9002749EBE0734FF00109C4E90453EC
:102A2C00AD1843EB0707FFF7A5FFDFF8BCE0034643
:102A3C00DEF804A0EBB9C4E900EACAF80040CEF80D
:102A4C00044028E0DAE900126FF001035B1A4FF042
:102A5C00FF3161EB02025B1B62EB0902012B4FF0B1
:102A6C00000972F10001BCBF01230022C0E904324D
:102A7C00D9E7D3E9041CD4E904208A4270EB0C0B8F
:102A8C0024DA891A5A686CEB0000C3E90410C4E913
:102A9C00003214605C60FFF76DFF84420ED1134B63
:102AAC001B685BB9B9F1000F02D1FFF76BFF06464B
:102ABC00304601F0DFF80021FFF71EF988F311888A
:102ACC00BFF36F8F28463946BDE8F88F521A60EB7A
:102ADC000C009A45C4E90420ADD01B68AAE7002578
:102AEC002F46EFE7400200244C000024FC03002496
:102AFC002DE9F047EFF31185102383F31288BFF310
:102B0C006F8FDFF8A4900026DFF8A0800027C9F8AB
:102B1C000000FFF72FFFD9F80030D8E900ECD917E7
:102B2C0050B1D0E90442A34271EB020A1CDAE41A58
:102B3C0062EB0102C0E9044213EB0E034FF00004F8
:102B4C004CEB01012046C9F80040C8E9003101F006
:102B5C0091F82146FFF7D0F885F31188BFF36F8FFA
:102B6C00BDE8F047FFF7AEBE14EB0E024CEBE4737E
:102B7C00C0E90467C8E90023FFF70EFF85F311884D
:102B8C00BFF36F8F83689847EFF31185102383F39E
:102B9C001288BFF36F8FD9F800301B1BC9F80030B7
:102BAC00FFF7E8FEB7E700BFFC0300244002002457
:102BBC0010B5EFF31184102383F31288BFF36F8FDA
:102BCC00FFF7E0FE054A0346D2E90001181841EB75
:102BDC00E37184F31188BFF36F8F10BD40020024A2
:102BEC00014800F043BB00BF534E00082DE9F04FE5
:102BFC008DB043680293837815469A07804640F15E
:102C0C000D8100240E78002E00F00A81252E0BD0A9
:102C1C004B1C03930134029B4146304698470028D5
:102C2C00C0F2F6800399EDE74E788B1C252E0393AA
:102C3C00F0D00027B946BB46BBF11F0F38D8A6F120
:102C4C002003102B0AD8DFE803F02A090930090900
:102C5C00092109090928092D09091F00A6F13003CA
:102C6C00092B33D92A2E37D11BF0400F55F8043BD2
:102C7C0040F08280002BA7BF4BF0200B9946C3F18C
:102C8C0000094BF0280B01E04BF0010B039B13F8F0
:102C9C00016B0393002ECFD130E04BF0020B4BF0C5
:102CAC00040BF3E74BF0080BF0E74BF0100BEDE7E0
:102CBC00BBF17F0F19D8A6F13003092BD2D81BF02A
:102CCC00400F03D00A2101FB0737DFE70A2101FB84
:102CDC0009394BF0200BD9E72E2E06D11BF0400FF3
:102CEC0040F09E804BF0400BD0E76C2E31D02BD8AF
:102CFC00682E36D06A2E3CD04C2E3AD0002F46F09F
:102D0C002003B8BF2BF04002A3F16501BCBF1FFA32
:102D1C0082FB0027022901D9612B2FD1073525F021
:102D2C000705DFF8ACA2083507271BF0080F66D0A3
:102D3C000AEB070B56465E4563D1A4EB0A0A06EB79
:102D4C000A02A9EB07096FE1742E9FD07A2E9DD051
:102D5C00D4E71BF0800F18BF4BF4007B4BF0800BBB
:102D6C0094E71BF4807F18BF4BF4007B4BF4807B03
:102D7C008CE74BF4207B89E71F4687E7A6F16301BC
:102D8C00122900F2F080DFE811F013004F00EE0082
:102D9C00EE00EE00EE004F00EE00EE00EE00EE0056
:102DAC00EE00FE00E900EE00EE001B00EE00AF00AE
:102DBC0055F8043B8DF8183001270DF1180AB4E7CB
:102DCC0055F804AB834BBAF1000F08BF9A461BF0C1
:102DDC00400F14BF39464FF0FF31504600F0A3FFAF
:102DEC000746A2E7029B41462020984700280FDBAC
:102DFC00013EB742F6D34C44A41BB14698E74E466D
:102E0C00F7E716F8010B029B41469847002892DA27
:102E1C0098F8023043F0040388F802304FF0FF3486
:102E2C0020460DB0BDE8F08F1BF0800F34D01BF4A2
:102E3C00007F2CD0073525F00705AA4669685AF89B
:102E4C00080B2BF010050029ADB237DA404261EBCC
:102E5C00410145F480650DF1180B0A235A4600F028
:102E6C006EFFA0EB0B0301936B0662D5019B25F063
:102E7C0001019F4289B240F3A180002E00F099809D
:102E8C0015F0100240F09C80BB460D4623E0AA468C
:102E9C005AF8040BC117D4E7AA461BF4807F5AF8E2
:102EAC00041B01D10846F5E71BF4007F15BF48B29F
:102EBC0008B241F3C01141F3C031C2E750EA01033B
:102ECC00C9D11BF0400FC6D0002FC4D12BF011027A
:102EDC0095B2BB46019740F2064115EA01021CBFB0
:102EEC000BF1010B00222CE02BF010021FFA82FBDD
:102EFC000A231BF0800C49D01BF400711DBF073551
:102F0C0025F00705AA46AA461ABF5AF8080B6968A5
:102F1C005AF8040B50EA010545D12BF016051BF0AD
:102F2C00400FADB242D0002F40D12BF0170295B21A
:102F3C00019715F0100248D0019B002E42D103F1ED
:102F4C00010B29075AD4EB0706D5D9456FDD01993A
:102F5C00A9EB0B035F18CB465B4649E04BF0100B1B
:102F6C0010237826C5E7782B04D1C6F1780343F0FB
:102F7C001003BEE7029B4146252098470028FFF628
:102F8C0047AF023447E608230026B2E7AA461BF4F3
:102F9C0080715AF8040BBDD01BF400711ABFC0B27B
:102FAC00614680B2B6E72BF0060295B20DF1180B14
:102FBC0054E725F01105ADB2BB468CE70D46B8E7DA
:102FCC003B460D4603F1020BBBE7DDF804B082E78C
:102FDC00954E00088E4E0008CDE904324146029B06
:102FEC00202098470028FFF613AF049B059A013365
:102FFC009945F1DCA4EB0B01CC189B460AB3029B60
:10300C004146302098470028FFF602AF8EB90134B4
:10301C002744019B391B994224DC1D465DBB019A58
:10302C00A9EB0B09224455461446914435E0019F07
:10303C0092E7023441463046029B98470028E7DA73
:10304C00E6E640F206410D42E2D015F0020F14BF45
:10305C002B20202015F4806F04F10104414618BF89
:10306C002D20E9E7029B414630209847002804F1C7
:10307C000104CEDACCE606AB013D4146585D029B1D
:10308C0098470028CADAC3E6029B4146202098479D
:10309C00002804F10104FFF6BBAEA9EB0403002BDE
:1030AC00F2DCBFE57047836800EBC101B3F5004F5C
:1030BC002CBF51F8220031F81200704700EBC1010F
:1030CC008068B0F5004F2CBF41F8223021F8123047
:1030DC007047012208B5FFF7E6FFD04008BD8368B2
:1030EC0000EBC101B3F5004F08D34B681AB143F0A4
:1030FC0001034B60704723F00103FAE74B881AB1C8
:10310C0043F001034B80704723F00103FAE75300AF
:10311C000122FFF7D3BFB0F5004F01F1010034BF1E
:10312C00042308230833A0EBD300B0FA80F0C0F1DD
:10313C001F0070472DE9F04186680D460446FFF7E5
:10314C00C8FFB6F5004F014601D3012832D03046F6
:10315C00FFF7E1FF04EB80010E6996B90122E368E9
:10316C008240204613430222E3602B460D61294620
:10317C00FFF7A4FF032229462046BDE8F041FFF7E4
:10318C009DBF022231462046FFF78DFF294603469C
:10319C0007462046FFF792FF032233462946204676
:1031AC00FFF78CFF39462B462046FFF787FF02229C
:1031BC003146E1E7BDE8F081B2F5802F2CBF082342
:1031CC000423D21A2DE9F0418C18CD1D002625F0D0
:1031DC00070524F00704641B0560EE60E408214633
:1031EC002046AC60FFF797FF421D013031464FEA95
:1031FC00820205F1100002F10707A2F11002B8BF1C
:10320C003246FF0800F087FD31463A462846FFF764
:10321C007EFFA4EB07083346324631462846FFF7BB
:10322C004DFF284631460122FFF759FF42463946E9
:10323C00FFF76DFF3B46324639462846FFF73EFF07
:10324C0021462846FFF763FF43463246214628466F
:10325C00FFF734FF214628460122FFF740FF39468D
:10326C00BDE8F041FFF766BF002070470FB407B50B
:10327C0004A951F8040B0191FDF7B8F903B05DF8FE
:10328C0004EB04B07047704701460068FDF766BA5E
:10329C0008B5FDF793FABDE80840FDF7B3BA002175
:1032AC000120FDF75BBA6FF08500704761B662B61E
:1032BC0080F31188BFF36F8F704772B6002383F3CE
:1032CC001188BFF36F8FBFF34F8F30BF62B6BFF360
:1032DC006F8F7047202809D9B0F1004F08D80138FA
:1032EC00B0FA80F0C0F11F00400070470820704712
:1032FC003E20704708B5FDF721FF002008BD08B53A
:10330C00062201210020FDF73FFF00220620114676
:10331C00FDF710FD012107220846FDF735FF0022BD
:10332C0007201146FDF706FD082201210220FDF7BA
:10333C002BFF002208201146FDF7FCFC092201217D
:10334C000320FDF721FF002209201146FDF7F2FCB6
:10335C000A2201210420FDF717FF00220A20114642
:10336C00FDF7E8FC052117220846FDF70DFF0022AA
:10337C0017201146FDF7DEFC282206210A20FDF756
:10338C0003FF002228201146FDF7D4FC002008BDC5
:10339C0001F01F010120884070474FF0B042D2F875
:1033AC00803023EA0003C2F880307047032925D807
:1033BC00DFE801F0020D121C4FF0B0431A6822EA4C
:1033CC0000021A605A6822EA00025A6070474FF0F5
:1033DC00B0431A680243F4E74FF0B0435A68024313
:1033EC005A601A6822EA00021A6070474FF0B04324
:1033FC001A6802431A605A6810435860704700F00C
:10340C0003020F2304329200934043EA900000F031
:10341C000303020C92FAA2F29B00B2FA82F203F1BD
:10342C00B04302F01F0210B5D3F80844914024EACF
:10343C0010400143C3F8081410BD5F2817D800F0E2
:10344C001F0201231F2803FA02F34FF0B04206D8E3
:10345C00D2F8882093430CBF0120002070473F28EE
:10346C0002D8D2F89820F5E7D2F8A820F2E700208D
:10347C00704700F01F0201235F2803FA02F30FD8F4
:10348C001F284FF0B04203D8C2F888300020704794
:10349C003F2802D8C2F89830F8E7C2F8A830F5E710
:1034AC006FF0150070470B8882B0C3F30B0303F663
:1034BC002C72C2F30B02202A14D803F1B0434868D3
:1034CC0003F511331A68024300201A600B88C3F30A
:1034DC000B0303F1B04303F511331B680193019BFC
:1034EC0002B070476FF08500FAE70B88C3F30B034B
:1034FC0003F62C72C2F30B02202A0AD803F1B04354
:10350C004968002003F511331A6822EA01021A6097
:10351C0070476FF085007047431E042B06D908389E
:10352C0005288CBF6FF08500002070470020704785
:10353C0010B50888C0F30B00FFF7EEFF00281FDB67
:10354C004A68FF2A1BD093B2C2F38454C2F30542DB
:10355C0003F1B04304FA02F203F51133186820EAC0
:10356C0002021A6049688BB2CA0EC1F3054103F11D
:10357C00B0438A4003F51133186802431A600020E7
:10358C0010BD436800205B681B690B607047436883
:10359C005B68586942400A40424000205A617047BB
:1035AC00436800205B6899617047436809040020F8
:1035BC005B6899617047436800205A6853694B40B7
:1035CC005361704710B503699868F8B1884219D1F6
:1035DC00DC680868A142986000D1D86000200860BF
:1035EC002AB19A680A60DA68996002B9D960002039
:1035FC0010E0814206D108682060D8688142EDD184
:10360C00DC60EBE7044600680028F2D1002AE8D120
:10361C006FF0150010BD2DE9F04144680120C2F394
:10362C008016C2F3C11C676888408E4002F03005DA
:10363C0027EA0007C2F34122202D46EA070600FACA
:10364C0001F7666007EB470ED4F8088007FB0CFC0B
:10365C0007FB02F26FEA0E0628EA0E084CEA080C89
:10366C00C4F808C0D4F80CC02CEA0E0C42EA0C02C8
:10367C00E2600CD1072912D807FA01F2206A8A40BD
:10368C00C2EB02115A4320EA01010A432262236869
:10369C002D091E407D4335432560BDE8F081020AAB
:1036AC00616A52435243C2EB0210534321EA0001B8
:1036BC000B436362EBE712F4003CF8B505460C468D
:1036CC0013461DD0960714D550075DD55022D90648
:1036DC0011D542F4007203F4C061B1F5806F42D091
:1036EC00B1F5C06F19D0B1F5007F18D142F080024E
:1036FC0015E01022EBE79F06EDD542F48062EAE775
:10370C00D60305D5D00605D4C2F340129202E2E7E7
:10371C003022E0E74FF40072DDE742F4C07213F49C
:10372C0040372E6908D0306920FA04F1C9075FBF11
:10373C000121A14001433161BCF1000F06D01803F7
:10374C0014D5696801234968A3408B610023214685
:10375C006868FFF760FF27B9336923FA04F2D207D0
:10376C000CD40020F8BD42F48072D8E75903EDD593
:10377C0001212846A140FFF718FFE7E70122A240EC
:10378C0023EA02033361ECE76FF08500EAE770B5DA
:10379C000B468968054611B15E680C6801B970BDAD
:1037AC008A682A4002D04B68304698471CB123687F
:1037BC0021461C46F2E72346FAE7F8B51F460446B5
:1037CC0040680E461546FFF726FF112F07D1012141
:1037DC002B0501FA06F104D563685B68996100203A
:1037EC00F8BD2046FFF7E1FEF9E730B5036813603A
:1037FC000579046804EBC504A34202D36FF0010001
:10380C0030BD5C798C4201D00833F0E70020F7E73B
:10381C004368C1F34B1001F01F011B68C058012312
:10382C008B4003424FF0000014BF012300231370A0
:10383C00704710B54368C1F34B1001F01F011A68B3
:10384C00012384588B4023438350002010BD10B5B6
:10385C004368C1F34B14012201F01F0118688A4020
:10386C00235823EA02032350002010BD38B5044628
:10387C000D46FFF7DEFF29462046FFF7E8FF002044
:10388C0038BDB0F5805F07D0B0F1805F09D1002959
:10389C0014BF012002207047002914BF032004200C
:1038AC007047002914BF02200320704743681B682F
:1038BC00D869DA69C0F3C000D107DA6948BF40F0B3
:1038CC0002009207DA6948BF40F004005107DA6938
:1038DC0048BF40F02000D20504D54FF4807240F070
:1038EC0008001A62C10701D508221A62820701D5A5
:1038FC0001221A62410701D502221A62820601D501
:10390C0004221A62704710B5436810201B68DA69EC
:10391C001206FCD5EFF3118280F31288BFF36F8F80
:10392C00DC69240604D482F31188BFF36F8FEEE7B1
:10393C00996282F31188BFF36F8F10BD43681B68C7
:10394C00DA69100701D508221A62DA69920603D5E2
:10395C005B6A00200B7070474FF0FF30704710B55A
:10396C00026904460B46526812680A604268126883
:10397C00126802F4C062B2F5806F33D0A2F5C06059
:10398C00424242411A7162681268526802F4405213
:10399C00B2F5805F28D0B2F5405F27D0002A0CBF6B
:1039AC00012203225A71626812681068116800F0D3
:1039BC00102001F4C061FFF764FF98716268002069
:1039CC001268926802F44072A2F540714A424A4170
:1039DC00DA7161680968896811F4804F18BF032295
:1039EC00DA7110BD0222CDE70022DBE70222D9E713
:1039FC002DE9F0410A79044603690D46012AD0F8F5
:103A0C0004805E6811D0901E47424741BF0269791D
:103A1C004046FDF715FFAB79022B09D0042B31D0B2
:103A2C00131E18BF01231B0306E04FF4C067EEE71B
:103A3C00B2FA82F35B091B07EA79D8F80010012A65
:103A4C0014BF4FF0000C4FF4407CAE421DD10A68FD
:103A5C0022F0805222F4B0523A431A430A604B6867
:103A6C0023F44053034320464B6063681A68936801
:103A7C0023F4407343EA0C0393603168BDE8F041D2
:103A8C00FDF712BF4FF48053D6E7D1F800E00EF4E7
:103A9C00C06E774506D0D1F800E02EF4C06E4EEA29
:103AAC0007070F6061680F68796801F4405188421C
:103ABC0004D0796821F44051014379606168086849
:103ACC00016801F010218B4204D0016821F0102113
:103ADC000B430360636819688B6803F440739C455F
:103AEC0005D08B6823F4407343EA0C038B60636846
:103AFC001B689968490405D5032A09D09A6822F4F1
:103B0C00804204E0032A03D19A6842F480429A600E
:103B1C0029683368994204D02046FDF7C5FE2B680E
:103B2C003360BDE8F081704740B1C368587810F03D
:103B3C0001001EBF1878B0FA80F040097047EFF30F
:103B4C001183102383F31288BFF36F8FFEE708B540
:103B5C00FFF7F5FF10B54369044633B90020E2685E
:103B6C00537843F00103537010BD98470028F5D0EB
:103B7C000028E368B8BF4042FF28A8BFFF20187098
:103B8C00EDE700F0C8B800F0B8B8102408B5EFF3B2
:103B9C00118384F31288BFF36F8FFFF78EFBF6E768
:103BAC00D0E9003213605A600023C0E9003370473B
:103BBC0008B5FFF7F5FF437B23F0020343730023A3
:103BCC00836008BD10B5EFF31184102383F31288C2
:103BDC00BFF36F8FFEF7ACFB84F31188BFF36F8FCD
:103BEC0010BD014610B5EFF31184102383F3128836
:103BFC00BFF36F8F437B13F0280F0AD183680BB18F
:103C0C00FFF7D6FF4B7B084623F004034B73FEF7FC
:103C1C008FFB84F31188BFF36F8F10BD012118380F
:103C2C00FFF7DFBF38B504460D46FEF7EFFC034641
:103C3C00B5F1FF3F08BFB4F1FF3F204614D013F19C
:103C4C0009004FEAE37141F100010A2871F1000308
:103C5C000BD36FF00A0383424FF004038B4106D35E
:103C6C000A220023FCF72CFB38BD0020FCE76FF088
:103C7C000040F9E708B50246FEF77CFE70B1D0E9CA
:103C8C0004319B1A61EBE272B3F1004F72F1000147
:103C9C0004DA002AACBF1846002008BD6FF00040C3
:103CAC00FBE7024638B5EFF31185102383F3128836
:103CBC00BFF36F8F0368CBB1FEF75CFE0446104672
:103CCC00FEF76AFE00224FF000438442C0E9042351
:103CDC0006D1FEF757FEFFF7CDFF0021FEF70CF8DB
:103CEC00002085F31188BFF36F8F38BD6FF015007E
:103CFC00F7E708B5FEF75CFF08BD0A44914200F1F6
:103D0C00FF3300D1704710B511F8014B03F8014F88
:103D1C009142F9D110BD02440346934200D1704741
:103D2C0003F8011BF9E710B5024601448A42134619
:103D3C0003D01C780132002CF8D1181A10BDF0B544
:103D4C00C3F137070446FFB203F01F031046082BDC
:103D5C00E6B233D0102B3ED06508A40844EA817437
:103D6C0045EAC1752D194FEA910242EB510229091E
:103D7C0041EA02716D1842EB1212290A41EA026102
:103D8C006D1842EB1222290C41EA02416D1842EBEC
:103D9C001242AD1842F10002EC0844EA4274D10818
:103DAC0004EB8402A6EB4205EDB2092D0CD90134CB
:103DBC00A5F10A0541F10001EDB212E0E40844EA74
:103DCC00417406F00705C908303554EA010200F8C1
:103DDC00015BBCD1F0BD240944EA017406F00F0567
:103DEC000909092D84BFED19EDB2EDE70148006812
:083DFC00704700005002002492
:083E0400FCC4FF7F0100000077
:103E0C0000000000BC3E00085D0600080000000039
:103E1C0000000000DC3E0008000000001C40000810
:103E2C00000000003C40000800000000DC3F0008DF
:103E3C0000000000FC3E000800000000FC3F0008F1
:103E4C00000000005C40000800000000BC3F0008BF
:103E5C00000000009C3F0008000000007C3F0008B0
:103E6C00000000005C3F0008000000003C3F000820
:103E7C00000000001C3F00080B330008000000008D
:103E8C0000000000BC400008000000009C4000083E
:103E9C00000000007C4000089116000800000000A3
:103EAC006D1C0008000000007111000800000000EB
:103EBC00664D00080000000028460008760000242B
:103ECC0000000000111400080000000000000000B9
:103EDC000D4E0008D8470008184600088E00002434
:103EEC0000000000000000000000000000000000C6
:103EFC00484D000800000000000000007400002481
:103F0C0000000000CD1200080000000000000000BE
:103F1C00734D0008B8460008F445000878000024EA
:103F2C00F0020024911700080000000000000000BF
:103F3C00814D0008CC460008F44500087A000024A6
:103F4C00040300249117000800000000000000008A
:103F5C008F4D0008E0460008F44500087C00002462
:103F6C001803002491170008000000000000000056
:103F7C009D4D0008F4460008F44500087E0000241E
:103F8C002C03002491170008000000000000000022
:103F9C00AB4D000808470008F445000880000024D9
:103FAC0040030024911700080000000000000000EE
:103FBC00B94D00081C470008F44500088200002495
:103FCC0054030024911700080000000000000000BA
:103FDC00C74D000830470008F44500088400002451
:103FEC006803002491170008000000000000000086
:103FFC00D54D000844470008F4450008860000240D
:10400C007C03002491170008000000000000000051
:10401C00E34D000858470008F445000888000024C8
:10402C00900300249117000800000000000000001D
:10403C00F14D00086C470008F44500088A00002484
:10404C00A4030024911700080000000000000000E9
:10405C00FF4D000880470008F44500088C00002440
:10406C00B8030024911700080000000000000000B5
:10407C001E4E0008DC47000844460008900000244F
:10408C0014000024911A0008000000000000000039
:10409C002E4E0008284800084446000892000024D0
:1040AC0024000024911A0008000000000000000009
:1040BC003E4E000874480008444600089400002452
:1040CC0034000024911A00080000000000000000D9
:1040DC0000000000AB32000800000000AB3200080A
:1040EC0000000000AB32000800000000AB320008FA
:1040FC0000000000AB32000800000000AB320008EA
:10410C00464D0008AD110008444D0008AD110008E3
:10411C00424D0008AD110008404D0008AD110008DB
:10412C003E4D0008AD11000800000000AB32000845
:10413C0000000000AB32000800000000AB320008A9
:10414C0000000000AB32000800000000AB32000899
:10415C0000000000AB32000800000000AB32000889
:10416C0000000000AB32000800000000AB32000879
:10417C0000000000AB32000800000000AB32000869
:10418C0000000000AB3200083C4D0008AD110008E7
:10419C0000000000AB32000800000000AB32000849
:1041AC0000000000AB32000800000000AB32000839
:1041BC0000000000AB32000800000000AB32000829
:1041CC0000000000AB32000800000000AB32000819
:1041DC0000000000AB32000800000000AB32000809
:1041EC0000000000AB32000800000000AB320008F9
:1041FC0000000000AB32000800000000AB320008E9
:10420C0000000000AB32000800000000AB320008D8
:10421C003A4D0008AD11000800000000AB32000858
:10422C0000000000AB32000800000000AB320008B8
:10423C0000000000AB32000800000000AB320008A8
:10424C0000000000AB32000800000000AB32000898
:10425C0000000000AB32000800000000AB32000888
:10426C0000000000AB32000800000000AB32000878
:10427C0000000000AB32000800000000AB32000868
:10428C0000000000AB32000800000000AB32000858
:10429C0000000000AB32000800000000AB32000848
:1042AC0000000000AB32000800000000AB32000838
:1042BC0000000000AB32000800000000AB32000828
:1042CC0000000000AB32000800000000AB32000818
:1042DC0000000000AB32000800000000AB32000808
:1042EC0000000000AB32000800000000AB320008F8
:1042FC0000000000AB32000800000000AB320008E8
:10430C0000000000AB32000800000000AB320008D7
:10431C0000000000AB32000800000000AB320008C7
:10432C0000000000AB32000800000000AB320008B7
:10433C0000000000AB32000800000000AB320008A7
:10434C0000000000AB32000800000000AB32000897
:10435C0000000000AB32000800000000AB32000887
:10436C0000000000AB32000800000000AB32000877
:10437C0000000000AB32000800000000AB32000867
:10438C0000000000AB32000800000000AB32000857
:10439C0000000000AB32000800000000AB32000847
:1043AC0000000000AB32000800000000AB32000837
:1043BC0000000000AB32000800000000AB32000827
:1043CC0000000000AB32000800000000AB32000817
:1043DC0000000000AB32000800000000AB32000807
:1043EC0000000000AB32000800000000AB320008F7
:1043FC0000000000AB32000800000000AB320008E7
:10440C0000000000AB32000800000000AB320008D6
:10441C0000000000AB32000800000000AB320008C6
:10442C0000000000AB32000800000000AB320008B6
:10443C0000000000AB32000800000000AB320008A6
:10444C0000000000AB32000800000000AB32000896
:10445C0000000000AB32000800000000AB32000886
:10446C0000000000AB32000800000000AB32000876
:10447C0000000000AB32000800000000AB32000866
:10448C0000000000AB32000800000000AB32000856
:10449C0000000000AB32000800000000AB32000846
:1044AC0000000000AB32000800000000AB32000836
:1044BC0000000000AB32000800000000AB32000826
:1044CC0000000000AB32000800000000AB32000816
:1044DC0000000000AB32000800000000AB32000806
:1044EC0000000000AB32000800000000AB320008F6
:1044FC0000000000AB32000800000000AB320008E6
:10450C0000000000AB32000800000000AB320008D5
:10451C0000000000AB32000800000000AB320008C5
:10452C0000000000AB32000800000000AB320008B5
:10453C0000000000AB32000800000000AB320008A5
:10454C0000000000AB32000800000000AB32000895
:10455C0000000000AB32000800000000AB32000885
:10456C0000000000AB32000800000000AB32000875
:10457C0000000000AB32000800000000AB32000865
:10458C0000000000AB32000800000000AB32000855
:10459C0000000000AB32000800000000AB32000845
:1045AC0000000000AB32000800000000AB32000835
:1045BC0000000000AB32000800000000AB32000825
:1045CC0000000000AB32000800000000AB32000815
:1045DC0000000000AB32000800000000AB32000805
:0845EC0000000000AB320008E2
:1045F400C33600088F3500089B350008AD35000828
:10460400B7350008C3350008E1160008D1350008A5
:0446140000000000A2
:104618001D3800083F3800085B3800087938000862
:10462800B3340008F734000800000000291300081C
:0C46380000000000000000003D350008FC
:104644004939000813390008B93800086519000809
:044654006B390008B6
:10465800050000006046000800000008F048000857
:104668002600020600000024F648000824000B116A
:104678000000F01FFB48000824000411004000302F
:10468800024900081A000811004000300F490008CC
:104698000E0004011D4900080000009000000010F1
:1046A80000000002000000240000000000000B06CB
:1046B800FFFF0000002802580A000000E000000088
:1046C80000040000FFFF0000002402580900000059
:1046D800E000000000020000FFFF00000020025878
:1046E80008000000E000000000010000FFFF0000DB
:1046F800001C025807000000E000000080000000D5
:10470800FFFF00000018025806000000E00000004B
:1047180040000000FFFF00000014025805000000E0
:10472800E000000020000000FFFF00000010025819
:1047380004000000E000000010000000FFFF00007F
:10474800000C025803000000E00000000800000010
:10475800FFFF00000008025802000000E00000000F
:1047680004000000FFFF00000004025801000000E0
:10477800E000000002000000FFFF000000000258F7
:1047880000000000E0000000010000005C4000089C
:104798003C4000081C400008FC3F0008DC3F0008C3
:1047A800BC3F00089C3F00087C3F00085C3F0008B5
:1047B8003C3F00081C3F000800000000000000000B
:1047C80000000000000000000000000000000000E1
:1047D80000440258000C0058DC3E00088313000017
:1047E8000048000801000000000000000000000070
:1047F8000000000008480008F4000000080000005D
:1048080010480008010000001848000802000000D5
:10481800C802000000020000E802000000000000DA
:1048280000480040DC3E0008121200004C48000816
:10483800010000000000000000000000000000006F
:1048480054480008E8000000000004005C48000824
:10485800010000006448000802000000070700008B
:10486800000200002707000000000000004400408C
:10487800DC3E000811120000984800080100000002
:10488800000000000000000000000000A048000830
:10489800E800000000000200A8480008010000002D
:1048A800B048000802000000A7060000000200004F
:1048B800C7060000000000000C3E00080C3E00087F
:1048C800AC3E0008B43E0008BC3E0008BC3E0008F0
:1048D800010002000400060008000A000C00100095
:1048E8002000400080000001464C415348005352CC
:1048F800414D0053595354454D005352414D5F4566
:1049080054485F425546005352414D5F4554485FF5
:1049180044455343006D656D6F72794039303030CE
:10492800303030300072302F61313A202030782515
:10493800303878202072312F61323A2020307825A3
:10494800303878202072322F61333A202030782591
:104958003038780A0072332F61343A2020307825B5
:10496800303878207231322F69703A20203078251B
:10497800303878207231342F6C723A202030782504
:104988003038780A0020787073723A202030782501
:104998003038780A004661756C74696E6720696EF4
:1049A800737472756374696F6E2061646472657381
:1049B8007320287231352F7063293A2030782530DA
:1049C80038780A00556E68616E646C6564204952D7
:1049D800516E3A2025640A002A2A2A2A2A204D5094
:1049E80055204641554C54202A2A2A2A2A0A0020B2
:1049F80020537461636B696E67206572726F7220F1
:104A080028636F6E746578742061726561206D69C2
:104A1800676874206265206E6F742076616C6964C3
:104A2800290A002020556E737461636B696E6720D4
:104A38006572726F720A00202044617461204163BC
:104A4800636573732056696F6C6174696F6E0A00D1
:104A580020204D4D46415220416464726573733A7B
:104A680020307825780A002020496E7374727563A7
:104A780074696F6E204163636573732056696F6C48
:104A88006174696F6E0A002020466C6F6174696EEC
:104A9800672D706F696E74206C617A792073746108
:104AA800746520707265736572766174696F6E20C3
:104AB8006572726F720A002A2A2A2A2A20555341DF
:104AC8004745204641554C54202A2A2A2A2A0A00BA
:104AD80020204469766973696F6E206279207A654F
:104AE800726F0A002020556E616C69676E656420DC
:104AF8006D656D6F7279206163636573730A002059
:104B0800204E6F20636F70726F636573736F7220CE
:104B1800696E737472756374696F6E730A0020200E
:104B2800496C6C6567616C206C6F6164206F6620EE
:104B38004558435F52455455524E20696E746F2054
:104B480050430A002020496C6C6567616C207573BE
:104B580065206F662074686520455053520A00200E
:104B680020417474656D707420746F206578656376
:104B780075746520756E646566696E656420696E16
:104B8800737472756374696F6E0A002A2A2A2A2A56
:104B980020425553204641554C54202A2A2A2A2A75
:104BA8000A002020537461636B696E672065727216
:104BB8006F720A0020205072656369736520646112
:104BC800746120627573206572726F720A0020200A
:104BD8004246415220416464726573733A203078CA
:104BE80025780A002020496D707265636973652015
:104BF8006461746120627573206572726F720A0055
:104C08002020496E737472756374696F6E206275C3
:104C180073206572726F720A0052657365727665E9
:104C28006420457863657074696F6E20280053703E
:104C38007572696F757320696E74657272757074B8
:104C480020284952512000535053454C20696E206A
:104C5800746872656164206D6F646520646F657344
:104C6800206E6F7420696E646963617465205053A7
:104C7800500A002A2A2A2A2A20484152442046411A
:104C8800554C54202A2A2A2A2A0A002020427573C1
:104C9800206661756C74206F6E20766563746F7220
:104CA800207461626C6520726561640A002020448A
:104CB80065627567206576656E740A002020466116
:104CC800756C7420657363616C6174696F6E2028FC
:104CD8007365652062656C6F77290A004152434805
:104CE8005F45584345505420776974682072656160
:104CF800736F6E2025780A0A002A2A2A2A2A204455
:104D080065627567206D6F6E69746F722065786370
:104D1800657074696F6E202A2A2A2A2A0A002A2AAC
:104D28002A2A2A20257320256429202A2A2A2A2A81
:104D38000A000A0605050401030102010101000138
:104D4800696E746572727570742D636F6E74726FAC
:104D58006C6C6572403538303030303030007263FA
:104D680063403538303234343030006770696F4012
:104D78003538303232383030006770696F40353836
:104D8800303232343030006770696F403538303235
:104D980032303030006770696F4035383032314317
:104DA8003030006770696F40353830323138303014
:104DB800006770696F403538303231343030006701
:104DC80070696F4035383032313030300067706983
:104DD8006F403538303230433030006770696F408B
:104DE8003538303230383030006770696F403538C8
:104DF800303230343030006770696F4035383032C7
:104E0800303030300072657365742D636F6E747264
:104E18006F6C6C65720073657269616C403538300F
:104E280030306330300073657269616C4034303003
:104E380030343830300073657269616C403430301A
:104E48003034343030006D61696E002A2A2A2042DD
:104E58006F6F74696E67205A6570687972204F5356
:104E6800206275696C642076342E322E302D3134F0
:104E780034362D67336165393632666433363461CA
:104E8800202A2A2A0A00286E756C6C29002A666C6A
:084E98006F61742A00000000A4
:104EA0007532000800000000013300080000000017
:104EB00000000000000000001C00002400C20100EF
:104EC00000010300000000002C00002400C20100CB
:104ED00000010300000000003C00002400C20100AB
:104EE000000103000090D003C80000004C00002423
:104EF0004C000024FF00FF00FF00FF00FF00FF0048
:104F0000FF00FF00FF00FF00FF00FF00FF00FF00A9
:044F1000FF00FF009F
:104F1400000000000000000000000000000000008D
:104F2400000000000000000000000000000000007D
:044F34000000000079
:044F380015E015E08B
:0400000508000C41A2
:00000001FF
